:020000021000EC
:100000000000012055B404008DB40400D157040051
:1000100091B40400DD570400E35704000000000021
:10002000000000000000000000000000B1AC010072
:1000300099B40400000000004BAD01005BAD01006D
:100040009FB40400492704009FB404009FB4040037
:100050009FB404009FB404009FB404009FB4040044
:100060009FB404009FB404009FB404009FB4040034
:100070009FB40400FDE204009FB40400A931040011
:100080009FB404009FB404009FB404009FB4040014
:100090009FB404009FB404009FB404009FB4040004
:1000A0009FB404009FB404009FB404009FB40400F4
:1000B0009FB404009FB40400000000000000000092
:1000C0009FB404009FB404009FB404009FB40400D4
:1000D0009FB404009FB404009FB404000348044B81
:1000E000834202D0034B03B118477047F805002044
:1000F000F80500200000000005480649091A89108B
:1001000001EBD171491002D0034B03B1184770477E
:10011000F8050020F80500200000000010B5064C8E
:10012000237843B9FFF7DAFF044B13B10448AFF368
:1001300000800123237010BDF8050020000000009E
:100140000875050008B5054B1BB105490548AFF317
:100150000080BDE80840FFF7CFBF00BF00000000EF
:10016000FC05002008750500154B002B08BF134B3C
:100170009D46A3F5803A00218B460F461348144A4A
:10018000121A41F039FE0F4B002B00D098470E4B4E
:10019000002B00D098470020002104000D000D48DE
:1001A000002802D00C4836F0DFF841F06DFD200049
:1001B00029000CF0DBFD36F0D4F800BF0000080089
:1001C0000000012000000000C9CC0100F80500205B
:1001D000D09400206963040000000000704770475D
:1001E000704770472DE9F047124D002600274EF664
:1001F00060284FF00009AA46D5E90023994508BFB9
:10020000904511D20C4C217871B9BB4208BFB24263
:1002100008D201264FF47A70267037F0C9F8237897
:1002200003B92670DAE900674FF4FA7037F0C0F8C6
:10023000E2E700BF20090020340900200B680360BA
:100240004B6843608B6883607047000010B5034BB8
:100250000360044601F036FB204610BD98260500D9
:1002600010B5034B03600446FFF7F0FF204610BDB6
:10027000A826050010B5034B0360044601F022FBDD
:10028000204610BD7826050010B5034B03600446D8
:10029000FFF7F0FF204610BD8826050010B5044684
:1002A000FFF7D4FF20460C2136F078FA204610BD27
:1002B00010B50446FFF7D4FF20460C2136F06EFA45
:1002C000204610BD10B50446FFF7D4FF20460C2190
:1002D00036F064FA204610BD10B50446FFF7D4FF8F
:1002E00020460C2136F05AFA204610BD10B5034BBB
:1002F0000360044609F002FD204610BD40260500BB
:1003000010B50446FFF7F2FF2046202136F046FAEA
:10031000204610BD10B5034B0360044609F0EEFC07
:10032000204610BD5C26050010B50446FFF7F2FF1D
:100330002046142136F032FA204610BD10B5034B8A
:100340000360044609F0DAFC204610BD24260500AF
:1003500010B50446FFF7F2FF20460C2136F01EFAD6
:10036000204610BD034608469A6803F10C0109F0C7
:10037000E7BB10B40C46037C826800F10C012046F8
:100380005DF8044B09F01EBC0B46811D184609F0B0
:10039000C5BB03681847C3680BB19B681847704713
:1003A000F7B50D461F4600210B4B03600446016163
:1003B0004030164636F0EAFF04F1540036F086FF6E
:1003C000089B009320463B463246294637F05CF8AE
:1003D000204603B0F0BD00BF886B050070B50C4629
:1003E0008CB005461F4903A80AF098F90A22B4F90F
:1003F000001068460AF0CEF9694603A80AF037FAF9
:1004000019490AF040FA0A220646B4F9021006A871
:100410000AF0C0F906A930460AF029FA13490AF091
:1004200032FA0A220646B4F9041009A80AF0B2F911
:1004300009A930460AF01BFA0D490AF024FA0146D0
:1004400028460AF08CF909A80AF01DF906A80AF056
:100450001AF968460AF017F903A80AF014F92846B1
:100460000CB070BDBE290500CF290500D6290500B6
:100470001B65050010B506310446FFF7AFFF2046A7
:1004800010BD000070B50C4692B005462E4903A879
:100490000AF044F90322216868460AF08DF969469A
:1004A00003A80AF0E4F929490AF0EDF90322064607
:1004B000616806A80AF080F906A930460AF0D7F963
:1004C00023490AF0E0F903220646A16809A80AF0C8
:1004D00073F909A930460AF0CAF91E490AF0D3F99E
:1004E00003220646E1680CA80AF066F90CA930461A
:1004F0000AF0BDF918490AF0C6F903220646216937
:100500000FA80AF059F90FA930460AF0B0F91349BB
:100510000AF0B9F9014628460AF021F90FA80AF0B5
:10052000B2F80CA80AF0AFF809A80AF0ACF806A8CF
:100530000AF0A9F868460AF0A6F803A80AF0A3F89A
:10054000284612B070BD00BF74290500CF290500F0
:10055000D62905008C290500932905001B65050097
:1005600010B50C310446FFF78DFF204610BD00008A
:1005700038B504460D4609F069FB0B4B2360002398
:10058000A360E360094B00221978A94204BF5968AF
:10059000A16002F1010204BF597821744F2A03F1CE
:1005A0000803F1D1204638BD5C260500FC26050075
:1005B000037CD0ED037A0B2B0CD19FED087AF4EE7F
:1005C000C77AF1EE10FAC6BF80ED037AF7EE007A33
:1005D000F0EE477A17EE900A704700BF0000000067
:1005E00030B50B7C0B2B87B004460D4611D1084665
:1005F000FFF7DEFF07EE900AF5EE407AF1EE10FA13
:1006000014BF1149114920460AF088F8204607B066
:1006100030BD0F4903A80AF081F80322E968684653
:100620000AF0CAF8694603A80AF021F909490AF054
:100630002AF9014620460AF092F868460AF023F8A3
:1006400003A80AF020F8E1E7A12905001C650500D0
:10065000B12905001B65050000B5544E544D554C9D
:100660008BB04FF47A6036F0A3FE314601A80AF051
:1006700055F801A907A80AF072F8294604A8FFF75F
:10068000ADFE04A907A80AF0F2F80146204609F0D9
:10069000A7FE04A809F0F7FF07A809F0F4FF01A8D6
:1006A00009F0F1FF444901A80AF038F801A907A8A8
:1006B0000AF055F804A84149FFF790FE04A907A8DD
:1006C0000AF0D5F80146204609F08AFE04A809F090
:1006D000DAFF07A809F0D7FF01A809F0D4FF3849CD
:1006E00001A80AF01BF801A907A80AF038F8354854
:1006F000FFF75EFF0322014604A80AF05DF804A993
:1007000007A80AF0B4F80146204609F069FE04A8DB
:1007100009F0B9FF07A809F0B6FF01A809F0B3FF77
:10072000294901A809F0FAFF01A907A80AF017F85A
:100730002648FFF73DFF0322014604A80AF03CF8D3
:1007400004A907A80AF093F80146204609F048FEDC
:1007500004A809F098FF07A809F095FF01A809F07F
:1007600092FF1B4901A809F0D9FF01A907A809F0C8
:10077000F6FF04A81749FFF785FE04A907A80AF0A9
:1007800076F80146204609F02BFE04A809F07BFF0D
:1007900007A809F078FF01A809F075FF0AF074F9BD
:1007A0000A220146204609F09EFE5AE7BC260500B3
:1007B0000A0900206C260020CB2605002E09002007
:1007C000D726050084090020E52605003809002009
:1007D000F02605006409002007EE100ADFED117A0B
:1007E00067EE277A9FED107AF4EEC77AF1EE10FAF1
:1007F00008B512D49FED0D7AF4EEC77AF1EE10FA37
:100800000DDC17EE900A3FF035FD07EE900AFDEE85
:10081000E77A17EE903A18B208BD0548FCE747F6AC
:10082000FF70F9E70000C842000000C700FEFF4665
:100830000080FFFF0000000008B510A3D3E90023EB
:100840003FF056F90FA3D3E900233FF04DFD0246D8
:100850000B46002008493EF069FE05A3D3E90023BA
:100860003FF01CF83FF07EFB08BD00BFAFF30080F7
:10087000000000001AE950410000F03F00000000B5
:1008800000AA8F406C45D9CC955BC83F38B5094D5F
:10089000012128464FF47A7400F032FD204636F0EC
:1008A00087FD2846002100F02BFD2046BDE838409A
:1008B00036F07EBDA00F002007B504220191012370
:1008C0000DEB020101F07CF803B05DF804FB0000C1
:1008D00007B51A4E1A4D1B4CC82036F069FD30463C
:1008E00007F036F82846FFF763FE3EF07FFFFFF77C
:1008F000A3FFC4E900011448FFF75AFEFFF76CFF9D
:10090000012302220DF10601ADF806000F4801F0A7
:1009100057F82846FFF74CFEDFED0D7A07EE100A78
:1009200067EE277A0B48FCEEE77A17EE901AFFF78E
:10093000C3FF21680848FFF7BFFFCDE7301700204D
:10094000380900202009002084090020980900208F
:100950000000C8424C09002010090020044BC3606D
:1009600003460A6843F8042B002242605A6070472D
:10097000B02605002DE9F3415A4E5B4CDFF8D081DB
:100980005A4F00250421304609F060F9C6F800806E
:10099000F580B5603046564E2246394635F0DFFCCC
:1009A0000D21304609F052F9C6F80080F580B56097
:1009B0003046504E2246394635F0D1FC4E4F80210C
:1009C0003046FFF7D5FD30464C4E2246394635F0CD
:1009D000C6FC81213046FFF7CBFD3046484E22460B
:1009E000394635F0BCFC2221304609F02FF9454B41
:1009F00033602946444BB360142206F10C0041F0E9
:100A0000FBF922464149424F304635F0A8FC414EA1
:100A1000414B3046196801F003FA22463F493046FF
:100A200035F09DFC3E4E3F4B12221968304601F0D6
:100A30001DFA22463C49304635F091FC3B4E3C4B7A
:100A400012221968304601F02FFA22463946304604
:100A500035F085FC374E384B12221968304601F0CC
:100A600023FA3946354F2246304635F078FC344E6D
:100A700000952B464FF480621C213846FFF790FC0E
:100A80003846304F2246314635F069FC2B460095FA
:100A90004FF480621B213846FFF782FC38462A4F0C
:100AA0002246314635F05BFC2B4600954FF48062C0
:100AB0001A213846FFF774FC3846244F2246314647
:100AC00035F04DFC00952B464FF4806219213846D5
:100AD000FFF766FC22463146384602B0BDE8F041D9
:100AE00035F03DBC04090020E00000203D0301007A
:100AF000280900208409002015030100380900207E
:100B00005809002040260500D5FF7F38ED0201007E
:100B10006102010078090020EC000020B51D0100F1
:100B200098090020F0000020890201004C090020F3
:100B3000E800002010090020E40000204808002000
:100B4000C1750400D00600208C0700201406002088
:100B50002426050030B587B000F01AFB4C4800F0A1
:100B600069FC4FF4E1314B4809F0BCF9494809F000
:100B70008FF90028FAD0484902A809F0CFFD02A950
:100B8000444809F02DFC02A809F07DFD434B1C6888
:100B9000236820469B68984720B941493D4809F0A1
:100BA00029FCFEE7102203213E4806F087FE0122C1
:100BB0003D493E4809F08AF801223B493C4809F08A
:100BC00085F8012238493B4809F080F8012236496E
:100BD000394809F07BF801223349384809F076F8A2
:100BE00002212B4800F08CFB23683549DB6B204643
:100BF00098473449344801F031F93449324801F01A
:100C00002DF93349304801F029F923682E491B6D2D
:100C10002046984700250222012302A92948ADF861
:100C2000085000F0CDFE29462848FFF745FE29462A
:100C30002748FFF741FE236820465B6D9847254B08
:100C4000019301A902A8FFF789FE02A9224836F004
:100C500027FC02A8FFF79FFB204B019301A902A8E4
:100C6000FFF77CFE02A91E4836F01AFC02A8FFF727
:100C700092FB1C4B019301A902A8FFF76FFE02A98A
:100C8000194836F00DFC02A8FFF785FB07B030BD10
:100C9000A00F00206C260020DD2905006C2B05002C
:100CA000E72905003017002000007A4404090020DD
:100CB0002809002084090020580900203809002054
:100CC000FB29050098090020780900204C09002024
:100CD00010090020D108010048080020E5010100AA
:100CE000D0060020590601008C0700200020704724
:100CF0000368C9B21B68184749000023C161C0F8E6
:100D00002C327047036801211B6B184710B403682D
:100D10009C6B0123A4465DF8044B6047D0F82C324D
:100D2000B3F5807F1FBF5A1CC0F82C22C01880F872
:100D30002C1114BF012000207047D0F82801704703
:100D40007047C0F830127047C0F834127047D0F8BE
:100D50002831A3B1D0F828318BB1D0F82431D0F8A4
:100D6000242103440132D2B293F82030C0F8242168
:100D7000D0F82821013AC0F82821184670474FF0D2
:100D8000FF307047D0F828312BB1D0F82431184407
:100D900090F8200070474FF0FF30704710B5044BBB
:100DA0000360044600F50E7036F00AFC204610BDC4
:100DB000482A050038B503685B6A04469847A820AE
:100DC00035F0BAFC94F9192094F91810054633F05F
:100DD00045F8656138BD000070B5036888B05B6A8E
:100DE00004460E469847482035F0A6FC94F9192091
:100DF00094F91810054633F06BF828462561710008
:100E000033F082F80C4B07930C4B029300230393AF
:100E1000019401AB93E8070004AD85E8070029467B
:100E200004F50E7036F03CFB079B13B19B68284617
:100E3000984708B070BD00BF282A0500F70F0100D1
:100E400038B5D0F82C3214461A44B2F5807F88BFEA
:100E5000C3F58074054600F596702246184440F0AC
:100E6000BDFFD5F82C322344C5F82C32204638BDBE
:100E700038B5044640690D4608B132F00FFF2069CD
:100E800020B12946BDE8384033F03CB838BD38B50C
:100E90000446406910B10368DB68984723696BB169
:100EA00004F50E75284636F069FB284636F0B0FB8F
:100EB00020694821BDE8384035F070BC38BD1FB509
:100EC0000246D0F82C32D469406981F001010091CA
:100ED0003BB9012303AA214632F013FFC0B204B08C
:100EE00010BD02F59672214632F0EAFE002814BFCA
:100EF00002200020F3E710B4D0E901340168621049
:100F0000E40701EB020048BF8A585DF8044B48BF74
:100F1000D358184773B54FF47A730025C0E90153CD
:100F2000194B03600446C0E9045501764276294610
:100F30004FF48072203040F05FFF144BC4F8205112
:100F4000C4F838322946C4F82451C4E98B55C4F892
:100F50002851C4F83452C4F8485204F51E7036F0D3
:100F600015FA04F5237036F0B1F904F50E76084B46
:100F7000009330462B464FF40062182136F084FA75
:100F8000204602B070BD00BF482A0500886B0500EE
:100F9000342A0500D0F80831B3F5807F0DD0D0F8A1
:100FA0000031C154D0F800310133DBB2C0F8003158
:100FB000D0F808310133C0F808317047F0B5C3B03C
:100FC00083F001030093064615461346490002AA22
:100FD000406932F096FE50B902AC67192036BC4227
:100FE00006D014F8011B3046FFF7D4FFF7E70025C1
:100FF000284643B0F0BD2DE9F0410446BCB000F1F5
:1010000020070025206932F086FF0328FAD8DFE8A0
:1010100000F03B021414D4F8343203B19847D4F8EA
:101020002C2232B104F59671206932F078FFC4F8B1
:101030002C52206932F07BFFE4E7C4F82051F02203
:10104000C4F824516946C4F82851206932F065FF7C
:101050000026804646450BDAD4F82831B3F5807F68
:1010600006D01DF806103846FFF794FF0136F1E769
:10107000D4F82831002BC5DDD4F83032002BC1D094
:10108000D4F828019847BDE709F020FDBAE7000031
:1010900070B50D4C0D4E0E4D172216212046FFF750
:1010A00039FF20460B4C3246294635F058F91022BC
:1010B0000F212046FFF72EFF324629462046BDE885
:1010C000704035F04CB900BFA4090020E0000020BA
:1010D0009D0D0100980C002010B5084CE42320461B
:1010E00007226A2100F0B2F907226A21204600F0A7
:1010F000D7F9A0F1E4035842584110BDA40F0020D5
:1011000010B503226A21074800F0CAF9064B1B7884
:10111000984206D003226A210248BDE8104000F040
:1011200095B910BDA40F0020A60F002008B5FFF749
:10113000E7FF42F2107009F0B9FCF8E710B50C4C6B
:101140000C4B04222046DA7036F0C0F80A4A0B49EC
:10115000204635F004F90A4B01221A60094B02229D
:101160001A60094B03221A60084B07221A6010BD4F
:10117000A80F0020A00F0020E00000204973040009
:10118000940F0020900F00208C0F0020980F00205B
:1011900070B5012186B0192009F0F6FC01210A2062
:1011A00009F0F2FC01210A2009F056FD2348244EE3
:1011B000FFF700FE03226A21224800F071F9224B5A
:1011C00018703578BFF35B8F15F0010521D13046DB
:1011D00035F0D4F8E8B11D4C1D4B2360294604F1CD
:1011E0004000256136F0D2F804F1540036F06EF874
:1011F000184B00934FF4806228212B46204636F08E
:1012000043F9304635F0DCF8134A1449204635F0EE
:10121000A6F8134B0593134B029302A900230B4826
:10122000CDE9033336F03CF9059B13B19B6802A866
:1012300098470D4B0120187006B070BD980C002027
:101240009C0F0020A40F0020A60F0020CC0F002030
:10125000886B0500982A0500E0000020C175040095
:10126000B02605002D110100A50F00202DE9F04149
:101270000D4D0E4C8846284617461E4636F02EF871
:1012800041462046FFF738FD39462046FFF746FD28
:1012900031462046FFF742FD2046FFF733FD284642
:1012A000BDE8F04136F036B8A80F0020980C0020B9
:1012B00070B5164690F90320044613410D46DBB283
:1012C00010225321FFF7D2FF94F9033046FA03F3BB
:1012D0002046DBB221225321FFF7C8FF94F90330E7
:1012E00045FA03F32046DBB232225321FFF7BEFF5B
:1012F0002046C52340225321BDE87040FFF7B6BF0A
:1013000039B9017041708170037842788178FFF7B4
:10131000CFBF022904D100230370FF2242700CE0EA
:10132000032904D1FF2303700023437005E0012942
:1013300005D1002303704370FF238370E4E706297F
:1013400004D12023037043700023F6E7052903D15D
:10135000202303700022E1E7042903D10023037056
:101360002023E2E70729CFD1FF230370DDE7C52360
:101370004F225321FFF77ABF10B5012304461A46C6
:101380005321FFF773FF2046072302225321FFF763
:101390006DFF2046002303225321FFF767FF2046FD
:1013A000002304225321BDE81040FFF75FBF000077
:1013B00038B516480C46154635F090FF21461448BE
:1013C000FFF79AFC29461248114DFFF7A7FC0021B0
:1013D0000F48FFF774FD214601220D48FFF796FCE8
:1013E00009F052FB04462846FFF7A7FC20B909F094
:1013F0004BFB001B6328F6D90548FFF7A8FC044601
:10140000024835F087FFE0B238BD00BFA80F0020CA
:10141000980C002010B5012253210446FFF7C8FFA5
:1014200040F00103DBB2204601225321BDE8104009
:10143000FFF71CBF10B50446FFF799FF2046FFF7E2
:101440009BFF2046BDE81040FFF7E4BF2DE9F041C7
:10145000114D124C88461920012117461E4609F0ED
:10146000FBFB284635F03AFF41462046FFF744FC97
:1014700039462046FFF752FC31462046FFF74EFC26
:101480002046FFF73FFC284635F044FF0021192095
:10149000BDE8F04109F0E0BBA80F0020980C002047
:1014A00038B519200C460121154609F0D5FB17481F
:1014B00035F014FF21461648FFF71EFC2946144854
:1014C000134DFFF72BFC00211148FFF7F8FC2146D4
:1014D00001220F48FFF71AFC09F0D6FA0446284605
:1014E000FFF72BFC28B909F0CFFA001BB0F57A7F83
:1014F000F5D30748FFF72BFC0446044835F00AFFF4
:101500000021192009F0A8FBE0B238BDA80F002087
:10151000980C0020704710B55C21044635F03EF968
:10152000204610BD0A4A02601F210022C0E909219D
:10153000C0E90B228286C0E90E220264A0F8442092
:1015400080F84620C0E91222C0E91522704700BF8A
:10155000AC2A05008B6A8362CB6AC3620B6B0363A0
:1015600091F8343080F8343091F8353080F83530E7
:101570008B6B8363CB6BC3630B6C0364B1F8443038
:10158000A0F8443091F8463080F846308B6C836484
:10159000CB6CC364B1F85030A0F850304B6D43654C
:1015A0008B6D8365704708B5FFF7D4FF08BD70B534
:1015B000054686B068460E4603F0B6FBEC6C6846FE
:1015C000002CCCBF0234002403F0EDFB0230241ABF
:1015D000A86A241808D4AC62AE64684603F0E3FB42
:1015E000E864012006B070BD0020FBE710B5036C75
:1015F0001BB190F8464084B90233941C1B1B846ACB
:101600001B1958BFC0E90F124FF000045BBF80F8F0
:10161000464083622046012010BD0433EDE730B51B
:10162000046C1CB190F846508DB902341D1D641B2A
:10163000856A64195FBFC0E90F230123A0F8441035
:1016400080F8463056BF84620020184630BD04340E
:10165000ECE730B5846D002CCCBF043400241D1D94
:10166000641B856A64195DBFC0E91523A0F850109A
:101670008462002058BF012030BD70B50546806BE4
:101680000E4688B1047814B140F0ACFD841C30469D
:1016900040F0A8FD0230241AA86A24185DBFAC628D
:1016A000AE630120002070BD0446F0E790F83530AD
:1016B000826A002B0CBF6FF0020300239B185FBFF0
:1016C0008362012380F8353080F8341054BF184607
:1016D0000020704704307047406A704790F835002A
:1016E000704738B50446406AC0F11F03934215465F
:1016F00008DB0430204440F071FB626A2A446262D5
:10170000012038BD0020FCE770B50446406A0E4653
:101710001D4611460233C0F11F029A420FDB231807
:101720006A1C1A71821C0630626220445E712A466D
:1017300040F054FB636A2B446362012070BD0020BB
:10174000FCE770B586B00546684603F0EDFA6846DA
:1017500003F029FB022804466846CCBF0626022671
:1017600003F01FFB2346024631462846FFF7CCFF15
:1017700006B070BD13460A46FF21FFF7C5BF30B55E
:1017800089B0054610461C46ADF800101A460146C1
:101790000DF1020040F022FBA31C6A46FF212846FF
:1017A000FFF7B2FF09B030BD30B589B0054610462D
:1017B0001C46ADF800101A4601460DF1020040F03B
:1017C0000DFBA31C6A4616212846FFF79DFF09B0B2
:1017D00030BD07B501238DF807100DF1070219463A
:1017E000FFF792FF03B05DF804FB70B505461046A5
:1017F0000E46144640F0F6FC224603463146284683
:10180000BDE87040FFF780BF70B5054608460C463E
:1018100040F0E8FC1D2807D9224628461D23082150
:10182000BDE87040FFF770BF224628460921BDE899
:101830007040FFF7DABF38B5C16A0023054643623E
:1018400029B1026B1AB1BDE83840FFF74ABF95F8DD
:1018500035307BB395F834102846FFF7BAFF0446BD
:10186000A96C21B12846FFF76CFF0440E4B2E96B94
:1018700061B12B6C53B195F84620EAB10A4628466F
:10188000B5F84410FFF77BFF0440E4B26A6D42B143
:10189000AB6D33B1B5F850102846FFF785FF044013
:1018A000E4B2A96B21B12846FFF7AEFF0440E4B2D1
:1018B000204638BD0124D3E71A462846FFF75AFFD1
:1018C000E2E700000C4B10B504460360406838B1F5
:1018D00000F02CFB20B9606810B103685B68984782
:1018E000A06838B101F0A1F820B9A06810B1036870
:1018F0005B689847204610BDBC2A050010B5044619
:10190000FFF7E0FF20460C2134F048FF204610BDD1
:10191000064B10B5C0E9003100230446836011B1C5
:10192000084600F0FEFA204610BD00BFBC2A0500A4
:10193000064B10B5036000230446C0E9013111B124
:10194000084601F06DF8204610BD00BFBC2A050016
:101950002DE9F3410446542098460E46174634F0CC
:10196000EBFE9DF820300093054643463A4631464B
:1019700000F0BAFB29462046FFF7CAFF204602B016
:10198000BDE8F08138B5084B0360044648686060E4
:101990000D4608B100F0C5FAA868A06008B101F0D2
:1019A0003FF8204638BD00BFBC2A0500034640680A
:1019B00008B100F0C3BA986808B101F05BB870478D
:1019C00010B4446824B120465DF8044B00F0C2BA5C
:1019D000806818B15DF8044B01F052B85DF8044B13
:1019E0007047FFF7EDBF406808B100F020BB7047BB
:1019F0004068704770B5054640680C46164610B101
:101A0000C9B200F019FBA86828B13246E1B2BDE8BE
:101A1000704001F0C1B870BD08B5836823B1FFF70D
:101A2000C5FFC0F3400008BD1846FCE7806808B158
:101A300001F082B87047F8B5054640680E46174673
:101A400018B300F085FAB842A8BF38460446686863
:101A500000F07CFA22460146304640F0BFF9A86803
:101A600088B101F061F890B9A86801F007F88742E1
:101A70003C46A8BF0446A86800F0FEFF2246014687
:101A8000304640F0ABF92046F8BD0446E7E728466B
:101A9000FFF7C2FF0028E7D02846FFF7C7FF00285E
:101AA000E2D10446EFE7FFF7C6BF7047024B186864
:101AB00003681B69184700BF5C2E0500024B1868BD
:101AC00003685B69184700BF5C2E050010B4054B26
:101AD00001791B681A685469421D184623465DF84F
:101AE000044B1847B02C050010B50B4B0446186882
:101AF00021790368621D9B6A98474FF6FF739842ED
:101B0000014606D0054B18680268BDE81040926A8D
:101B1000104794F94B0010BDB02C05005C2E050059
:101B200010B54C21044634F039FE204610BD0000AB
:101B300010B58AB04B7903938B790293CB790193DB
:101B40000B7A009304464B7A8A7A054905A835F04A
:101B50003DFB05A9204608F0E1FD20460AB010BD76
:101B6000C42A050007B50023062269460530009304
:101B7000ADF8043040F024F9003018BF012003B064
:101B80005DF804FB08B502790B799A4208D1062268
:101B90000531053040F014F9B0FA80F0400908BD75
:101BA0000020FCE710B50A4B0446186803681B695F
:101BB0009847236820461B6A984740B1054B217916
:101BC00018680368621D5B6BBDE81040184710BDC4
:101BD0005C2E0500B02C050008B502790B799A42FD
:101BE00008D106220531053040F0EAF8003018BF70
:101BF000012008BD0120FCE7064A02607F21002287
:101C0000C272027380F84B10C0F80520A0F80920BA
:101C1000704700BFEC2A050010B501710021C172A8
:101C20000173064C04607F2180F84B101168C0F8E6
:101C300005109288A0F8092010BD00BFEC2A05000D
:101C4000F8B50F461249064608F068FD397B0024B6
:101C5000A1421ADD3B19A21C5D7B9B7B083B012B3B
:101C600005F1FF350FD82946304608F02BFD0F341B
:101C70003C440027BD4208DD14F8011B304608F043
:101C8000EBFD0137F6E7AC18E2E73046F8BD00BFE0
:101C90001C6505002DE9F04F85B088462249019268
:101CA000834608F03BFD0024A14698F80C30A3427F
:101CB00035D908EB0403671CFFB25E7B08EB070312
:101CC0005B7B9A1E012A25D9063B012B24D81025BF
:101CD00005FB05F30234009358FA84F44FF0000A30
:101CE000731EEAB2534517DD019989450CD111469F
:101CF00004F10D000393029203F058F80146584690
:101D000008F037FDDDE90223009909F10109AA4431
:101D10000C44E7E70225DBE73E44F4B2C5E758464A
:101D200005B0BDE8F08F00BF1C65050010B50022AE
:101D30000446FFF7AFFF204610BD08B513460279F1
:101D40008A4208D106221946053040F039F8B0FA27
:101D500080F0400908BD0020FCE710B504460120D2
:101D600000FA01F1E1722273194604F10D0040F00E
:101D700035F89DF9083084F84B3010BD70B50D462C
:101D80001146C27A42F010020446C272007B0D3046
:101D90002A4620441E4640F021F8237B84F84B60FD
:101DA0001D44257370BDC37A13F0180F14BF0120B2
:101DB000002070470C4B10B504460360406838B1F2
:101DC00000F0B4F820B9606810B103685B68984708
:101DD000A06838B100F029FE20B9A06810B10368EE
:101DE0005B689847204610BD202B050010B50446BF
:101DF000FFF7E0FF20460C2134F0D0FC204610BD58
:101E0000064B10B5C0E9003100230446836011B1D0
:101E1000084600F086F8204610BD00BF202B0500C4
:101E200070B5044630200E4634F086FC3146054637
:101E300000F030FD29462046FFF7E2FF204670BD46
:101E40000346406808B100F063B8986808B100F034
:101E5000E5BD0148704700BF1C650500406808B13A
:101E600000F056BD704740687047000030B585B03F
:101E7000012504460095022392B2FFF769FD084B45
:101E800023600023ADF80E3002222B460DF10E0127
:101E90002046FFF795FD034B2360204605B030BD7B
:101EA000782605008826050030B585B00125044652
:101EB0000095042392B2FFF74BFD074B23600023EC
:101EC000039304222B4603A92046FFF779FD034B19
:101ED0002360204605B030BD98260500A8260500E1
:101EE00070470020704710B52021044634F056FC9E
:101EF000204610BD10B5054B044640F8043B02F0E7
:101F000013FF0023E361204610BD00BF302B050006
:101F1000043002F044BF043002F043BF043002F04A
:101F200042BFC3690133C36118467047C369013BAF
:101F3000C3611846704742F60300704790F82000CE
:101F4000704790F821007047406A7047806A704778
:101F5000808D7047F8B51546426AAA42A8BF2A4646
:101F60000446828592B2806A0E463FF037FF94F8AD
:101F70002E300BB1636AA38594F8203098060DD5F6
:101F8000A28E91070AD51F4B218E186803685D6DDC
:101F90000131A38DA26A89B2A847F8BDDA0609D536
:101FA000A38EDB0706D5174B218E18680368013115
:101FB0001D6DEEE794F832300BB90120EDE7124BBE
:101FC0001868036821465B6A9847104B1C682368B1
:101FD00001461F6B32462B462046B847094B18680E
:101FE00003681B6B98470028E7D1094B1868036802
:101FF0009B6898470028E0D0236820465B6D98478F
:10200000DBE700BFB02C0500FC2D05006C2B0500A4
:10201000B02D050038B5054608460C4640F0E2F8FC
:10202000214602462846BDE83840FFF793BF808E20
:10203000003018BF0120704703299CBF00EB8100CE
:102040004264704701867047008E7047008E0130F1
:1020500080B27047806B7047836B994208D2C36B24
:102060000022914202D05B680132FAE7186870479B
:102070000020704730B5114B03600B7903710B469C
:1020800001F1490453F8052FC0F805209B88A0F8FA
:102090000930CB7AC3720B7B037300F10D0201F19F
:1020A0000D0353F8045B42F8045BA342F9D11B888B
:1020B000138091F94B3080F84B3030BDEC2A05008D
:1020C00038B5044608200D4634F036FB0023C0E93D
:1020D000005363682BB960602368A06001332360FC
:1020E00038BDA3685860F7E770B504461D4616462C
:1020F000FFF700FFB5F5007F194B23602B46A8BF03
:102100004FF40073002163629DF810302684A1858E
:1021100084F82E302163A186C4E90E1121641022B7
:1021200004F144003FF068FE16F0300F11D02C206F
:1021300034F002FB0B490646022304F1340200F09E
:10214000D7F83046FFF7EDFE314604F13800FFF7CF
:10215000B7FF28463FF024FEA062204670BD00BFB6
:102160004C2B05003C2B050070B50446406800254B
:102170002368AB4206D94668082134F00FFB0135CD
:102180003046F5E70023C4E90033A36070BD0000CA
:10219000154B70B5044603600025A36B9D4212D217
:1021A000E36B0022954202D05B680132FAE71E68B9
:1021B0003046FFF7BBFE20B91EB1336830465B687E
:1021C00098470135E9E704F138052846FFF7CCFFC9
:1021D000A06A08B13FF0ECFD2846FFF7C5FF204696
:1021E000FFF77EFE204670BD4C2B050010B504465F
:1021F000FFF7CEFF2046542134F0D0FA204610BD20
:10220000F0B5C56C97B0044617461E467DB103A8CD
:10221000FFF730FF21466846FFF77AFB694603A8BF
:10222000A8476846FFF74EFB03A8FFF73EFCA16AEC
:102230001C9A394430463FF0D1FD17B0F0BD70B55F
:1022400004460E461146012280F8332096B01A4605
:10225000FFF780FE256D85B1314603A8FFF70AFF21
:1022600021466846FFF754FB694603A8A84768461D
:10227000FFF728FB03A8FFF718FC16B070BD30B5B8
:10228000838E02F00302934297B0044617D08286F1
:10229000002A0CBF44224022024455687DB103A8A5
:1022A000FFF7E8FE21466846FFF732FB694603A8C0
:1022B000A8476846FFF706FB03A8FFF7F6FB17B031
:1022C00030BD4FF42450704710B5034B03600446F3
:1022D000FFF706FE204610BD602B050010B5044632
:1022E000FFF7F2FF20462C2134F058FA204610BDAB
:1022F00070B504461D461646FFF7FCFD064B2360ED
:10230000B5F5007FA8BF4FF4007500232662656213
:102310002385204670BD00BF602B0500406A7047D2
:10232000006A704701857047064B1868036810B54E
:10233000DB689847044B18680368BDE81040DB6809
:10234000184700BFFC2D05005C2E0500024B1868E5
:1023500003681B69184700BF5C2E0500024B186814
:1023600003685B69184700BF5C2E050010B5064B7B
:10237000186803681B699847044B18680368BDE830
:1023800010401B6B184700BF5C2E0500B02C0500E9
:1023900010B5064B186803681B699847044B18680A
:1023A0000368BDE81040DB6B184700BF5C2E0500DA
:1023B000B02C0500024B186803689B6C184700BFDF
:1023C000B02C05000C30704768307047024B18681D
:1023D00003681B69184700BFFC2D0500024B1868F5
:1023E00003685B69184700BFFC2D0500024B1868A5
:1023F00003689B69184700BFFC2D0500024B186855
:1024000003681B69184700BFB02D0500024B186810
:1024100003685B69184700BFB02D0500024B1868C0
:1024200003685B6A184700BFB02D050010B5074B65
:102430000446186803681B699847054B19680B68C0
:102440002046DB6C9847204610BD00BF5C2E05007F
:10245000B02C050010B5074B0446186803681B69CB
:102460009847054B19680B6820469B6A9847204699
:1024700010BD00BF5C2E0500B02D0500024B186892
:102480000368DB6A184700BFB02D0500024B1868CF
:1024900003689B69184700BFA4300500024B186809
:1024A0000368DB69184700BFA4300500024B1868B9
:1024B00003681B6B184700BFB02D0500024B18685E
:1024C0000368DB68184700BFB02C0500024B186892
:1024D00003681B6A184700BFA4300500024B186848
:1024E00003685B6A184700BFA4300500024B1B68F5
:1024F000C3F8F010704700BF5C2E0500024B1B684C
:10250000C3F8F810704700BF5C2E0500024B1B6833
:10251000C3F8F410704700BF5C2E0500024B1B6827
:10252000C3F8EC10704700BF5C2E0500024B1B681F
:10253000C3F8FC10704700BF5C2E0500024B1B68FF
:10254000C3F80011704700BF5C2E0500024B1868ED
:102550000368D3F89C3018475C2E0500024B1868BE
:102560000368D3F8A03018475C2E0500F0B52A4B5D
:102570001D682B6887B004469B6828469847064626
:1025800020B923682046DB6898470DE0642008F0F6
:102590008DFA2B6828469B699847064638B1236810
:1025A0002046DB6898470026304607B0F0BD05AAF4
:1025B0002B6801920DF112020092DF6904AA0DF15D
:1025C0000E030DF10D012846B8470028D9D12B681C
:1025D0004FF0FF32D96A28466FF040438847002801
:1025E000CFD12B6840F2FF32196B28460023884771
:1025F00006460028D3D12B680DF10F025B6B0DF15D
:102600001601284698470028BBD1044B1868036878
:102610009B6898470126C7E75C2E0500FC2D050046
:1026200010B58CB000230593ADF81830104B04465C
:102630001868036805A91B6A98479DF8143003932E
:102640009DF8153002939DF8163001939DF81730D0
:1026500000939DF819209DF81830064907A834F01A
:10266000B5FD07A9204608F059F820460CB010BD6A
:102670005C2E0500C42A05000C30FEF798BF70B52B
:102680000368044608469D6AFFF7DAFB2B460146BD
:102690002046BDE8704018470C30FEF7DABF0C301A
:1026A000FEF7A4BF0C30FEF7BABF6830FEF7E5BFF7
:1026B0006830FEF778BF10B500F10C042046FEF735
:1026C00072FF2046FFF70AF828B920460621BDE828
:1026D0001040FEF7EBBF10BD2DE9F74300F10C05EC
:1026E000044668342846FFF7A6F82046FFF7A3F80B
:1026F0000E4B1E6833682846DF68FEF7EBFF804606
:102700002846FEF7E9FF05462046FEF7E3FF81462F
:102710002046FEF7E1FFC0B200904B46EAB24146C8
:102720003046B84703B0BDE8F08300BFB02D0500C8
:102730007FB5094B1C682368164601A89D6908F0FF
:102740000EF8324601A92046A847044601A807F022
:102750009AFF204604B070BDB02D05007FB5094B2F
:102760001C682368164601A8DD6907F0F8FF3246A9
:1027700001A92046A847044601A807F084FF204687
:1027800004B070BDB02D05007FB5094B1C682368EF
:10279000164601A81D6A07F0E2FF324601A920464D
:1027A000A847044601A807F06EFF204604B070BD9C
:1027B000B02D050002290BBF044B054B18681868A3
:1027C0000BBF036803685B6B9B6D1847B02D05005A
:1027D000B02C050038B50446084B44F80C3B0546C0
:1027E0002046FEF79FFE05F16800FEF79BFE0621DE
:1027F0002046FEF75BFF284638BD00BF782B05005A
:1028000010B5054C2046FFF7E5FF2046034A044972
:10281000BDE8104033F0A3BD88100020E000002088
:102820002528010010B5064B044640F8683BFEF72A
:1028300071FE04F10C00FEF76DFE204610BD00BFD6
:10284000782B050010B50446FFF7ECFF2046C421A5
:1028500033F0A4FF204610BD10B50B4B19680B6870
:1028600094B001A8DB6C984701A8FFF77BF948B149
:1028700001A8FFF739F9044601A8FFF716F9204629
:1028800014B010BD7F24F7E7B02C05004FF42050A2
:102890007047000010B50446FFF72CFB044B236083
:1028A0000023C4E90833C4E90A33204610BD00BF41
:1028B000442C0500018442847047008C7047408C92
:1028C0007047406A7047436A994208D2836A00227F
:1028D000914202D05B680132FAE718687047002025
:1028E000704738B5044608460D46FFF71AFB082026
:1028F00033F022FF0023C0E90053A36A2BB9A06282
:10290000636AE0620133636238BDE36A5860F7E7E7
:1029100010B504460846FFF76BF8014620B1204683
:10292000BDE81040FFF7DDBF10BD70B5044640683C
:1029300000252368AB4206D94668082133F02EFFF4
:1029400001353046F5E70023C4E90033A36070BDCC
:1029500010B504462430FFF7E8FF0023236210BDC2
:10296000134B70B5044603600025636A9D4212D282
:10297000A36A0022954202D05B680132FAE71E6822
:102980003046FFF7D3FA20B91EB1336830465B6892
:1029900098470135E9E72046FFF7DAFF04F1240004
:1029A000FFF7C3FF2046FFF79BFA204670BD00BF2C
:1029B000442C050010B50446FFF7D2FF2046302115
:1029C00033F0ECFE204610BD10B5044B044640F831
:1029D000043B07F058FE204610BD00BF582C0500F0
:1029E00010B50446FFF7F0FF2046142133F0D6FE61
:1029F000204610BD38B504462546074B45F8043B34
:102A00000846114602F0D2F90146284607F086FE34
:102A100000232361204638BD582C050040687047CC
:102A2000036901330361184670470369013B036181
:102A30001846704738B504461D46FFF7DBFF0C4BC0
:102A40002360BDF81030E382BDF814302383BDF855
:102A5000183063834FF480720023A582C4E90733E2
:102A6000A284C4E90A33C4E90C33204638BD00BF50
:102A7000682C0500007E7047C0697047006A704787
:102A80002DE9F0439846274B1E68336885B004460D
:102A90000F469B6B818A30469146984718B90020B3
:102AA00005B0BDE8F0833368A18A5B6C3046984777
:102AB000033885B24D45A8BF4D462946E0693FF031
:102AC000A5FAE0610028EAD0237E1A071CD5B8F1E8
:102AD000000F19D003AA33680192EAB20092D3F82A
:102AE0006080628BA18A3B463046C0470028D7D021
:102AF0009DF80C30012BD2D02A463946E0693FF0D0
:102B00006DF925620120CBE75B07C8D53368A18A40
:102B1000EAB20092D3F86480628B3B463046C047ED
:102B2000EAE700BFB02C05000346012290F825001B
:102B300083F8252070470000F0B5154B818A1E6888
:102B40003368C1B004469B6B30469847054648B190
:102B50003368628BDF6DA18A6B463046B84720B977
:102B600000252562284641B0F0BD9DF80030012BBC
:102B7000F6D0411E2162E0693FF048FAE06100288A
:102B8000EED0226A0DF101013FF028F9EAE700BF1B
:102B9000B02C0500408B7047032908BF4263704783
:102BA00038B5044608460D46FFF73AFF082033F0D3
:102BB000C3FD0023C0E90053E36A2BB9E062A36AB6
:102BC00020630133A36238BD236B5860F7E770B50B
:102BD0000446406800252368AB4206D946680821B0
:102BE00033F0DCFD01353046F5E70023C4E900335E
:102BF000A36070BD03688B4208D9436800228A42F3
:102C000002D05B680132FAE718687047002070470D
:102C1000F8B50546134B45F8283B04460026A36A41
:102C20009E420ED231462846FFF7E4FF0746FFF7E3
:102C3000FCFE20B91FB13B6838465B6898470136F7
:102C4000EDE72846FFF7C3FFE06918B13FF0B0F8A1
:102C50000023E3612846FFF7BAFF2046FFF7B4FEE2
:102C60002046F8BD682C050010B50446FFF7D0FFDC
:102C70002046382133F092FD204610BD70B5044641
:102C8000036296B00D46C069194616463FF0BEF97C
:102C9000E06110B9206216B070BD01233146A384F3
:102CA000226A3FF09BF8666B002EF4D0194B039319
:102CB0002B798DF810302B4605F1490153F8052F7B
:102CC000CDF811209B88ADF81530EB7A8DF81730D0
:102CD0002B7B8DF818300DF1190205F10D0353F817
:102CE000040B42F8040B8B42F9D11B88138095F832
:102CF0004B308DF8573021466846FEF719FE69467D
:102D000003A8B0476846FEF7DDFD03A8FEF7CDFE39
:102D1000C1E700BFEC2A0500074B10B5044603606D
:102D2000806918B13FF044F80023A3612046FFF703
:102D30004BFE204610BD00BF782C050010B50446A0
:102D4000FFF7EAFF2046202133F028FD204610BD82
:102D500038B504461D46FFF74DFE054B2360BDF810
:102D60001030E3820023A582C4E90633204638BD33
:102D7000782C0500034A02600022C0E90122C260EB
:102D8000704700BF882C050038B5044608460D463C
:102D9000FFF746FE082033F0CFFC0023C0E90053C4
:102DA000A3682BB9A0606368E0600133636038BD3D
:102DB000E3685860F7E7406870474368994208D273
:102DC00083680022914202D05B680132FAE71868FA
:102DD00070470020704770B504464068002523689E
:102DE000AB4206D94668082133F0D8FC013530469D
:102DF000F5E70023C4E90033A36070BD70B5064653
:102E0000002473689C4212D2B3680022944202D01C
:102E10005B680132FAE71D682846FFF706FE20B915
:102E20001DB12B6828465B6898470134E9E7301DDF
:102E3000FFF7D1FF70BD000038B50446054B44F8DC
:102E4000043B0546FFF7DAFF2046FFF7C4FF28469C
:102E500038BD00BF882C050010B50446FFF7ECFF15
:102E60002046102133F09AFC204610BD38B50446A8
:102E70001D46FFF7BFFD084B2360BDF81030E3820D
:102E8000A582064904F1180007F048FC0023C4E9B4
:102E90000933E362204638BD982C05001C65050007
:102EA000808A7047C08A7047406A7047436A994277
:102EB00008D2836A0022914202D05B680132FAE7AD
:102EC000186870470020704738B5044608460D461C
:102ED000FFF7A6FD082033F02FFC0023C0E90053C4
:102EE000A36A2BB9A062636AE0620133636238BDF2
:102EF000E36A5860F7E770B5044640680025236828
:102F0000AB4206D94668082133F048FC013530460B
:102F1000F5E70023C4E90033A36070BD154B70B51D
:102F2000044603600025636A9D4212D2A36A002210
:102F3000954202D05B680132FAE71E683046FFF71F
:102F400074FD20B91EB1336830465B68984701357F
:102F5000E9E704F124052846FFF7CDFF2846FFF7EF
:102F6000CAFF04F1180007F08EFB2046FFF72CFD86
:102F7000204670BD982C050010B50446FFF7CEFF23
:102F80002046302133F00AFC204610BDA0F8A810DE
:102F90007047C0F8AC1070472DE9FF41013A13F8B3
:102FA000014BD6B20268CDE90233526C05460F469A
:102FB00090470C2C02462968029B79D02FD8052C0B
:102FC00069D01AD8022C60D00BD8012C53D006231C
:102FD0000093D1F8DC600023224639462846B047EA
:102FE0006EE0032C54D0042CF1D10093D1F894401E
:102FF000334639462846A04762E0092C52D007D80C
:10300000062C4BD0082CE2D10093D1F8A440EFE776
:103010000A2C4DD00B2CDAD1D1F8B4402DE0162C6F
:1030200051D00FD8112C40D005D8102CCFD10093FF
:10303000D1F8B840DCE7122C18D0132CC7D1D1F846
:10304000C8401AE01D2C04D00CD8182C3FD01B2CE3
:10305000BDD10093D1F8D480334622463946284664
:10306000C0472DE01E2C36D0522CB0D1CDE90063E4
:10307000D1F8C46020E0D1F8844032463946284671
:10308000A44604B0BDE8F0416047D1F88840F4E7B9
:10309000D1F89040F1E7D1F89C40EEE70093D1F8E9
:1030A000A040A5E7D1F8AC40E7E7D1F8C040E4E79D
:1030B000CDE90063D1F8B060234639462846B047D1
:1030C00004B0BDE8F0810093D1F8CC4090E70093C4
:1030D000D1F8D0408CE7D1F8D840CEE7B0F8B000B6
:1030E0004FF6FF73C01A18BF0120704708B5036878
:1030F0009B6A98474FF6FF73C01A18BF012008BD9E
:1031000038B5064B0546186803681B690C46984796
:10311000B5F8B000031B5842584138BD5C2E05007D
:1031200090F8C800C0097047B0F8B0308B4206BFB5
:1031300090F8C800C00900207047B0F8B0308B424A
:103140000CBFB0F8C000172070471FB5ADF80D20B8
:103150000268009302248DF80C400323D2F8F0405B
:1031600003AAA04704B010BD1FB5ADF80920ADF803
:103170000B30069A0368009204248DF8084002AAD6
:10318000D3F8F0400523A04704B010BD1FB5ADF83B
:103190000B30BDF81830ADF80920ADF80D30079AA6
:1031A0000368009210248DF8084002AAD3F8F0407A
:1031B0000723A04704B010BD1FB5ADF80B30BDF814
:1031C0001830ADF80920ADF80D30079A0368009269
:1031D00008248DF8084002AAD3F8F0400723A0473E
:1031E00004B010BD012380F8CC3070471FB5ADF896
:1031F0000A309DF818308DF80C30084B8DF80920F6
:1032000001208DF80800186802AA03680092D3F81C
:10321000944004220523A04704B010BD5C2E050095
:1032200001299CBF00EB8100C0F8E42070471FB566
:10323000ADF80D20026800930A248DF80C4003239A
:10324000D2F8F04003AAA04704B010BDB0F8B030E7
:103250008B4206BF80F8C820012000207047000084
:1032600038B5B0F8B0104FF6FF75A94204461ED02D
:10327000104B18680368D3F898309847B8B9C4F869
:10328000B400A4F8B800C4F8BA00A4F8BE00D4F89A
:10329000C400C4F8B0501723A4F8C03010B10368BC
:1032A0005B6898470023C4F8C430012038BD002073
:1032B000FCE700BF5C2E050010B5054B036004461B
:1032C000D0F8D00008B13EF073FD204610BD00BF1D
:1032D000BC2C050010B50446FFF7EEFF2046EC219C
:1032E00033F05CFA204610BD2DE9F0431D4B1D68FC
:1032F0008BB006230F460421002490462A680097CD
:10330000CDE90713C821CDE905410C21CDE90331F1
:10331000CDE901840646D2F854902346302260213C
:103320002846C847D8B907F0AFFB044607F0ACFB06
:10333000D6F8AC30001B98422B680DD21B6928468A
:103340009847336842465B6B3946304698470028B9
:10335000ECD00BB0BDE8F083DB6D28469847002029
:10336000F7E700BF5C2E0500F8B503689B6A0446CA
:1033700098474FF6FF73984206461ED0104B1D68C3
:103380002B680146D3F898302846984707F07CFB15
:10339000074607F079FBD4F8AC30C01B98420CD23A
:1033A0002B6828461B699847236831469B6B20464B
:1033B00098470028EDD10120F8BD0020FCE700BFB0
:1033C0005C2E05002DE9F3410546089CA5F8D810B0
:1033D0001078C5F8DC40013085F8DA00002085F867
:1033E000E0001948066830680092D0F89480DBB29B
:1033F000042230460F46C04724B307F045FB04467D
:1034000007F042FBD5F8AC30001B984214D2336869
:1034100030461B6998472B6839469B6B284698476E
:1034200050B195F8E0000028EAD04FF6FF73A5F8F8
:10343000D83002B0BDE8F0814FF6FF73A5F8D83060
:103440000020F6E72046F4E75C2E05002DE9F04762
:10345000994603689B6A044698474FF6FF73984263
:10346000064604D14FF000084046BDE8F0872368C7
:103470000146D3F8E0302046984780460028F1D036
:10348000B4F8B030B342EDD1D4F8C4303BB9102019
:1034900033F052F90546FFF76DFCC4F8C450D4F878
:1034A000C450002DDED02846B9F1000F1DD1FFF722
:1034B000A5FC23682A46D3F8E47031464B462046E3
:1034C000B8470028CED023682A46D3F8E8303146E2
:1034D000204698470028C5D023682A463146204612
:1034E000D3F8EC30BDE8F0471847FFF764FC00273D
:1034F00082465745DDDA39462846FFF75EFCFFF77E
:103500008DFA49463EF022FE0028ADD00137F0E7A3
:10351000F0B5C5B004469DF82851ADF80D200F4612
:1035200012218DF80C102A4619460DF10F003EF0BD
:1035300055FC23684B9A0092D3F8F06003AAEB1C69
:1035400039462046B04745B0F0BDF0B5C5B0044699
:103550009DF82851ADF80D200F4652218DF80C1022
:103560002A4619460DF10F003EF038FC2368002270
:103570000092D3F8F06003AAEB1C39462046B0470E
:1035800045B0F0BDB0F8B0308B4201BF1388A0F851
:10359000C930937880F8CB300CBF012000207047F1
:1035A000B0F8B0308B4201BF50F8B43F136083884D
:1035B00093800CBF01200020704710B5134690F88F
:1035C000B3208A42044608D106221946B4303EF0A0
:1035D000F7FB10B9B4F8B00010BD4FF6FF70FBE771
:1035E00010B5134690F8B3208A42044608D106224B
:1035F0001946B4303EF0E4FB10B9D4F8C40010BD55
:103600000020FCE710B5B1F8B0204FF6FF739A42E6
:1036100004460BD091F8B230012B07D101F1B4026E
:1036200091F8B310FEF7F8FA204610BD2046FEF7D9
:10363000E3FAF9E798B5B0F8A820D31DEC46DB080B
:10364000ACEBC30300AF9D460368D3F88C406B46D8
:10365000A047003018BF0120BD4698BD2DE9F041BC
:1036600082B0B0F8B0500C4611464FF6FF7295424A
:1036700002AF6E4603D10020BD46BDE8F081B0F830
:10368000C020D01DC008A6EBC00085469BB2ADF897
:103690000940D41EA4B29C4228BF1C461B208DF8B2
:1036A000080022460DF10B003EF098FB084B18680D
:1036B0000DF108080268CDF80080E31CDBB2D2F8F7
:1036C000944029460422A0470120B546D4E700BF14
:1036D0005C2E05002DE9F04782B0B0F8B0600C46D2
:1036E00011464FF6FF72964202AF0546E84603D1F7
:1036F0000020BD46BDE8F087B0F8C020D01DC0084E
:10370000A8EBC00085469BB2ADF80940D41EA4B218
:103710009C4228BF1C461D2022468DF808000DF152
:103720000B003EF05BFB002385F8CC30134BD3F845
:1037300000A00DF10809DAF80020CDF80090E31C94
:10374000DBB2D2F89440314604225046A04705F13E
:10375000B40495F8CC306BB9DAF8003050461B69E8
:1037600098472B6895F8B3105B6B2246284698471C
:103770000028EED10120C546BBE700BF5C2E050046
:103780002DE9F04F89B002AF042BFA603A6CC7F80C
:1037900008D0C7E9041014880AD0036804220092F4
:1037A000D3F8DC502346A8471C37BD46BDE8F08F50
:1037B000FB6807336A46DB08A2EBC3039D460DF1A5
:1037C000080805238DF80830002388F80130484B9D
:1037D000013CD3F800A0A4B20225DAF8003050462C
:1037E000DB699847844258D23B6C5B88A34254D92A
:1037F000DAF8003021461B6A5046984703689B68F8
:103800008346984742F6030301349842A4B255D147
:103810005846FEF71BFC231A59425941DBF8003089
:1038200079609B68584698477968024611B9B0F5A7
:10383000245F45D15846C7E90012FEF76FFBD7E970
:103840000012022806460CBF0123022398F801004B
:1038500008B988F8013098F8010098421DD105F1A7
:1038600002091FFA89F928F8054008EB090311B984
:10387000B2F5245F27D158467B60FEF74CFB7B688E
:103880000146324618463EF0A9FA09EB0605ADB2EC
:103890000236FB682E44B3429FDA022D1CD17A69AE
:1038A0003B6C12681B880A210091D2F8DC40D7E9F2
:1038B00004100422A047D7F808D075E70021ADE72F
:1038C00002260123C2E7DBF8003058469B68984780
:1038D000043528F80900DAE7064B18680368CDF8C4
:1038E0000080D3F894403969EBB20422A047E2E7A4
:1038F000FC2D05005C2E05002DE9F04F89B002AFCC
:10390000052B3E6CC7F808D08346C7E903213488ED
:103910000BD8036804220092D3F8DC500622234619
:10392000A8471C37BD46BDE8F08FFA6807326946E4
:10393000D208A1EBC202954607228DF80820B28872
:10394000B2F5205F0DF1080A0DD0DBF800203388B6
:103950000A210091D2F8DC40396906225846A04776
:10396000D7F808D0DDE7063B9BB27B61274B013CD3
:10397000D3F80090B31DA4B201257B60D9F80030C4
:103980004846DB699847844232D27388A3422FD9D4
:10399000D9F8003021461B6A4846984703689B685F
:1039A00080469847B38883421BD14046FEF7B6FA5B
:1039B0007B69984215D14046FEF7ADFA7A6979687D
:1039C0003EF0FEF968B94046FEF777FF2AF8050099
:1039D0004046FEF774FFAB1C9BB204352AF8030087
:1039E000ADB2FA68EB1C9A4202DD0134A4B2C5E71D
:1039F000012DAAD0064B18680368CDF800A0D3F8B3
:103A000094403969EBB20422A047A9E7FC2D0500D8
:103A10005C2E05002DE9F04F89B002AF062BBA608D
:103A20003A6CC7F80CD081468B46158804D1938830
:103A3000A3F52053012B0FD9D9F8003010220092A2
:103A4000D3F8DC402B4659464846A047D7F80CD05F
:103A50001C37BD46BDE8F08FBB6807336A46DB08FC
:103A6000A2EBC3039D4602AE11238DF8083000235C
:103A70007370364B013DD3F800A0ADB20224DAF8E2
:103A800000305046DB699847854247D23B6C5B88E3
:103A9000AB4243D9DAF8003029461B6A50469847B2
:103AA0003B6C02689B887B619268804690477B698B
:103AB000834230D14046FEF731FA022803460CBF5C
:103AC000062314233B61737878610BB93B697370EB
:103AD00073783A69934221D14046FEF7EEFE3053A7
:103AE0004046FEF7ECFEA31C9BB20434A4B2F05295
:103AF000331940467B60FEF70EFA7B687A6901460F
:103B000018463EF06BF97B69BA681C443B69A4B265
:103B100023449A4202DB0135ADB2B0E7022C09D151
:103B20003B6CD9F800201B880A210091D2F8DC40B8
:103B3000102288E7064B186803680096D3F8945063
:103B40000422E3B25946A84780E700BFFC2D0500D8
:103B50005C2E05002DE9F04F89B002AF91463A6C1A
:103B6000C7F808D0062BC7E9031015880BD00368E7
:103B700004220092D3F8DC4008222B46A0471C37D1
:103B8000BD46BDE8F08F09F107036A46DB08A2EBEA
:103B9000C3039D460DF1080809238DF80830002362
:103BA00088F801306D4B1B687B613B6C013D043331
:103BB000ADB202247B607B6978691B68DB6998473A
:103BC000854280F083803B6C5B88AB427ED97B6909
:103BD00078691B6829461B6A984703689B680646F4
:103BE00098473B6C9B888342336805F1010A1FFAB2
:103BF0008AFA9B6830467AD1984742F60303984286
:103C00003DD13046FEF722FA824535D03046FEF7E8
:103C100085F998F80120022803460CBF4FF0070BE6
:103C20004FF0150B0AB988F801B098F801203B60F5
:103C30005A454BD128F804A03046FEF77FF9A21C64
:103C400092B2023508F80200E21C92B2304628F81F
:103C50000250FEF760F905343B68A4B208EB040596
:103C60001A46014628463EF0B9F83B681C44A4B207
:103C7000A344D9452ADB55460135ADB29BE73368ED
:103C800030469B68984742F602139842F4D128F8D0
:103C900004A03046FEF742FB0234A4B2A9EB0409AB
:103CA00080B21FFA89F9814528BF8146304608EB6A
:103CB0000405FEF735FB4A4601464C44284609F107
:103CC00002093EF08BF8A4B288F80190022C38D19A
:103CD0003A693B6C12681B880A210091D2F8DC40DB
:103CE000D7E903100822A047D7F808D047E798473C
:103CF00042F603039842BFD13046FEF70FF902287F
:103D00008346B9D13046FEF706F95A46014678682F
:103D10003EF056F80028AFD128F804A03046FEF750
:103D200017F90234A4B2A9EB04091FFA89F980B289
:103D3000814528BF8146304608EB0405FEF706F9A9
:103D4000B9E7074B18680368CDF80080D3F89450A2
:103D5000F968E3B20422A847C6E700BFFC2D0500BE
:103D60005C2E05002DE9F043012B97B0044602AF0D
:103D70000E461546E8460BD0036804220092D3F89D
:103D8000DC4018220023A0475437BD46BDE8F0832D
:103D9000B0F8CE1001B33B6F1B78DB071CD51C4B72
:103DA0001868036801391B6A9847B4F8B030B34209
:103DB000814611D104F1B40294F8B310381DFDF717
:103DC0002BFF4846B4F8D430D4F8D020391DFEF784
:103DD00036FA381DFDF769FE00230735A4F8CE300A
:103DE000A4F8D430ED086B46A3EBC5039D46192318
:103DF0008DF80830074B186802AA03680092D3F8C0
:103E00009440042201233146A047C546BCE700BFC9
:103E1000FC2D05005C2E05002DE9F04F87B002AFA8
:103E2000032B04460D467A601E46C7F80CD00DD809
:103E3000036804220092D3F8DC4016220023A04736
:103E4000D7F80CD01437BD46BDE8F08FBB6B1B888C
:103E50003B811FFA83F8BB6BB3F802B04B4BD3F82E
:103E60000090D9F800304846DB69984708F1FF31E7
:103E70008BB2834206D923680A220092D3F8DC6011
:103E8000434620E0D9F8003048461B6A984703684B
:103E90009B688146984742F60303984202D0236804
:103EA0000B22EAE74846FEF7D1F840458246F6D1B4
:103EB0004846FEF743F803070AD42368032100911C
:103EC000D3F8DC605346162229462046B047B7E7B0
:103ED000B4F8CE30E3B948463B60FEF735F801460A
:103EE0008246D4F8D0003EF091F83B683A89A4F8B5
:103EF000CE20C4F8D000A4F8D430524619463DF084
:103F00007BFFB4F8D4305B4507D023680722B4E7C1
:103F10005345F6D023680E21D1E7331F5FFA83FAA9
:103F20000BEB0A024846BA60FEF70EF8BA6880B298
:103F30008242EADCBB6BD4F8D0005246191D5844CB
:103F40003DF04CFFB4F8D420B96B0AEB0203A4F89F
:103F5000D4307B6807336A46DB08A2EBC3039D4677
:103F600017238DF8083032460DF109003DF036FF79
:103F7000074B186802AC02680094731CD2F8944096
:103F8000DBB204222946A0475AE700BFFC2D0500FA
:103F90005C2E05002DE9F04F99B0012B05468946AE
:103FA00002921C465AD9229B1F88B0F8B0308B422F
:103FB00043D1D0F8C460002E3FD03046FEF7FBFE60
:103FC0004FF0000B8246D34537DA59463046FEF7AC
:103FD000F4FE8046FEF764FF874202D80BF1010B26
:103FE000F1E74046FEF75EFF8742F7D84046FEF70E
:103FF0005BFF05F1B403834600260393023CB345FF
:104000001BDD31464046FEF751FF8246FEF7C2FDFA
:10401000874201D00136F2E7039A95F8B31005A85C
:10402000FDF7FAFD229A50462346023205A9FEF713
:1040300025FE05A8FDF739FDECE7029B1D2B0DD1F0
:104040001E238DF81430074B186805AA03680092E8
:10405000D3F89440042201234946A04719B0BDE893
:10406000F08F00BF5C2E05002DE9F04F8FB002AF3E
:10407000C7E90021FB60B0F8A830F96807336A4649
:10408000DB08A2EBC30307F118059D4683462846CB
:1040900000F04AFE0DF108090124BD60DBF8003094
:1040A000CDF804904FF420520092D3F8BC507968B8
:1040B0004FF6FF7322465846A847054620B199F8A7
:1040C0000030112B04D001203437BD46BDE8F08FFD
:1040D00099F801307B61A3F1040802235FFA88F8A4
:1040E00009F102063B614FF6FF7A3B69AB4204DB04
:1040F0004FF6FF739A45D1D0E5E7FB68E3B930206E
:1041000032F01AFB3146728831F8043B00920446C3
:104110004246FEF7ABFE21463868FEF735FE74884E
:10412000D7E904320134A4B2002C134408BF4FF085
:10413000000A3B611644D8E7B86800F034FE4045F9
:10414000EDD1B86800F02DFE42460146301D3DF02D
:1041500037FE0028D3D0E2E72DE9F04F8DB0B0F85C
:10416000A83004AFC7E9042107336A46DB08A2EB95
:10417000C3039D4682463869FEF71DFE0DF1100906
:10418000F8604FF00008FB6898454ADA4146386904
:10419000FEF713FEB861FEF783FE0646B869FEF728
:1041A00081FEB860DAF80030CDF8049042F60302E0
:1041B0000092D3F8A8407969BB6832465046A047C0
:1041C000054678B399F80030092B27D199F80130CA
:1041D000FB61053BDBB27B6009F102044FF0020B8F
:1041E000AB45DFDA382032F0A7FAB4F80330029397
:1041F000A37801932388009306467B697A68611D42
:10420000FEF718FC3146B869FEF75EFEB4F80360AD
:10421000FB690136B6B29B441C44E1E708F1010892
:10422000B1E701202437BD46BDE8F08F2DE9F04FFE
:104230008FB0B0F8A83002AF0733C7E90421DB081C
:104240006A46A2EBC3039D4602AB82463869FB6215
:10425000FEF7B1FD4FF0000BF860FB689B456CDA90
:1042600059463869FEF7A9FD7862FEF71BFEB86073
:10427000786AFEF719FE431E386200267B603B6AAF
:104280009E4257DA3146786AFEF710FE7B68F86185
:104290009E4248D0711C786AFEF708FE0546F86910
:1042A000FEF778FC013084B2002D3ED02846FEF7A0
:1042B00071FCB862BB6AA3423AD3DAF80030FA6AFA
:1042C0000092D3F898507969BB6A22465046A847B5
:1042D000054698B3FB6A1B78052B29D1FB6A93F836
:1042E00001904FEA8903BB61FB6A4FF0020903F1B9
:1042F0000208A945E1DA202032F01EFA41460446C0
:1043000031F8023B00937B690222FEF721FD214632
:10431000F869FEF745FCB8F80040BB690134A4B267
:1043200099449844E5E70025B9E7BB68BB62C1E75B
:104330000136A4E70BF1010B8FE701203437BD46AE
:10434000BDE8F08F30B5022A85B00D4609D003686C
:1043500004220092D3F8DC4002220023A04705B0DB
:1043600030BDB0F8A8201B889A4228BF1A46B0F882
:10437000B030ADF80D208B4208BFA0F8C020074A2E
:10438000032310688DF80C30026803A90091D2F85D
:10439000944029460422A047E1E700BF5C2E0500B7
:1043A00010B5B0F8B0308B420DD100F1B401931DBF
:1043B00011F8014B03F801499342F9D190F8B32069
:1043C0001A70012010BD0020FCE7042A15D1B0F8B6
:1043D000D8208A4211D190F8DA201978013A8A421D
:1043E0000BD1D0F8DC2001211170D0F8DC201B6843
:1043F000C2F80130052380F8E0307047022A18D156
:10440000B0F8B0208A4204BF1A88A0F8C020B0F8E3
:10441000D8208A420DD190F8DA20032A09D1D0F8A9
:10442000DC100A70D0F8DC101B88A1F8013080F88D
:10443000E0207047012A38B50446154613D9B0F874
:10444000D80088420FD194F8DA0005280BD1D4F8AF
:10445000DC100870D4F8DC001946013001353DF05D
:10446000BDFC84F8E05038BD012A38B50446154635
:1044700013D9B0F8D80088420FD194F8DA00112887
:104480000BD1D4F8DC100870D4F8DC0019460130E8
:1044900001353DF0A3FC84F8E05038BD38B5044642
:1044A000B0F8D800884215460FD194F8DA100B29DD
:1044B0000BD1D4F8DC000170D4F8DC0019460130CF
:1044C00001353DF08BFC84F8E05038BD38B504462A
:1044D00015469AB1B0F8D80088420FD194F8DA00A6
:1044E00009280BD1D4F8DC100870D4F8DC00194688
:1044F000013001353DF072FC84F8E05038BD6AB9F6
:10450000B0F8D8308B4209D190F8DA30132B01BFC4
:10451000D0F8DC201370012380F8E0307047B0F849
:10452000B0308B4201BF30F8C93F1380837893705D
:104530000020704710B5B0F8B0308B420AD100F1BE
:10454000BA0100F1C0030C4611F8010B20B99942E1
:10455000FAD110BD0020FCE723681360A388938084
:104560000120F6E7F0B50446B0F8B00097B01E465B
:104570004FF6FF7398421C9D34D11723A4F8B01056
:1045800084F8B220A4F8C03084F8B3602B68C4F873
:10459000B430AB88A4F8B8306A1E0DF10903691D68
:1045A00012F8010F03F801098A42F9D10E4B18687D
:1045B000036804F1BA07D3F890303A4601A9984746
:1045C00018B9C4F8BA00A4F8BE00D4F8E4404CB15D
:1045D0002A46314603A8FDF71FFB03A8A04703A8FE
:1045E000FDF763FA17B0F0BD5C2E050070B5054607
:1045F00090F8850094B0F8B1104B114C1868B4F8DD
:104600004410036801391B6A984704F147020646C3
:1046100094F8461001A8FDF7FFFA94F84D3004F124
:104620004E0201A93046FDF70AFE01A8FDF73DFA4A
:10463000002385F88530012014B070BDFC2D0500E5
:104640004C1100202DE9F047B0F8B0508D42A6B0D3
:10465000044640F0A68000F1B40790F8B3103A4643
:104660006846FDF7D9FA4FF6FF739D4250D04E4B86
:10467000DFF838911D68002642F603082B682846AB
:10468000DB6998471FFA86FA50453CD92B6851469A
:104690001B6A2846984703689B68824698474045AE
:1046A0002FD19DF804308DF85030DDF80530CDF86D
:1046B0005130BDF80930ADF855309DF80B308DF80C
:1046C00057309DF80C308DF85830CDF84C900DF1E6
:1046D0000D030DF159020DF1490153F8040B42F895
:1046E000040B8B42F9D11B8813809DF84B308DF859
:1046F00097305046002213A9FDF7C1FD13A8FDF71E
:10470000D4F90136BAE70023A4F8CE30A4F8D430A7
:10471000D4F8E81061B3254B13939DF804308DF85D
:104720005030DDF80530CDF85130BDF80930ADF826
:1047300055309DF80B308DF857309DF80C308DF8C2
:1047400058300DF159020DF10D030DF1490053F8E8
:10475000045B42F8045B8342F9D11B8813809DF807
:104760004B308DF8973013A8884713A8FDF79DF9B3
:104770004FF6FF73C4F8B0300023C4F8B430BB80E8
:10478000D4F8C400C4F8C8301722A4F8C02010B16F
:1047900003685B6898470023C4F8C4306846FDF797
:1047A00084F926B0BDE8F087FC2D0500EC2A050051
:1047B0001B4B70B5044640F8863B03F038F804F113
:1047C000870003F034F8174B04F1980503F1100645
:1047D000186859682A4603C20833B3421546F7D110
:1047E0000023172241F288304FF6FF71C4E92B01F4
:1047F000A4F8A820A4F8CE30C4F8D030A4F8D4305F
:10480000C4F8B430A4F8B830A4F8C020C4F8C43058
:1048100084F8C830C4F8E430C4F8E830204670BDED
:10482000BC2C0500A02C050090F8C8309B074CBF9D
:10483000B0F8B00002207047B0F8B0308B420CBF27
:1048400090F8C800002070472DE9F04F99B002AFF2
:104850001D4697F880303A60012B04460E467B6077
:104860000DD8122D07D1036804220092D3F8DC4042
:104870002A460023A0475C37BD46BDE8F08FD7F835
:104880008430B3F800807B4BD3F800A0DAF8003016
:104890005046DB69984708F1FF318BB283420CD94F
:1048A000122DE8D123680A220092D3F8DC902A4620
:1048B000434631462046C847DDE7DAF80030504627
:1048C0001B6A984703689B688146984742F6030B2A
:1048D000584540F087804846FDF7B8FB804548467C
:1048E00001D1122D5FD1FDF729FB010761D54846A3
:1048F000FDF727FB10F0020A10D031462046FFF7E3
:104900009BFF03065BD423680F220092D3F8DCA040
:10491000122243462046D0474FF0010AB4F8B03087
:10492000B34229D17B6894F8B310023B5FFA83FB52
:10493000D7F8843002337B6004F1B402BAF1000F7F
:1049400040D0A4F8448084F846101168C4F8471099
:104950009288A4F84B200A2284F8852019465A46EA
:1049600084F84DB004F14E003DF038FA94F88520FB
:104970000BEB020384F88530122D7FF47CAF3B688B
:1049800007336D46DB08A5EBC3039D46132302AA3C
:104990008DF80830BAF1000F61D02371012384F83B
:1049A0008430AD4667E7FDF7C9FA42077FF563AF8C
:1049B0009DE7122D7FF45FAF2368032274E74FF069
:1049C000000AABE707F10C00FDF726F948465B4605
:1049D0007A6807F10C01FDF732FC07F10C00FDF7D6
:1049E00064F8C9E7D9F8003048469B689847B0F5A5
:1049F000245FDED14846FDF791FA0228D9D1484616
:104A0000FDF789FA028842F602139A42D1D1DAF808
:104A10000030A8F102011B6A5046984703689B6862
:104A2000814698475845C4D1B4F8B030B34213D149
:104A300004F1B40294F8B31007F10C00FDF7ECF8A0
:104A4000D7F8843048465A8807F10C01FDF717FC67
:104A500007F10C00FDF729F84FF0000A8CE7064B30
:104A6000186803680092D3F8944004220123314669
:104A7000A04796E7FC2D05005C2E05002DE9F04FC0
:104A80009BB0984602AFB8F10A0F934604460E4613
:104A900097F88820D7F88C30C7F808D00FD1022AB1
:104AA00017D0036804220092D3F8DC40424600236A
:104AB000A047D7F808D06437BD46BDE8F08F042A78
:104AC00007D0036804220092D3F8DC400C220023B4
:104AD000EEE7B8F10A0FB3F800A018BFB3F80290E0
:104AE000864B1D682B682846DB6908BF4FF000091C
:104AF00098470AF1FF318BB2834207D923680A2213
:104B00000092D3F8DC504246534624E00BF10703F1
:104B10006A46DB08A2EBC3039D46B8F10A0F6A465A
:104B20000CBF0B230D2302F8083F2B68FA601B6AA9
:104B30002846984703689B6805469847B0F5205F6C
:104B40002BD1B9F1000F0AD0236804220092D3F8C8
:104B5000DC500B22534631462046A847A9E7284699
:104B6000FDF7DCF980462846FDF7D5F942460146B7
:104B70000DF109003DF032F908F101081FFA88F83B
:104B80005F4BFA68186803680092D3F894400422D7
:104B90005FFA88F33146A0478BE70BF1FF337B6068
:104BA00042F60303984240F082802846FDF74CFA13
:104BB00050451ED1B9F1000F02D023680B229FE7A8
:104BC0002846FDF7BBF9FB6858702846FDF73EFA0A
:104BD000FB6858802846FDF7A1F980462846FDF776
:104BE0009AF94246014603A83DF0F8F808F1040896
:104BF000C4E72846FDF7A2F9820702D423680222FF
:104C00007EE72846FDF79DF910F0020B10D03146E3
:104C10002046FFF711FE030613D423680F220092EB
:104C2000D3F8DCB0424653462046D8474FF0010B3C
:104C30002846FDF78DF983B2994505D323680722ED
:104C40005EE74FF0000BF3E7B4F8B030B3424FD15A
:104C50007B6894F8B3101FFA80F8A8EB0908984510
:104C6000A8BF984604F1B40207F11400FCF7D4FF82
:104C70001FFA88F30093FB684A46013307F11401D9
:104C80002846FDF7BDFA07F11400FCF70EFF08F106
:104C900001081FFA88F8BBF1000F3FF471AF4246DC
:104CA000F968201D3DF09AF884F8848001E7B0F59A
:104CB000245F20D12846FDF731FB83B29945BDD250
:104CC0007B681FFA80FBABEB090B9B452846A8BF0E
:104CD0009B46FDF725FB1FFA8BF200EB09010BF158
:104CE000010B0DF109003DF079F81FFA8BF847E749
:104CF0004FF00108CFE74FF0010841E7FC2D050018
:104D00005C2E050010B5054C2046FFF751FD2046EE
:104D1000034A0449BDE8104031F021BB4C1100208A
:104D2000E0000020B932010073B5002504460E46AC
:104D300040F8041B10222946ADF804508DF80650A7
:104D40003DF05AF825752EB330463DF04BFA451E1E
:104D5000002D237D19DB0F2B1FD8735D2D2B02D166
:104D60000135023DF4E77219002112F8012C8DF88B
:104D7000042001A810228DF805303DF0C1FA237DF2
:104D8000E218013310712375EBE7032B34BF0223C4
:104D900010232375204602B070BD1023F9E7006888
:104DA000704704307047007D704700002DE9F047E0
:104DB000144C80464D1E4FF4AA594FF02D0A6A1C20
:104DC0001AD018F8057010222146380905F01AFE8D
:104DD0001022611C07F00F0005F014FE0C2D04F1E9
:104DE000020606DC29FA05F3DB0744BFE61C84F85B
:104DF00002A0013D3446E2E7002323700148BDE8EC
:104E0000F08700BF38120020007970472DE9F04F7D
:104E100089B090460DF1180B027A9DF848601F4644
:104E20000023054689460693ABF80430FAB99E4242
:104E300014BF4FF0020A4FF0030A2B6828461B6983
:104E40009847194BEA881C680021072023680091C5
:104E5000CDE90301CDE9011B2046D3F83CB0114652
:104E60005346D84728B1002009B0BDE8F08F9A46D4
:104E7000E3E723684A461B6C4146204698470028D2
:104E8000F1D123683A465B6C3146204698470028AA
:104E9000E9D1236801219B6C204698470028E2D184
:104EA00001202871E0E700BF5C2E0500034B0021C4
:104EB0000171186803689B6C184700BF5C2E0500E1
:104EC0002DE9F341124B1D682B6801221B6D07462B
:104ED0000E4628460021002498472B68CDE900445F
:104EE000D3F84C8020231A4601212846C04768B9D0
:104EF000012179712B6886EA01021B6D28469847CB
:104F0000B0FA80F0400902B0BDE8F0812046FAE72F
:104F10005C2E0500C180704701727047022908BFEE
:104F2000C260704770B50B4D04461C30164605F044
:104F300007FC294604F1280005F01BFC294604F172
:104F4000340005F016FC2368314620465B69BDE855
:104F5000704018471C6505002DE9F0410C4D0446D2
:104F60000F461C302946164605F003FC394604F16D
:104F7000280005F0E5FB294604F1340005F0F9FBB3
:104F80002368314620465B69BDE8F041184700BF01
:104F90001C6505002DE9F0410C4D04460F461C3000
:104FA0002946164605F0E5FB294604F1280005F0E0
:104FB000E0FB394604F1340005F0C2FB23683146BA
:104FC00020465B69BDE8F041184700BF1C6505003D
:104FD0007FB5C36B04460D468BB10B6801A89B6976
:104FE000984701A904F1340005F07CFC064601A8AD
:104FF00005F049FB1EB90024204604B070BD636A69
:1050000073B1294601A8FCF71BFE01A904F11C009D
:1050100005F05BFC064601A805F035FB002EEAD042
:10502000236B6BB1294601A8FCF780FE01A904F1AE
:10503000280005F057FC044601A805F024FBDBE737
:105040000124D9E738B50F4B03604FF420030E4D10
:1050500043600123037200230446C0E90333C0E91F
:10506000053329461C3005F059FB294604F1280078
:1050700005F054FB294604F1340005F04FFB2046AF
:1050800038BD00BFBC2D05001C65050003688B42C0
:1050900008D9436800228A4202D05B680132FAE7ED
:1050A000186870470020704770B5044640680025B6
:1050B0002368AB4206D94668082131F06FFB013501
:1050C0003046F5E70023C4E90033A36070BD00005B
:1050D00010B50A4B044640F8343B05F0D4FA04F10D
:1050E000280005F0D0FA04F11C0005F0CCFA04F118
:1050F0001000FFF7D9FF204610BD00BFBC2D0500F2
:1051000010B50446FFF7E4FF2046402131F046FB8E
:10511000204610BD70B50E4B054618680368002286
:105120001B6D11460024984705F110066C712B6920
:105130009C4209D221463046FFF7A8FF10B1036810
:105140005B6898470134F2E73046FFF7ADFF70BD6A
:105150005C2E050003688B4270B504461AD9002204
:10516000406813468A42456803D003460132284608
:10517000F8E7066863B96560A268824208BFA36069
:10518000082131F00BFB2368013B2360304670BDE2
:105190005D60F1E70026F9E72DE9F041074694B09C
:1051A0000D46002401F110082B699C422AD22146A9
:1051B0004046FFF76BFF0646FCF7F5FD00B33146AE
:1051C00001A8FCF757FF21464046FFF7C3FF1EB179
:1051D000336830465B6898472B6801A9DB6B28462B
:1051E000984750B101A93846FCF744FF01A8FCF7E5
:1051F0005CFC384614B0BDE8F08101A8FCF755FC12
:105200000134D1E73846FCF7F7FCF2E72DE9F04F1F
:10521000C568ABB004460F4692469B469DF8D080C9
:105220009DF9D8902DB3032922D11A46514604A8DE
:10523000FCF7F2FCCDF80090359B4246394604A8B5
:10524000FCF78BFD236804A9DB6B2046984748B127
:1052500004A917A8E468FCF70DFF17A8A04717A832
:10526000FCF723FC04A8FCF720FC2BB0BDE8F08F72
:10527000002504F110032269AA420DD918462946D7
:105280000393FFF703FF5A4651460646FCF755FDC8
:10529000039B002841D006BB23691F2B08D900219E
:1052A00004F11000FFF756FF10B103685B689847E0
:1052B0004C2031F041FA5A4651460646FCF7ACFC08
:1052C000082031F039FA0023C0E90063636933BB79
:1052D00060612569A0616B1C2361042F22D0CDF889
:1052E0000090359B424639463046FCF736FD304645
:1052F000FCF759FD0028B8D0E368002BB5D0314643
:1053000004A8FCF7B7FE294604F11000FFF722FFBE
:10531000336830465B68984794E70135ABE7A3698B
:105320005860D6E74B46359A41463046FCF726FD95
:10533000DDE770B446799DF80C409DF9145026B114
:105340000595039470BCFFF761BF70BC7047000007
:1053500010B5054C2046FFF775FE2046034A044968
:10536000BDE8104030F0FBBF60120020E0000020DC
:10537000D1500100406870474368994208D2836861
:105380000022914202D05B680132FAE71868704748
:105390000020704773B50446302031F0CDF9324912
:1053A0000546FDF777FAE561542031F0C5F900258F
:1053B0000646142302222D490095FCF795FE26622D
:1053C000542031F0B9F902231A46064628490095BF
:1053D000FCF78AFE6662302031F0AEF925490646B8
:1053E000FDF758FAA662542031F0A6F920220423D2
:1053F000214900950646FCF777FEE662E069FCF776
:1054000090FD206AFCF78DFD606AFCF78AFDA06ABA
:10541000FCF787FDE06AFCF784FDD4E90701FDF79E
:1054200060FA616AE069FDF75CFAD4E90A01FDF708
:1054300058FA236811491B69204698472368294672
:1054400020465B69984723682046DB6A98472368B3
:10545000E1699B6A204698472368A16A9B6A2046B7
:1054600002B0BDE870401847002E0500052E05006B
:105470000A2E05000F2E0500142E0500192E05001A
:1054800010B50446C069FCF751FD20B9E06910B1C0
:1054900003685B689847206AFCF748FD20B9206ADA
:1054A00010B103685B689847606AFCF73FFD20B95C
:1054B000606A10B103685B689847A06AFCF736FD24
:1054C00020B9A06A10B103685B689847E06AFCF7EE
:1054D0002DFD20B9E06A10B103685B689847236826
:1054E0002046DB6ABDE810401847006AFCF792BD11
:1054F00007B50222ADF80610406A0DF10601FCF76F
:1055000029FD03B05DF804FB10B504460846FCF71E
:10551000AAFC014628B1236820469B6ABDE81040DA
:10552000184710BD2DE9F0410025074688462C4656
:105530003B683846DB699847A84211D93B68294641
:105540001B6A3846984703689B6806469847B0F53B
:10555000205F02D0464503D0264601353446E7E7B2
:1055600020463CB1FCF7DAFC0228204604D1FCF7C7
:10557000D2FC0088BDE8F081FCF7CDFC4089F9E75A
:10558000074A02600022C0E90122C0E90322C0E903
:105590000522C0E90722C0E90922C262704700BFA4
:1055A0002C2E050038B5044608200D4631F0C4F80D
:1055B0000023C0E9005363682BB960602368A060D2
:1055C0000133236038BDA3685860F7E72DE9F84F31
:1055D00004460D46084604F10408FCF7A2FC2946DF
:1055E0004046FFF7DFFF082031F0A6F80023C0E9AE
:1055F00000536369002B47D160612369A0610133C7
:10560000236123682046DB69984700271FFA80FB47
:105610002846FDF756F9B8423BD939462846FDF7EA
:1056200052F90646FCF77DFC31464046FFF7BAFFCB
:1056300023682046DB69984781B23046FCF702FDBB
:105640003046FCF76EFC31464046FFF7ABFF4FF0AB
:1056500000093046FCF7FEFC484518D9494630465B
:10566000FCF7FAFC8246FCF75CFC51464046FFF72B
:1056700099FF23682046DB69984781B25046FCF7C2
:1056800051FE09F10109E4E7A3695860B5E7013764
:10569000BEE723682046DB699847594682B2284610
:1056A000BDE8F84FFDF706B970B50446406800251F
:1056B0002368AB4206D94668082131F06FF80135FE
:1056C0003046F5E70023C4E90033A36070BD70B530
:1056D0000446406800252368AB4206D94668082185
:1056E00031F05CF801353046F5E70023C4E90033BA
:1056F000A36070BD38B50546064B45F8103B04461F
:10570000FFF7BEFE2846FFF7E2FF201DFFF7CCFFA4
:10571000204638BD2C2E050010B50446FFF7EAFFE1
:105720002046302131F03AF8204610BD70B50446CD
:10573000002523682046DB699847A8420FD92368D3
:1057400029461B6A204698470646FCF7EFFB20B91E
:105750001EB1336830465B6898470135E9E7201D84
:10576000FFF7A2FF002523699D420BD26369002247
:10577000954202D05B680132FAE71868FDF7E8F855
:105780000135F0E704F11000FFF7A1FF70BD000044
:1057900008B5054B1846FFF7F3FE044A04491846BE
:1057A000BDE8084030F0DBBDA0120020E000002082
:1057B000F5560100704700000023C0F80831024B85
:1057C000186803681B68184714300500024B1868F6
:1057D00003685B68184700BF1430050003680021A8
:1057E0005B69184710B40368D3F8A4400023A446AB
:1057F0001A4640F603415DF8044B604737B503682D
:10580000ADF80610D3F8A45002220DF1060341F2C0
:1058100005410446A84750B9D4F81832BDF806200F
:105820001988914203D193F9020003B030BD7F2063
:10583000FBE713B5CDE9002303680822D3F8A440A1
:1058400040F601416B46A04702B010BD13B5CDE94B
:10585000002303680822D3F8A44042F201016B46FA
:10586000A04702B010BD10B40368D3F8A4400622CC
:105870000B46A44642F205015DF8044B60471FB594
:10588000089C8DF804309DF818308DF805309DF88F
:105890001C308DF806302368CDF80730A388ADF8AA
:1058A0000B309DF824308DF80D309DF828308DF8A0
:1058B0000E300368ADF80010ADF80220D3F8A44014
:1058C0000F226B4642F20601A04704B010BD13B58B
:1058D00003688DF80710D3F8A44001220DF10703E7
:1058E00042F20A01A04702B010BD13B5ADF8033073
:1058F0009DF810308DF805309DF814308DF8063085
:1059000003688DF80010ADF80120D3F8A4400722F9
:105910006B4642F20B01A04702B010BD13B50368FD
:105920008DF804108DF80520D3F8A440022201ABB5
:1059300042F20C01A04702B010BD10B588B00B9C1C
:105940008DF808309DF828308DF809302368CDF89F
:105950000A30A388ADF80E309DF830308DF8103045
:10596000BDF83430ADF81130BDF83830ADF8133033
:10597000BDF83C30ADF81530BDF84030ADF817300B
:10598000BDF84430ADF81930BDF84830ADF81B30E3
:105990000368ADF80410ADF80620D3F8A44019222E
:1059A00001AB42F20D01A04708B010BD10B403686E
:1059B000D3F8A4400023A4461A4642F20E015DF833
:1059C000044B60471FB5ADF80430BDF81830ADF892
:1059D0000630BDF81C30ADF808300423ADF80A30AD
:1059E0000623ADF80C300368ADF80010ADF80220C6
:1059F000D3F8A4400E226B4642F21301A04704B034
:105A000010BD10B4D0F8EC402CB119461046234616
:105A10005DF8044B18475DF8044B704707B5036801
:105A20000122D3F888306946984703B05DF804FB3B
:105A300037B5002300930DF10504CDF803304B1E5C
:105A4000053113F8015F04F801598B42F9D103685D
:105A50008DF80620D3F8A44007226B4640F60D418E
:105A6000A04703B030BD13B513238DF8063003688B
:105A7000ADF80410D3F8A440032201AB40F2064174
:105A8000A04702B010BDC0F8041170470023C0F851
:105A90000431704732B190F81D329342C6BF9A1A52
:105AA000D2B2002280F81D22704710B4D0F8F8302E
:105AB0000C4623B1204611465DF8044B18471846A2
:105AC0005DF8044B704710B4D0F8EC300C4623B1AD
:105AD000204611465DF8044B184718465DF8044B04
