:020000021000EC
:1000000000000120EDB0040025B104006954040093
:1000100029B10400755404007B5404000000000062
:1000200000000000000000000000000049A90100DD
:1000300031B1040000000000E3A90100F3A90100B0
:1000400037B10400E123040037B1040037B10400E4
:1000500037B1040037B1040037B1040037B10400F0
:1000600037B1040037B1040037B1040037B10400E0
:1000700037B1040095DF040037B10400412E0400BD
:1000800037B1040037B1040037B1040037B10400C0
:1000900037B1040037B1040037B1040037B10400B0
:1000A00037B1040037B1040037B1040037B10400A0
:1000B00037B1040037B10400000000000000000068
:1000C00037B1040037B1040037B1040037B1040080
:1000D00037B1040037B1040037B104000348044BC2
:1000E000834202D0034B03B118477047E805002054
:1000F000E80500200000000005480649091A89109B
:1001000001EBD171491002D0034B03B1184770477E
:10011000E8050020E80500200000000010B5064CAE
:10012000237843B9FFF7DAFF044B13B10448AFF368
:1001300000800123237010BDE805002000000000AE
:100140007870050008B5054B1BB105490548AFF3AC
:100150000080BDE80840FFF7CFBF00BF00000000EF
:10016000EC05002078700500154B002B08BF134BE1
:100170009D46A3F5803A00218B460F461348144A4A
:10018000121A41F04DFC0F4B002B00D098470E4B3C
:10019000002B00D098470020002104000D000D48DE
:1001A000002802D00C4835F02BFF41F081FB2000E5
:1001B00029000CF027FC35F020FF00BF00000800EC
:1001C000000001200000000061C90100E8050020D6
:1001D0008894002001600400000000007047704710
:1001E000704770472DE9F041104F114E0024002553
:1001F000B8463A6833784EF660218A42FDD9002B22
:10020000FBD10023AB4208BFA24208D201244FF425
:100210007A70347036F018FF337803B93470642084
:10022000D8F80040002536F00FFFE2E70009002073
:100230001009002000B5264E264D274C8BB04FF4F8
:10024000FA7036F001FF314601A80AF0A1F801A9C1
:1002500007A80AF0BEF80322296804A80AF0E6F805
:1002600004A907A80AF04FF90146204609F0F2FE5A
:1002700004A80AF042F807A80AF03FF801A80AF01B
:100280003CF8164901A80AF083F801A907A80AF06A
:10029000A0F8134B0322196804A80AF0C7F804A9B0
:1002A00007A80AF030F90146204609F0D3FE04A859
:1002B0000AF023F807A80AF020F801A80AF01DF8B0
:1002C0000AF02EFA0A220146204609F046FFB6E758
:1002D000A42205002809002024260020AF220500C2
:1002E0000009002008B5094C0121204600F07CFEE1
:1002F0004FF47A7036F0A8FE2046002100F074FE1C
:100300004FF47A7036F0A0FEEEE700BF5C0F0020DD
:100310000B6803604B6843608B6883607047000024
:1003200010B5034B0360044609F022FB204610BDC4
:100330006822050010B5034B0360044609F018FB62
:10034000204610BD8422050010B5034B036004460F
:1003500009F00EFB204610BD4C22050030B50B7C89
:100360000B2B87B005460C460CD1D1ED037AF5EE88
:10037000C07AF1EE10FA22DD0023CB6011490AF0B9
:1003800007F819E0104903A80AF002F80322E1680F
:1003900068460AF05DF8694603A80AF0B4F80B490C
:1003A0000AF0BDF8014628460AF013F8684609F03D
:1003B000A4FF03A809F0A1FF284607B030BD0449F7
:1003C000DDE700BF61250500712505008B60050094
:1003D0008C600500034608469A6803F10C0109F099
:1003E000E9B910B50446FFF79BFF2046202136F0FF
:1003F00021F8204610BD10B50446FFF79BFF2046AC
:10040000142136F017F8204610BD10B50446FFF74A
:100410009BFF20460C2136F00DF8204610BD10B48D
:100420000C46037C826800F10C0120465DF8044B09
:1004300009F002BA0B46811D184609F0A9B90368F4
:100440001847C3680BB19B6818477047F7B50D464E
:100450001F4600210B4B03600446016140301646E5
:1004600036F0E0FD04F1540036F07CFD089B00936B
:1004700020463B463246294636F052FE204603B01F
:10048000F0BD00BFF866050070B50C468CB005469F
:100490001F4903A809F07CFF0A22B4F9001068463E
:1004A00009F0B2FF694603A80AF02DF819490AF0CD
:1004B00036F80A220646B4F9021006A809F0A4FF8D
:1004C00006A930460AF01FF813490AF028F80A2254
:1004D0000646B4F9041009A809F096FF09A93046A8
:1004E0000AF011F80D490AF01AF80146284609F0F9
:1004F00070FF09A809F001FF06A809F0FEFE684692
:1005000009F0FBFE03A809F0F8FE28460CB070BD08
:100510007E2505008F250500962505008B600500CA
:1005200010B506310446FFF7AFFF204610BD0000AE
:1005300070B50C4692B005462E4903A809F028FF75
:1005400003222168684609F083FF694603A809F081
:10055000DAFF294909F0E3FF03220646616806A88D
:1005600009F076FF06A9304609F0CDFF234909F0CE
:10057000D6FF03220646A16809A809F069FF09A968
:10058000304609F0C0FF1E4909F0C9FF03220646A4
:10059000E1680CA809F05CFF0CA9304609F0B3FF34
:1005A000184909F0BCFF0322064621690FA809F08B
:1005B0004FFF0FA9304609F0A6FF134909F0AFFF1E
:1005C0000146284609F005FF0FA809F096FE0CA881
:1005D00009F093FE09A809F090FE06A809F08DFE27
:1005E000684609F08AFE03A809F087FE284612B083
:1005F00070BD00BF342505008F2505009625050038
:100600004C250500532505008B60050010B50C3105
:100610000446FFF78DFF204610BD000038B50446A4
:100620000D4609F04DF90B4B23600023A360E360F6
:10063000094B00221978A94204BF5968A16002F150
:10064000010204BF597821744F2A03F10803F1D144
:10065000204638BD84220500BC22050000000000B1
:1006600008B510A3D3E900233FF08EF80FA3D3E918
:1006700000233FF04DFC02460B46002008493EF0A7
:10068000A1FD05A3D3E900233EF054FF3FF0B6FAE5
:1006900008BD00BFAFF30080000000001AE9504120
:1006A0000000F03F0000000000AA8F406C45D9CC4C
:1006B000955BC83F08B51C4C1C4E2546304606F0DD
:1006C00081FF237C0B2B2BD1DFED197A94ED037A7C
:1006D000B4EEE77AF1EE10FA03DDC4ED037AF7EE3B
:1006E000007AFCEEE77A134A0B2BC2ED007AD5EDC7
:1006F000037A0CD19FED0E7AF4EEC77AF1EE10FA80
:10070000C6BF85ED037AF7EE007AF0EE477A17EE72
:10071000900A3EF0B7FEFFF7A3FF074B1860CDE746
:10072000D4ED037ADDE700BF14090020EC160020A9
:100730000000000028090020000900207047000088
:10074000044BC36003460A6843F8042B002242604E
:100750005A607047982205002DE9F341424E434DFF
:10076000DFF84481424F00240421304609F0A8F804
:10077000C6F80080F480B46030463E4E2A463946C2
:1007800035F039FC0D21304609F09AF8C6F80080A2
:10079000F480B4603046384E2A46394635F02BFC9A
:1007A000364F80213046FFF739FF3046344E2A4617
:1007B000394635F020FC81213046FFF72FFF3046C7
:1007C000304E2A46394635F016FC2221304609F0D3
:1007D00077F82D4B336021462C4B2D4FB3601422FC
:1007E00006F10C0041F01CF92A462A49304635F042
:1007F00002FC294E009423464FF4806218213846AB
:10080000FFF724FE3846254F2A46314635F0F3FBE4
:10081000234600944FF4806218213846FFF716FEF5
:1008200038461F4F2A46314635F0E5FB23460094F3
:100830004FF4806218213846FFF708FE3846194FFA
:100840002A46314635F0D7FB009423464FF48062A8
:1008500018213846FFF7FAFD2A463146384602B0DD
:10086000BDE8F04135F0C7BBF4080020E0000020EF
:1008700049030100040900204C0900203503010050
:10088000140900202C09002068220500D5FF7F38BC
:10089000380800202103010059720400C00600201E
:1008A0007C070020040600204C2205007FB500F0E4
:1008B000E3FA364800F032FC4FF4E131344809F0F5
:1008C0004BF9334809F01EF90028FAD0314902A843
:1008D00009F05EFD02A92E4809F0BCFB02A809F050
:1008E0000CFD102203212C4806F022FE01222B4988
:1008F0002B4809F025F8012228492A4809F020F858
:1009000001222649284809F01BF8012223492748DB
:1009100009F016F801222149254809F011F8254B64
:10092000019301A902A8FFF70BFF02A9224836F0A4
:1009300003FC02A8FFF785FD204B019301A902A843
:10094000FFF7FEFE02A91E4836F0F6FB02A8FFF7ED
:1009500078FD1C4B019301A902A8FFF7F1FE02A943
:10096000194836F0E9FB02A8FFF76BFD174B01931E
:1009700001A902A8FFF7E4FE02A9154836F0DCFB46
:1009800002A8FFF75EFD07B05DF804FB5C0F0020D6
:10099000242600209D250500EC16002000007A4446
:1009A000F4080020040900204C0900202C09002034
:1009B00014090020B506010038080020E5010100F7
:1009C000C0060020350201007C070020E50201007E
:1009D00004060020002070470368C9B21B6818474E
:1009E00049000023C161C0F82C327047036801211F
:1009F0001B6B184710B403689C6B0123A4465DF879
:100A0000044B6047D0F82C32B3F5807F1FBF5A1CCF
:100A1000C0F82C22C01880F82C1114BF012000202F
:100A20007047D0F8280170477047C0F830127047FF
:100A3000C0F834127047D0F82831A3B1D0F828316B
:100A40008BB1D0F82431D0F8242103440132D2B242
:100A500093F82030C0F82421D0F82821013AC0F8BA
:100A60002821184670474FF0FF307047D0F82831E2
:100A70002BB1D0F82431184490F8200070474FF083
:100A8000FF30704710B5044B0360044600F50E704C
:100A900036F0E2FB204610BDC825050038B50368D6
:100AA0005B6A04469847A82035F092FC94F9192017
:100AB00094F91810054633F01DF8656138BD000043
:100AC00070B5036888B05B6A04460E4698474820B4
:100AD00035F07EFC94F9192094F91810054633F08E
:100AE00043F828462561710033F05AF80C4B079300
:100AF0000C4B029300230393019401AB93E807008E
:100B000004AD85E80700294604F50E7036F014FBA5
:100B1000079B13B19B682846984708B070BD00BF7B
:100B2000A8250500DF0C010038B5D0F82C3214469A
:100B30001A44B2F5807F88BFC3F58074054600F57E
:100B400096702246184440F05DFFD5F82C322344BD
:100B5000C5F82C32204638BD38B5044640690D46EC
:100B600008B132F0E7FE206920B12946BDE83840DF
:100B700033F014B838BD38B50446406910B1036885
:100B8000DB68984723696BB104F50E75284636F08B
:100B900041FB284636F088FB20694821BDE83840F3
:100BA00035F048BC38BD1FB50246D0F82C32D469A8
:100BB000406981F0010100913BB9012303AA21465C
:100BC00032F0EBFEC0B204B010BD02F596722146C1
:100BD00032F0C2FE002814BF02200020F3E710B458
:100BE000D0E9013401686210E40701EB020048BF5C
:100BF0008A585DF8044B48BFD358184773B54FF473
:100C00007A730025C0E90153194B03600446C0E91B
:100C100004550176427629464FF48072203040F028
:100C2000FFFE144BC4F82051C4F838322946C4F8EA
:100C30002451C4E98B55C4F82851C4F83452C4F87F
:100C4000485204F51E7036F0EDF904F5237036F0C5
:100C500089F904F50E76084B009330462B464FF485
:100C60000062182136F05CFA204602B070BD00BF69
:100C7000C8250500F8660500B4250500D0F8083140
:100C8000B3F5807F0DD0D0F80031C154D0F80031D9
:100C90000133DBB2C0F80031D0F808310133C0F8BD
:100CA00008317047F0B5C3B083F0010300930646E6
:100CB00015461346490002AA406932F06EFE50B94B
:100CC00002AC67192036BC4206D014F8011B30462E
:100CD000FFF7D4FFF7E70025284643B0F0BD2DE924
:100CE000F0410446BCB000F120070025206932F035
:100CF0005EFF0328FAD8DFE800F03B021414D4F8B2
:100D0000343203B19847D4F82C2232B104F59671ED
:100D1000206932F050FFC4F82C52206932F053FFA2
:100D2000E4E7C4F82051F022C4F824516946C4F81D
:100D30002851206932F03DFF0026804646450BDAF7
:100D4000D4F82831B3F5807F06D01DF80610384658
:100D5000FFF794FF0136F1E7D4F82831002BC5DD09
:100D6000D4F83032002BC1D0D4F828019847BDE721
:100D700009F0F8FCBAE7000070B50D4C0D4E0E4DB1
:100D8000172216212046FFF739FF20460B4C32462A
:100D9000294635F030F910220F212046FFF72EFFAB
:100DA000324629462046BDE8704035F024B900BFE0
:100DB00060090020E0000020850A0100540C00209A
:100DC00010B5084CE423204607226A2100F0B2F94E
:100DD00007226A21204600F0D7F9A0F1E403584227
:100DE000584110BD600F002010B503226A2107484A
:100DF00000F0CAF9064B1B78984206D003226A21FC
:100E00000248BDE8104000F095B910BD600F002009
:100E1000620F002008B5FFF7E7FF42F2107009F0FB
:100E200091FCF8E710B50C4C0C4B04222046DA700C
:100E300036F098F80A4A0B49204635F0DCF80A4BA0
:100E400001221A60094B02221A60094B03221A6020
:100E5000084B07221A6010BD640F00205C0F0020B1
:100E6000E0000020E16F0400500F00204C0F002034
:100E7000480F0020540F002070B5012186B01920C2
:100E800009F0CEFC01210A2009F0CAFC01210A2048
:100E900009F02EFD2348244EFFF700FE03226A21AD
:100EA000224800F071F9224B18703578BFF35B8F40
:100EB00015F0010521D1304635F0ACF8E8B11D4CF4
:100EC0001D4B2360294604F14000256136F0AAF845
:100ED00004F1540036F046F8184B00934FF480624A
:100EE00028212B46204636F01BF9304635F0B4F861
:100EF000134A1449204635F07EF8134B0593134BE3
:100F0000029302A900230B48CDE9033336F014F90C
:100F1000059B13B19B6802A898470D4B01201870E0
:100F200006B070BD540C0020580F0020600F002048
:100F3000620F0020880F0020F866050018260500C3
:100F4000E00000205972040098220500150E0100EF
:100F5000610F00202DE9F0410D4D0E4C88462846CA
:100F600017461E4636F006F841462046FFF738FD84
:100F700039462046FFF746FD31462046FFF742FD41
:100F80002046FFF733FD2846BDE8F04136F00EB8A5
:100F9000640F0020540C002070B5164690F9032011
:100FA000044613410D46DBB210225321FFF7D2FF56
:100FB00094F9033046FA03F32046DBB22122532191
:100FC000FFF7C8FF94F9033045FA03F32046DBB27C
:100FD00032225321FFF7BEFF2046C5234022532172
:100FE000BDE87040FFF7B6BF39B90170417081703C
:100FF000037842788178FFF7CFBF022904D100231C
:101000000370FF2242700CE0032904D1FF23037018
:101010000023437005E0012905D1002303704370CC
:10102000FF238370E4E7062904D120230370437073
:101030000023F6E7052903D1202303700022E1E70E
:10104000042903D1002303702023E2E70729CFD12D
:10105000FF230370DDE7C5234F225321FFF77ABF3B
:1010600010B5012304461A465321FFF773FF2046AB
:10107000072302225321FFF76DFF2046002303229E
:101080005321FFF767FF2046002304225321BDE8C8
:101090001040FFF75FBF000038B516480C461546F4
:1010A00035F068FF21461448FFF79AFC294612489C
:1010B000114DFFF7A7FC00210F48FFF774FD2146F3
:1010C00001220D48FFF796FC09F02AFB044628464A
:1010D000FFF7A7FC20B909F023FB001B6328F6D912
:1010E0000548FFF7A8FC0446024835F05FFFE0B270
:1010F00038BD00BF640F0020540C002010B5012241
:1011000053210446FFF7C8FF40F00103DBB220463D
:1011100001225321BDE81040FFF71CBF10B5044663
:10112000FFF799FF2046FFF79BFF2046BDE81040E0
:10113000FFF7E4BF2DE9F041114D124C884619200C
:10114000012117461E4609F0D3FB284635F012FF51
:1011500041462046FFF744FC39462046FFF752FC43
:1011600031462046FFF74EFC2046FFF73FFC28465D
:1011700035F01CFF00211920BDE8F04109F0B8BB93
:10118000640F0020540C002038B519200C460121B2
:10119000154609F0ADFB174835F0ECFE2146164820
:1011A000FFF71EFC29461448134DFFF72BFC0021C6
:1011B0001148FFF7F8FC214601220F48FFF71AFCFF
:1011C00009F0AEFA04462846FFF72BFC28B909F0CF
:1011D000A7FA001BB0F57A7FF5D30748FFF72BFC81
:1011E0000446044835F0E2FE0021192009F080FB96
:1011F000E0B238BD640F0020540C0020704710B5D9
:101200005C21044635F016F9204610BD0A4A0260FA
:101210001F210022C0E90921C0E90B228286C0E912
:101220000E220264A0F8442080F84620C0E9122271
:10123000C0E91522704700BF2C2605008B6A836227
:10124000CB6AC3620B6B036391F8343080F834309F
:1012500091F8353080F835308B6B8363CB6BC3638B
:101260000B6C0364B1F84430A0F8443091F8463078
:1012700080F846308B6C8364CB6CC364B1F850301B
:10128000A0F850304B6D43658B6D8365704708B592
:10129000FFF7D4FF08BD70B5054686B068460E4618
:1012A00003F07CFBEC6C6846002CCCBF02340024BD
:1012B00003F0B3FB0230241AA86A241808D4AC62E5
:1012C000AE64684603F0A9FBE864012006B070BD77
:1012D0000020FBE710B5036C1BB190F8464084B9C1
:1012E0000233941C1B1B846A1B1958BFC0E90F12E0
:1012F0004FF000045BBF80F8464083622046012027
:1013000010BD0433EDE730B5046C1CB190F84650C5
:101310008DB902341D1D641B856A64195FBFC0E965
:101320000F230123A0F8441080F8463056BF846292
:101330000020184630BD0434ECE730B5846D002C35
:10134000CCBF043400241D1D641B856A64195DBF75
:10135000C0E91523A0F850108462002058BF012076
:1013600030BD70B50546806B0E4688B1047814B167
:1013700040F04CFD841C304640F048FD0230241AF9
:10138000A86A24185DBFAC62AE630120002070BD66
:101390000446F0E790F83530826A002B0CBF6FF0FE
:1013A000020300239B185FBF8362012380F835305E
:1013B00080F8341054BF184600207047043070473E
:1013C000406A704790F83500704738B50446406A67
:1013D000C0F11F039342154608DB0430204440F05F
:1013E00011FB626A2A446262012038BD0020FCE7DA
:1013F00070B50446406A0E461D4611460233C0F1E0
:101400001F029A420FDB23186A1C1A71821C0630D5
:10141000626220445E712A4640F0F4FA636A2B440B
:101420006362012070BD0020FCE770B586B0054600
:10143000684603F0B3FA684603F0EFFA0228044660
:101440006846CCBF0626022603F0E5FA234602468C
:1014500031462846FFF7CCFF06B070BD13460A465A
:10146000FF21FFF7C5BF30B589B0054610461C46C1
:10147000ADF800101A4601460DF1020040F0C2FA24
:10148000A31C6A46FF212846FFF7B2FF09B030BD12
:1014900030B589B0054610461C46ADF800101A4616
:1014A00001460DF1020040F0ADFAA31C6A46162178
:1014B0002846FFF79DFF09B030BD07B501238DF821
:1014C00007100DF107021946FFF792FF03B05DF810
:1014D00004FB70B5054610460E46144640F096FCD7
:1014E0002246034631462846BDE87040FFF780BFDC
:1014F00070B5054608460C4640F088FC1D2807D903
:10150000224628461D230821BDE87040FFF770BF22
:10151000224628460921BDE87040FFF7DABF38B5FA
:10152000C16A00230546436229B1026B1AB1BDE8C6
:101530003840FFF74ABF95F835307BB395F8341043
:101540002846FFF7BAFF0446A96C21B12846FFF7E9
:101550006CFF0440E4B2E96B61B12B6C53B195F8B8
:101560004620EAB10A462846B5F84410FFF77BFF4B
:101570000440E4B26A6D42B1AB6D33B1B5F85010BE
:101580002846FFF785FF0440E4B2A96B21B1284645
:10159000FFF7AEFF0440E4B2204638BD0124D3E794
:1015A0001A462846FFF75AFFE2E700000C4B10B539
:1015B00004460360406838B100F0F2FA20B9606870
:1015C00010B103685B689847A06838B101F067F80C
:1015D00020B9A06810B103685B689847204610BD29
:1015E0003C26050010B50446FFF7E0FF20460C211D
:1015F00034F020FF204610BD064B10B5C0E9003185
:1016000000230446836011B1084600F0C4FA204666
:1016100010BD00BF3C260500064B10B5036000233B
:101620000446C0E9013111B1084601F033F8204603
:1016300010BD00BF3C2605002DE9F34104465420AF
:1016400098460E46174634F0C3FE9DF820300093AE
:10165000054643463A46314600F080FB294620467F
:10166000FFF7CAFF204602B0BDE8F08138B5084B4D
:1016700003600446486860600D4608B100F08BFACC
:10168000A868A06008B101F005F8204638BD00BF89
:101690003C2605000346406808B100F089BA986806
:1016A00008B101F021B8704710B4446824B1204655
:1016B0005DF8044B00F088BA806818B15DF8044BFF
:1016C00001F018B85DF8044B7047FFF7EDBF4068B4
:1016D00008B100F0E6BA70474068704770B505463B
:1016E00040680C46164610B1C9B200F0DFFAA8688F
:1016F00028B13246E1B2BDE8704001F087B870BD54
:1017000008B5836823B1FFF7C5FFC0F3400008BDEB
:101710001846FCE7806808B101F048B87047F8B592
:10172000054640680E46174618B300F04BFAB8421B
:10173000A8BF38460446686800F042FA22460146CF
:10174000304640F05FF9A86888B101F027F890B9F9
:10175000A86800F0CDFF87423C46A8BF0446A868B1
:1017600000F0C4FF22460146304640F04BF92046C7
:10177000F8BD0446E7E72846FFF7C2FF0028E7D098
:101780002846FFF7C7FF0028E2D10446EFE7FFF73E
:10179000C6BF7047024B186803681B69184700BF33
:1017A000DC290500024B186803685B69184700BF15
:1017B000DC29050010B4054B01791B681A685469CF
:1017C000421D184623465DF8044B18473028050093
:1017D00010B50B4B0446186821790368621D9B6A9B
:1017E00098474FF6FF739842014606D0054B18689C
:1017F0000268BDE81040926A104794F94B0010BD92
:1018000030280500DC29050010B54C21044634F0D1
:1018100011FE204610BD000010B58AB04B7903932D
:101820008B790293CB7901930B7A009304464B7A20
:101830008A7A054905A835F015FB05A9204608F068
:10184000A7FD20460AB010BD4426050007B50023B9
:101850000622694605300093ADF8043040F0C4F824
:10186000003018BF012003B05DF804FB08B5027911
:101870000B799A4208D106220531053040F0B4F8C0
:10188000B0FA80F0400908BD0020FCE710B50A4B13
:101890000446186803681B699847236820461B6A3A
:1018A000984740B1054B217918680368621D5B6B4E
:1018B000BDE81040184710BDDC29050030280500A0
:1018C00008B502790B799A4208D106220531053014
:1018D00040F08AF8003018BF012008BD0120FCE765
:1018E000064A02607F210022C272027380F84B1008
:1018F000C0F80520A0F80920704700BF6C2605003D
:1019000010B501710021C1720173064C04607F2182
:1019100080F84B101168C0F805109288A0F80920D3
:1019200010BD00BF6C260500F8B50F4612490646EB
:1019300008F02EFD397B0024A1421ADD3B19A21CC0
:101940005D7B9B7B083B012B05F1FF350FD82946BA
:10195000304608F0F1FC0F343C440027BD4208DD5E
:1019600014F8011B304608F0C3FD0137F6E7AC1848
:10197000E2E73046F8BD00BF8C6005002DE9F04F6E
:1019800085B0884622490192834608F001FD002473
:10199000A14698F80C30A34235D908EB0403671C24
:1019A000FFB25E7B08EB07035B7B9A1E012A25D9F9
:1019B000063B012B24D8102505FB05F302340093C8
:1019C00058FA84F44FF0000A731EEAB2534517DD4B
:1019D000019989450CD1114604F10D00039302923F
:1019E00003F01EF80146584608F0FDFCDDE902232D
:1019F000009909F10109AA440C44E7E70225DBE755
:101A00003E44F4B2C5E7584605B0BDE8F08F00BFCC
:101A10008C60050010B500220446FFF7AFFF20469A
:101A200010BD08B5134602798A4208D1062219462C
:101A300005303FF0D9FFB0FA80F0400908BD002022
:101A4000FCE710B50446012000FA01F1E1722273AF
:101A5000194604F10D003FF0D5FF9DF9083084F8D8
:101A60004B3010BD70B50D461146C27A42F01002DF
:101A70000446C272007B0D302A4620441E463FF0C9
:101A8000C1FF237B84F84B601D44257370BDC37A6E
:101A900013F0180F14BF0120002070470C4B10B535
:101AA00004460360406838B100F07AF820B96068F5
:101AB00010B103685B689847A06838B100F0EFFD8B
:101AC00020B9A06810B103685B689847204610BD34
:101AD000A026050010B50446FFF7E0FF20460C21C4
:101AE00034F0A8FC204610BD064B10B5C0E900310B
:101AF00000230446836011B1084600F04CF82046EC
:101B000010BD00BFA026050070B5044630200E466B
:101B100034F05EFC3146054600F0F6FC29462046CE
:101B2000FFF7E2FF204670BD0346406808B100F0B1
:101B300029B8986808B100F0ABBD0148704700BFF4
:101B40008C600500406808B100F01CBD704740681B
:101B5000704770470020704710B52021044634F0CC
:101B600069FC204610BD000010B5054B044640F846
:101B7000043B02F013FF0023E361204610BD00BFC9
:101B8000B0260500043002F044BF043002F043BF29
:101B9000043002F042BFC3690133C3611846704785
:101BA000C369013BC3611846704742F603007047A2
:101BB00090F82000704790F821007047406A704705
:101BC000806A7047808D7047F8B51546426AAA4210
:101BD000A8BF2A460446828592B2806A0E463FF02C
:101BE00011FF94F82E300BB1636AA38594F820306E
:101BF00098060DD5A28E91070AD51F4B218E186825
:101C000003685D6D0131A38DA26A89B2A847F8BD52
:101C1000DA0609D5A38EDB0706D5174B218E186887
:101C2000036801311D6DEEE794F832300BB90120E5
:101C3000EDE7124B1868036821465B6A9847104B22
:101C40001C68236801461F6B32462B462046B84766
:101C5000094B186803681B6B98470028E7D1094BAC
:101C6000186803689B6898470028E0D023682046DE
:101C70005B6D9847DBE700BF302805007C29050035
:101C8000EC2605003029050038B5054608460C4607
:101C900040F0BCF8214602462846BDE83840FFF730
:101CA00093BF808E003018BF0120704703299CBF6E
:101CB00000EB81004264704701867047008E7047D8
:101CC000008E013080B27047806B7047836B994201
:101CD00008D2C36B0022914202D05B680132FAE75E
:101CE000186870470020704730B5114B03600B79BE
:101CF00003710B4601F1490453F8052FC0F8052084
:101D00009B88A0F80930CB7AC3720B7B037300F178
:101D10000D0201F10D0353F8045B42F8045BA3428A
:101D2000F9D11B88138091F94B3080F84B3030BDCE
:101D30006C26050038B5044608200D4634F048FBF3
:101D40000023C0E9005363682BB960602368A0607A
:101D50000133236038BDA3685860F7E770B50446C7
:101D60001D461646FFF700FFB5F5007F194B2360AF
:101D70002B46A8BF4FF40073002163629DF810301A
:101D80002684A18584F82E302163A186C4E90E1132
:101D90002164102204F144003FF042FE16F0300F9F
:101DA00011D02C2034F014FB0B490646022304F119
:101DB000340200F0D7F83046FFF7EDFE314604F16B
:101DC0003800FFF7B7FF28463FF0FEFDA06220462F
:101DD00070BD00BFCC260500BC26050070B50446CA
:101DE000406800252368AB4206D94668082134F0D4
:101DF00021FB01353046F5E70023C4E90033A36039
:101E000070BD0000154B70B5044603600025A36B40
:101E10009D4212D2E36B0022954202D05B680132F0
:101E2000FAE71E683046FFF7BBFE20B91EB13368E3
:101E300030465B6898470135E9E704F138052846E4
:101E4000FFF7CCFFA06A08B13FF0C6FD2846FFF7B8
:101E5000C5FF2046FFF77DFE204670BDCC2605005D
:101E600010B50446FFF7CEFF2046542134F0E2FAC5
:101E7000204610BDF0B5C56C97B0044617461E4607
:101E80007DB103A8FFF730FF21466846FFF7B4FB9A
:101E9000694603A8A8476846FFF788FB03A8FFF731
:101EA00078FCA16A1C9A394430463FF0ABFD17B06C
:101EB000F0BD70B504460E461146012280F833206D
:101EC00096B01A46FFF780FE256D85B1314603A80E
:101ED000FFF70AFF21466846FFF78EFB694603A815
:101EE000A8476846FFF762FB03A8FFF752FC16B04D
:101EF00070BD30B5838E02F00302934297B0044662
:101F000017D08286002A0CBF442240220244556822
:101F10007DB103A8FFF7E8FE21466846FFF76CFB9A
:101F2000694603A8A8476846FFF740FB03A8FFF7E8
:101F300030FC17B030BD4FF42450704710B5034B40
:101F400003600446FFF705FE204610BDE0260500AD
:101F500010B50446FFF7F2FF20462C2134F06AFA50
:101F6000204610BD70B504461D461646FFF7FCFD21
:101F7000064B2360B5F5007FA8BF4FF40075002322
:101F8000266265622385204670BD00BFE0260500FD
:101F9000406A7047006A704701857047064B1868B1
:101FA000036810B5DB689847044B18680368BDE800
:101FB0001040DB68184700BF7C290500DC290500BC
:101FC000024B186803681B69184700BFDC2905002D
:101FD000024B186803685B69184700BFDC290500DD
:101FE00010B5064B186803681B699847044B1868BE
:101FF0000368BDE810401B6B184700BFDC290500D3
:102000003028050010B5064B186803681B6998470F
:10201000044B18680368BDE81040DB6B184700BF2D
:10202000DC29050030280500024B186803689B6C0A
:10203000184700BF302805000C30704768307047E3
:10204000024B186803681B69184700BF7C2905000C
:10205000024B186803685B69184700BF7C290500BC
:10206000024B186803689B69184700BF7C2905006C
:10207000024B186803681B69184700BF3029050028
:10208000024B186803685B69184700BF30290500D8
:10209000024B186803685B6A184700BF30290500C7
:1020A00010B5074B0446186803681B699847054B31
:1020B00019680B682046DB6C9847204610BD00BFAE
:1020C000DC2905003028050010B5074B04461868C8
:1020D00003681B699847054B19680B6820469B6A83
:1020E0009847204610BD00BFDC29050030290500B7
:1020F000024B18680368DB6A184700BF30290500E7
:10210000024B186803689B69184700BF242C050020
:10211000024B18680368DB69184700BF242C0500D0
:10212000024B186803681B6B184700BF3029050075
:10213000024B18680368DB68184700BF30280500A9
:10214000024B186803681B6A184700BF242C05005F
:10215000024B186803685B6A184700BF242C05000F
:10216000024B1B68C3F8F010704700BFDC29050064
:10217000024B1B68C3F8F810704700BFDC2905004C
:10218000024B1B68C3F8F410704700BFDC29050040
:10219000024B1B68C3F8EC10704700BFDC29050038
:1021A000024B1B68C3F8FC10704700BFDC29050018
:1021B000024B1B68C3F80011704700BFDC29050003
:1021C000024B18680368D3F89C301847DC290500D7
:1021D000024B18680368D3F8A0301847DC290500C3
:1021E000F0B52A4B1D682B6887B004469B682846CB
:1021F0009847064620B923682046DB6898470DE0DB
:10220000642008F09FFA2B6828469B699847064689
:1022100038B123682046DB6898470026304607B06F
:10222000F0BD05AA2B6801920DF112020092DF6940
:1022300004AA0DF10E030DF10D012846B847002840
:10224000D9D12B684FF0FF32D96A28466FF040434E
:1022500088470028CFD12B6840F2FF32196B2846FF
:102260000023884706460028D3D12B680DF10F02C2
:102270005B6B0DF11601284698470028BBD1044B33
:10228000186803689B6898470126C7E7DC290500A2
:102290007C29050010B58CB000230593ADF81830EB
:1022A000104B04461868036805A91B6A98479DF8F7
:1022B000143003939DF8153002939DF81630019366
:1022C0009DF8173000939DF819209DF818300649A5
:1022D00007A834F0C7FD07A9204608F059F82046A2
:1022E0000CB010BDDC290500442605000C30FEF7BB
:1022F000D2BF70B50368044608469D6AFFF714FC18
:102300002B4601462046BDE8704018470C30FFF7C9
:1023100014B80C30FEF7DEBF0C30FEF7F4BF6830A7
:10232000FFF71FB86830FEF7B2BF10B500F10C041C
:102330002046FEF7ACFF2046FFF744F828B92046B8
:102340000621BDE81040FFF725B810BD2DE9F74381
:1023500000F10C05044668342846FFF7E0F82046F3
:10236000FFF7DDF80E4B1E6833682846DF68FFF77D
:1023700025F880462846FFF723F805462046FFF754
:102380001DF881462046FFF71BF8C0B200904B466F
:10239000EAB241463046B84703B0BDE8F08300BF1B
:1023A000302905007FB5094B1C682368164601A833
:1023B0009D6908F00EF8324601A92046A847044658
:1023C00001A807F09AFF204604B070BD302905002F
:1023D0007FB5094B1C682368164601A8DD6907F024
:1023E000F8FF324601A92046A847044601A807F095
:1023F00084FF204604B070BD302905007FB5094B2D
:102400001C682368164601A81D6A07F0E2FF3246E1
:1024100001A92046A847044601A807F06EFF204600
:1024200004B070BD3029050002290BBF044B054BD9
:10243000186818680BBF036803685B6B9B6D1847CF
:10244000302905003028050038B50446084B44F80B
:102450000C3B05462046FEF7D9FE05F16800FEF765
:10246000D5FE06212046FEF795FF284638BD00BF61
:10247000F826050010B5054C2046FFF7E5FF20467D
:10248000034A0449BDE8104033F0B5BD44100020B4
:10249000E00000209924010010B5064B044640F8E6
:1024A000683BFEF7ABFE04F10C00FEF7A7FE2046EA
:1024B00010BD00BFF826050010B50446FFF7ECFF7D
:1024C0002046C42133F0B6FF204610BD10B50B4B9B
:1024D00019680B6894B001A8DB6C984701A8FFF756
:1024E000B5F948B101A8FFF773F9044601A8FFF751
:1024F00050F9204614B010BD7F24F7E730280500BE
:102500004FF420507047000010B50446FFF72CFB35
:10251000044B23600023C4E90833C4E90A3320468E
:1025200010BD00BFC4270500018442847047008CA1
:102530007047408C7047406A7047436A994208D29E
:10254000836A0022914202D05B680132FAE7186880
:1025500070470020704738B5044608460D46FFF71F
:102560001AFB082033F034FF0023C0E90053A36AAC
:102570002BB9A062636AE0620133636238BDE36A2B
:102580005860F7E710B504460846FFF7A5F801467E
:1025900020B12046BDE81040FFF7DDBF10BD70B58B
:1025A0000446406800252368AB4206D946680821E6
:1025B00033F040FF01353046F5E70023C4E900332E
:1025C000A36070BD10B504462430FFF7E8FF002378
:1025D000236210BD134B70B5044603600025636A87
:1025E0009D4212D2A36A0022954202D05B6801325A
:1025F000FAE71E683046FFF7D3FA20B91EB13368F8
:1026000030465B6898470135E9E72046FFF7DAFF77
:1026100004F12400FFF7C3FF2046FFF79AFA204693
:1026200070BD00BFC427050010B50446FFF7D2FFF8
:102630002046302133F0FEFE204610BD10B5044B7D
:10264000044640F8043B07F058FE204610BD00BF8A
:10265000D827050010B50446FFF7F0FF20461421E7
:1026600033F0E8FE204610BD38B504462546074B3A
:1026700045F8043B0846114602F0D2F901462846C7
:1026800007F086FE00232361204638BDD8270500C9
:102690004068704703690133036118467047036956
:1026A000013B03611846704738B504461D46FFF7E5
:1026B000DBFF0C4B2360BDF81030E382BDF8143013
:1026C0002383BDF8183063834FF480720023A58202
:1026D000C4E90733A284C4E90A33C4E90C332046B1
:1026E00038BD00BFE8270500007E7047C06970470D
:1026F000006A70472DE9F0439846274B1E683368FF
:1027000085B004460F469B6B818A304691469847B8
:1027100018B9002005B0BDE8F0833368A18A5B6C6E
:1027200030469847033885B24D45A8BF4D462946E7
:10273000E0693FF07FFAE0610028EAD0237E1A07C3
:102740001CD5B8F1000F19D003AA33680192EAB280
:102750000092D3F86080628BA18A3B463046C04726
:102760000028D7D09DF80C30012BD2D02A4639460C
:10277000E0693FF047F925620120CBE75B07C8D548
:102780003368A18AEAB20092D3F86480628B3B4638
:102790003046C047EAE700BF302805000346012263
:1027A00090F8250083F8252070470000F0B5154B00
:1027B000818A1E683368C1B004469B6B30469847D7
:1027C000054648B13368628BDF6DA18A6B4630469F
:1027D000B84720B900252562284641B0F0BD9DF8D4
:1027E0000030012BF6D0411E2162E0693FF022FA51
:1027F000E0610028EED0226A0DF101013FF002F9FC
:10280000EAE700BF30280500408B7047032908BF66
:102810004263704738B5044608460D46FFF73AFF55
:10282000082033F0D5FD0023C0E90053E36A2BB93B
:10283000E062A36A20630133A36238BD236B586052
:10284000F7E770B50446406800252368AB4206D917
:102850004668082133F0EEFD01353046F5E70023E8
:10286000C4E90033A36070BD03688B4208D9436894
:1028700000228A4202D05B680132FAE7186870478A
:1028800000207047F8B50546134B45F8283B044631
:102890000026A36A9E420ED231462846FFF7E4FF87
:1028A0000746FFF7FCFE20B91FB13B6838465B685E
:1028B00098470136EDE72846FFF7C3FFE06918B1F6
:1028C0003FF08AF80023E3612846FFF7BAFF20466D
:1028D000FFF7B4FE2046F8BDE827050010B5044612
:1028E000FFF7D0FF2046382133F0A4FD204610BD6D
:1028F00070B50446036296B00D46C0691946164687
:102900003FF098F9E06110B9206216B070BD012364
:102910003146A384226A3FF075F8666B002EF4D02E
:10292000194B03932B798DF810302B4605F1490193
:1029300053F8052FCDF811209B88ADF81530EB7AB0
:102940008DF817302B7B8DF818300DF1190205F139
:102950000D0353F8040B42F8040B8B42F9D11B888A
:10296000138095F84B308DF8573021466846FEF7B6
:1029700053FE694603A8B0476846FEF717FE03A852
:10298000FEF707FFC1E700BF6C260500074B10B537
:1029900004460360806918B13FF01EF80023A3616C
:1029A0002046FFF74BFE204610BD00BFF82705006C
:1029B00010B50446FFF7EAFF2046202133F03AFD28
:1029C000204610BD38B504461D46FFF74DFE054BA9
:1029D0002360BDF81030E3820023A582C4E90633EA
:1029E000204638BDF8270500034A02600022C0E9EE
:1029F0000122C260704700BF0828050038B50446B0
:102A000008460D46FFF746FE082033F0E1FC0023A0
:102A1000C0E90053A3682BB9A0606368E06001338C
:102A2000636038BDE3685860F7E740687047436803
:102A3000994208D283680022914202D05B68013239
:102A4000FAE7186870470020704770B50446406880
:102A500000252368AB4206D94668082133F0EAFC1A
:102A600001353046F5E70023C4E90033A36070BDAB
:102A700070B50646002473689C4212D2B3680022E7
:102A8000944202D05B680132FAE71D682846FFF7DE
:102A900006FE20B91DB12B6828465B6898470134B3
:102AA000E9E7301DFFF7D1FF70BD000038B50446DF
:102AB000054B44F8043B0546FFF7DAFF2046FFF7D5
:102AC000C4FF284638BD00BF0828050010B50446DD
:102AD000FFF7ECFF2046102133F0ACFC204610BD80
:102AE00038B504461D46FFF7BFFD084B2360BDF80F
:102AF0001030E382A582064904F1180007F048FC73
:102B00000023C4E90933E362204638BD18280500D4
:102B10008C600500808A7047C08A7047406A7047A1
:102B2000436A994208D2836A0022914202D05B68CC
:102B30000132FAE7186870470020704738B504463C
:102B400008460D46FFF7A6FD082033F041FC0023A0
:102B5000C0E90053A36A2BB9A062636AE062013343
:102B6000636238BDE36A5860F7E770B504464068B1
:102B700000252368AB4206D94668082133F05AFC89
:102B800001353046F5E70023C4E90033A36070BD8A
:102B9000154B70B5044603600025636A9D4212D24E
:102BA000A36A0022954202D05B680132FAE71E68F0
:102BB0003046FFF774FD20B91EB1336830465B68BC
:102BC00098470135E9E704F124052846FFF7CDFFD2
:102BD0002846FFF7CAFF04F1180007F08EFB2046D5
:102BE000FFF72CFD204670BD1828050010B50446DF
:102BF000FFF7CEFF2046302133F01CFC204610BDED
:102C0000A0F8A8107047C0F8AC1070472DE9FF413C
:102C1000013A13F8014BD6B20268CDE90233526C87
:102C200005460F4690470C2C02462968029B79D036
:102C30002FD8052C69D01AD8022C60D00BD8012CC3
:102C400053D006230093D1F8DC6000232246394696
:102C50002846B0476EE0032C54D0042CF1D10093E9
:102C6000D1F89440334639462846A04762E0092C03
:102C700052D007D8062C4BD0082CE2D10093D1F8C3
:102C8000A440EFE70A2C4DD00B2CDAD1D1F8B44098
:102C90002DE0162C51D00FD8112C40D005D8102C77
:102CA000CFD10093D1F8B840DCE7122C18D0132C08
:102CB000C7D1D1F8C8401AE01D2C04D00CD8182C6C
:102CC0003FD01B2CBDD10093D1F8D480334622468F
:102CD00039462846C0472DE01E2C36D0522CB0D1A4
:102CE000CDE90063D1F8C46020E0D1F884403246D9
:102CF00039462846A44604B0BDE8F0416047D1F803
:102D00008840F4E7D1F89040F1E7D1F89C40EEE735
:102D10000093D1F8A040A5E7D1F8AC40E7E7D1F89F
:102D2000C040E4E7CDE90063D1F8B06023463946FE
:102D30002846B04704B0BDE8F0810093D1F8CC40FC
:102D400090E70093D1F8D0408CE7D1F8D840CEE797
:102D5000B0F8B0004FF6FF73C01A18BF01207047DB
:102D600008B503689B6A98474FF6FF73C01A18BFEF
:102D7000012008BD38B5064B0546186803681B6975
:102D80000C469847B5F8B000031B5842584138BD6F
:102D9000DC29050090F8C800C0097047B0F8B030D1
:102DA0008B4206BF90F8C800C00900207047B0F8F9
:102DB000B0308B420CBFB0F8C000172070471FB571
:102DC000ADF80D200268009302248DF80C40032317
:102DD000D2F8F04003AAA04704B010BD1FB5ADF86B
:102DE0000920ADF80B30069A0368009204248DF890
:102DF000084002AAD3F8F0400523A04704B010BD54
:102E00001FB5ADF80B30BDF81830ADF80920ADF89E
:102E10000D30079A0368009210248DF8084002AA2A
:102E2000D3F8F0400723A04704B010BD1FB5ADF89C
:102E30000B30BDF81830ADF80920ADF80D30079A09
:102E40000368009208248DF8084002AAD3F8F040E5
:102E50000723A04704B010BD012380F8CC30704791
:102E60001FB5ADF80A309DF818308DF80C30084BBE
:102E70008DF8092001208DF80800186802AA03685F
:102E80000092D3F8944004220523A04704B010BD5B
:102E9000DC29050001299CBF00EB8100C0F8E4207B
:102EA00070471FB5ADF80D20026800930A248DF815
:102EB0000C400323D2F8F04003AAA04704B010BD91
:102EC000B0F8B0308B4206BF80F8C8200120002047
:102ED0007047000038B5B0F8B0104FF6FF75A94242
:102EE00004461ED0104B18680368D3F898309847F2
:102EF000B8B9C4F8B400A4F8B800C4F8BA00A4F88B
:102F0000BE00D4F8C400C4F8B0501723A4F8C030F1
:102F100010B103685B6898470023C4F8C4300120EF
:102F200038BD0020FCE700BFDC29050010B5054BCB
:102F300003600446D0F8D00008B13EF04DFD2046B5
:102F400010BD00BF3C28050010B50446FFF7EEFF9A
:102F50002046EC2133F06EFA204610BD2DE9F043F7
:102F60001D4B1D688BB006230F460421002490469C
:102F70002A680097CDE90713C821CDE905410C2146
:102F8000CDE90331CDE901840646D2F854902346B9
:102F9000302260212846C847D8B907F0C1FB044653
:102FA00007F0BEFBD6F8AC30001B98422B680DD260
:102FB0001B6928469847336842465B6B3946304662
:102FC00098470028ECD00BB0BDE8F083DB6D2846B5
:102FD00098470020F7E700BFDC290500F8B5036833
:102FE0009B6A044698474FF6FF73984206461ED0E8
:102FF000104B1D682B680146D3F898302846984737
:1030000007F08EFB074607F08BFBD4F8AC30C01BF3
:1030100098420CD22B6828461B6998472368314692
:103020009B6B204698470028EDD10120F8BD002079
:10303000FCE700BFDC2905002DE9F3410546089CAB
:10304000A5F8D8101078C5F8DC40013085F8DA0012
:10305000002085F8E0001948066830680092D0F832
:103060009480DBB2042230460F46C04724B307F0F9
:1030700057FB044607F054FBD5F8AC30001B9842D0
:1030800014D2336830461B6998472B6839469B6BCE
:103090002846984750B195F8E0000028EAD04FF64E
:1030A000FF73A5F8D83002B0BDE8F0814FF6FF738A
:1030B000A5F8D8300020F6E72046F4E7DC29050023
:1030C0002DE9F047994603689B6A044698474FF6F6
:1030D000FF739842064604D14FF000084046BDE811
:1030E000F08723680146D3F8E030204698478046B1
:1030F0000028F1D0B4F8B030B342EDD1D4F8C430E8
:103100003BB9102033F064F90546FFF76DFCC4F8B5
:10311000C450D4F8C450002DDED02846B9F1000FB9
:103120001DD1FFF7A5FC23682A46D3F8E470314689
:103130004B462046B8470028CED023682A46D3F80D
:10314000E8303146204698470028C5D023682A46F3
:1031500031462046D3F8EC30BDE8F0471847FFF77A
:1031600064FC002782465745DDDA39462846FFF7DA
:103170005EFCFFF78DFA49463EF0FCFD0028ADD01D
:103180000137F0E7F0B5C5B004469DF82851ADF819
:103190000D200F4612218DF80C102A4619460DF10C
:1031A0000F003EF02FFC23684B9A0092D3F8F0609A
:1031B00003AAEB1C39462046B04745B0F0BDF0B538
:1031C000C5B004469DF82851ADF80D200F46522198
:1031D0008DF80C102A4619460DF10F003EF012FC36
:1031E000236800220092D3F8F06003AAEB1C394652
:1031F0002046B04745B0F0BDB0F8B0308B4201BFBB
:103200001388A0F8C930937880F8CB300CBF012028
:1032100000207047B0F8B0308B4201BF50F8B43F87
:103220001360838893800CBF01200020704710B585
:10323000134690F8B3208A42044608D10622194664
:10324000B4303EF0D1FB10B9B4F8B00010BD4FF669
:10325000FF70FBE710B5134690F8B3208A4204468E
:1032600008D106221946B4303EF0BEFB10B9D4F89E
:10327000C40010BD0020FCE710B5B1F8B0204FF637
:10328000FF739A4204460BD091F8B230012B07D15C
:1032900001F1B40291F8B310FEF732FB204610BDE5
:1032A0002046FEF71DFBF9E798B5B0F8A820D31D1E
:1032B000EC46DB08ACEBC30300AF9D460368D3F8D4
:1032C0008C406B46A047003018BF0120BD4698BD1A
:1032D0002DE9F04182B0B0F8B0500C4611464FF6DF
:1032E000FF72954202AF6E4603D10020BD46BDE895
:1032F000F081B0F8C020D01DC008A6EBC000854604
:103300009BB2ADF80940D41EA4B29C4228BF1C4613
:103310001B208DF8080022460DF10B003EF072FBD9
:10332000084B18680DF108080268CDF80080E31C0E
:10333000DBB2D2F8944029460422A0470120B546CA
:10334000D4E700BFDC2905002DE9F04782B0B0F8D2
:10335000B0600C4611464FF6FF72964202AF05462A
:10336000E84603D10020BD46BDE8F087B0F8C02094
:10337000D01DC008A8EBC00085469BB2ADF809403F
:10338000D41EA4B29C4228BF1C461D2022468DF8A4
:1033900008000DF10B003EF035FB002385F8CC3022
:1033A000134BD3F800A00DF10809DAF80020CDF88E
:1033B0000090E31CDBB2D2F8944031460422504620
:1033C000A04705F1B40495F8CC306BB9DAF80030B9
:1033D00050461B6998472B6895F8B3105B6B2246E3
:1033E000284698470028EED10120C546BBE700BF1C
:1033F000DC2905002DE9F04F89B002AF042BFA60FB
:103400003A6CC7F808D0C7E9041014880AD00368DA
:1034100004220092D3F8DC502346A8471C37BD464F
:10342000BDE8F08FFB6807336A46DB08A2EBC303F5
:103430009D460DF1080805238DF80830002388F813
:103440000130484B013CD3F800A0A4B20225DAF8C1
:1034500000305046DB699847844258D23B6C5B8809
:10346000A34254D9DAF8003021461B6A50469847E7
:1034700003689B688346984742F6030301349842E9
:10348000A4B255D15846FEF71BFC231A59425941A4
:10349000DBF8003079609B685846984779680246A7
:1034A00011B9B0F5245F45D15846C7E90012FEF7BF
:1034B0006FFBD7E90012022806460CBF0123022346
:1034C00098F8010008B988F8013098F8010098428E
:1034D0001DD105F102091FFA89F928F8054008EB0A
:1034E000090311B9B2F5245F27D158467B60FEF776
:1034F0004CFB7B680146324618463EF083FA09EBE6
:103500000605ADB20236FB682E44B3429FDA022DA7
:103510001CD17A693B6C12681B880A210091D2F891
:10352000DC40D7E904100422A047D7F808D075E79B
:103530000021ADE702260123C2E7DBF80030584640
:103540009B689847043528F80900DAE7064B1868A5
:103550000368CDF80080D3F894403969EBB20422B7
:10356000A047E2E77C290500DC2905002DE9F04FA2
:1035700089B002AF052B3E6CC7F808D08346C7E977
:10358000032134880BD8036804220092D3F8DC505E
:1035900006222346A8471C37BD46BDE8F08FFA68CF
:1035A00007326946D208A1EBC202954607228DF880
:1035B0000820B288B2F5205F0DF1080A0DD0DBF8C3
:1035C000002033880A210091D2F8DC4039690622B4
:1035D0005846A047D7F808D0DDE7063B9BB27B6191
:1035E000274B013CD3F80090B31DA4B201257B60AA
:1035F000D9F800304846DB699847844232D2738854
:10360000A3422FD9D9F8003021461B6A4846984773
:1036100003689B6880469847B38883421BD1404625
:10362000FEF7B6FA7B69984215D14046FEF7ADFA2F
:103630007A6979683EF0D8F968B94046FEF777FFB5
:103640002AF805004046FEF774FFAB1C9BB2043518
:103650002AF80300ADB2FA68EB1C9A4202DD01348D
:10366000A4B2C5E7012DAAD0064B18680368CDF8AF
:1036700000A0D3F894403969EBB20422A047A9E72F
:103680007C290500DC2905002DE9F04F89B002AF47
:10369000062BBA603A6CC7F80CD081468B46158869
:1036A00004D19388A3F52053012B0FD9D9F800300A
:1036B00010220092D3F8DC402B4659464846A047DA
:1036C000D7F80CD01C37BD46BDE8F08FBB68073378
:1036D0006A46DB08A2EBC3039D4602AE11238DF8B8
:1036E000083000237370364B013DD3F800A0ADB213
:1036F0000224DAF800305046DB699847854247D209
:103700003B6C5B88AB4243D9DAF8003029461B6A30
:10371000504698473B6C02689B887B619268804664
:1037200090477B69834230D14046FEF731FA022848
:1037300003460CBF062314233B61737878610BB9F1
:103740003B69737073783A69934221D14046FEF722
:10375000EEFE30534046FEF7ECFEA31C9BB2043451
:10376000A4B2F052331940467B60FEF70EFA7B6834
:103770007A69014618463EF045F97B69BA681C44EF
:103780003B69A4B223449A4202DB0135ADB2B0E7F3
:10379000022C09D13B6CD9F800201B880A2100912A
:1037A000D2F8DC40102288E7064B186803680096C0
:1037B000D3F894500422E3B25946A84780E700BFEB
:1037C0007C290500DC2905002DE9F04F89B002AF06
:1037D00091463A6CC7F808D0062BC7E90310158844
:1037E0000BD0036804220092D3F8DC4008222B4659
:1037F000A0471C37BD46BDE8F08F09F107036A46B4
:10380000DB08A2EBC3039D460DF1080809238DF8E0
:103810000830002388F801306D4B1B687B613B6CDE
:10382000013D0433ADB202247B607B6978691B687B
:10383000DB699847854280F083803B6C5B88AB42B4
:103840007ED97B6978691B6829461B6A984703689B
:103850009B68064698473B6C9B888342336805F11A
:10386000010A1FFA8AFA9B6830467AD1984742F6D5
:10387000030398423DD13046FEF722FA824535D007
:103880003046FEF785F998F80120022803460CBF60
:103890004FF0070B4FF0150B0AB988F801B098F8F4
:1038A00001203B605A454BD128F804A03046FEF772
:1038B0007FF9A21C92B2023508F80200E21C92B213
:1038C000304628F80250FEF760F905343B68A4B290
:1038D00008EB04051A46014628463EF093F83B687B
:1038E0001C44A4B2A344D9452ADB55460135ADB2E8
:1038F0009BE7336830469B68984742F6021398422C
:10390000F4D128F804A03046FEF742FB0234A4B2FA
:10391000A9EB040980B21FFA89F9814528BF8146C5
:10392000304608EB0405FEF735FB4A4601464C4499
:10393000284609F102093EF065F8A4B288F8019022
:10394000022C38D13A693B6C12681B880A2100911D
:10395000D2F8DC40D7E903100822A047D7F808D0F6
:1039600047E7984742F603039842BFD13046FEF737
:103970000FF902288346B9D13046FEF706F95A46B8
:10398000014678683EF030F80028AFD128F804A04E
:103990003046FEF717F90234A4B2A9EB04091FFA66
:1039A00089F980B2814528BF8146304608EB04057D
:1039B000FEF706F9B9E7074B18680368CDF80080F1
:1039C000D3F89450F968E3B20422A847C6E700BFD1
:1039D0007C290500DC2905002DE9F043012B97B077
:1039E000044602AF0E461546E8460BD00368042293
:1039F0000092D3F8DC4018220023A0475437BD467C
:103A0000BDE8F083B0F8CE1001B33B6F1B78DB0745
:103A10001CD51C4B1868036801391B6A9847B4F819
:103A2000B030B342814611D104F1B40294F8B3101E
:103A3000381DFDF765FF4846B4F8D430D4F8D020DF
:103A4000391DFEF736FA381DFDF7A3FE00230735B2
:103A5000A4F8CE30A4F8D430ED086B46A3EBC50330
:103A60009D4619238DF80830074B186802AA036891
:103A70000092D3F89440042201233146A047C54662
:103A8000BCE700BF7C290500DC2905002DE9F04FCB
:103A900087B002AF032B04460D467A601E46C7F876
:103AA0000CD00DD8036804220092D3F8DC40162213
:103AB0000023A047D7F80CD01437BD46BDE8F08FDF
:103AC000BB6B1B883B811FFA83F8BB6BB3F802B05A
:103AD0004B4BD3F80090D9F800304846DB69984743
:103AE00008F1FF318BB2834206D923680A22009283
:103AF000D3F8DC60434620E0D9F8003048461B6A22
:103B0000984703689B688146984742F603039842AA
:103B100002D023680B22EAE74846FEF7D1F8404579
:103B20008246F6D14846FEF743F803070AD42368D5
:103B300003210091D3F8DC60534616222946204623
:103B4000B047B7E7B4F8CE30E3B948463B60FEF77C
:103B500035F801468246D4F8D0003EF06BF83B6859
:103B60003A89A4F8CE20C4F8D000A4F8D430524644
:103B700019463DF055FFB4F8D4305B4507D02368B3
:103B80000722B4E75345F6D023680E21D1E7331F4F
:103B90005FFA83FA0BEB0A024846BA60FEF70EF8AA
:103BA000BA6880B28242EADCBB6BD4F8D0005246DD
:103BB000191D58443DF026FFB4F8D420B96B0AEB28
:103BC0000203A4F8D4307B6807336A46DB08A2EB13
:103BD000C3039D4617238DF8083032460DF10900C6
:103BE0003DF010FF074B186802AC02680094731C8C
:103BF000D2F89440DBB204222946A0475AE700BF1E
:103C00007C290500DC2905002DE9F04F99B0012B36
:103C10000546894602921C465AD9229B1F88B0F855
:103C2000B0308B4243D1D0F8C460002E3FD0304634
:103C3000FEF7FBFE4FF0000B8246D34537DA5946BC
:103C40003046FEF7F4FE8046FEF764FF874202D856
:103C50000BF1010BF1E74046FEF75EFF8742F7D814
:103C60004046FEF75BFF05F1B4038346002603934D
:103C7000023CB3451BDD31464046FEF751FF82460C
:103C8000FEF7C2FD874201D00136F2E7039A95F8AC
:103C9000B31005A8FDF734FE229A5046234602329F
:103CA00005A9FEF725FE05A8FDF773FDECE7029BCD
:103CB0001D2B0DD11E238DF81430074B186805AA53
:103CC00003680092D3F89440042201234946A04798
:103CD00019B0BDE8F08F00BFDC2905002DE9F04FD9
:103CE0008FB002AFC7E90021FB60B0F8A830F968D7
:103CF00007336A46DB08A2EBC30307F118059D46AC
:103D00008346284600F04AFE0DF108090124BD60F3
:103D1000DBF80030CDF804904FF420520092D3F835
:103D2000BC5079684FF6FF7322465846A8470546AF
:103D300020B199F80030112B04D001203437BD4652
:103D4000BDE8F08F99F801307B61A3F104080223EC
:103D50005FFA88F809F102063B614FF6FF7A3B698A
:103D6000AB4204DB4FF6FF739A45D1D0E5E7FB6821
:103D7000E3B9302032F02CFB3146728831F8043B35
:103D8000009204464246FEF7ABFE21463868FEF735
:103D900035FE7488D7E904320134A4B2002C1344F0
:103DA00008BF4FF0000A3B611644D8E7B86800F03E
:103DB00034FE4045EDD1B86800F02DFE4246014684
:103DC000301D3DF011FE0028D3D0E2E72DE9F04F81
:103DD0008DB0B0F8A83004AFC7E9042107336A46B4
:103DE000DB08A2EBC3039D4682463869FEF71DFE41
:103DF0000DF11009F8604FF00008FB6898454ADAA9
:103E000041463869FEF713FEB861FEF783FE0646A9
:103E1000B869FEF781FEB860DAF80030CDF804909A
:103E200042F603020092D3F8A8407969BB68324693
:103E30005046A047054678B399F80030092B27D1A2
:103E400099F80130FB61053BDBB27B6009F10204AC
:103E50004FF0020BAB45DFDA382032F0B9FAB4F894
:103E600003300293A37801932388009306467B696D
:103E70007A68611DFEF718FC3146B869FEF75EFEF0
:103E8000B4F80360FB690136B6B29B441C44E1E719
:103E900008F10108B1E701202437BD46BDE8F08FE5
:103EA0002DE9F04F8FB0B0F8A83002AF0733C7E963
:103EB0000421DB086A46A2EBC3039D4602AB82469F
:103EC0003869FB62FEF7B1FD4FF0000BF860FB684C
:103ED0009B456CDA59463869FEF7A9FD7862FEF712
:103EE0001BFEB860786AFEF719FE431E3862002692
:103EF0007B603B6A9E4257DA3146786AFEF710FED5
:103F00007B68F8619E4248D0711C786AFEF708FE13
:103F10000546F869FEF778FC013084B2002D3ED0EA
:103F20002846FEF771FCB862BB6AA3423AD3DAF8BE
:103F30000030FA6A0092D3F898507969BB6A224639
:103F40005046A847054698B3FB6A1B78052B29D134
:103F5000FB6A93F801904FEA8903BB61FB6A4FF05B
:103F6000020903F10208A945E1DA202032F030FA13
:103F70004146044631F8023B00937B690222FEF77A
:103F800021FD2146F869FEF745FCB8F80040BB6901
:103F90000134A4B299449844E5E70025B9E7BB6829
:103FA000BB62C1E70136A4E70BF1010B8FE70120EB
:103FB0003437BD46BDE8F08F30B5022A85B00D46D6
:103FC00009D0036804220092D3F8DC4002220023C7
:103FD000A04705B030BDB0F8A8201B889A4228BF82
:103FE0001A46B0F8B030ADF80D208B4208BFA0F8EB
:103FF000C020074A032310688DF80C30026803A91B
:104000000091D2F8944029460422A047E1E700BF7E
:10401000DC29050010B5B0F8B0308B420DD100F1AD
:10402000B401931D11F8014B03F801499342F9D1F2
:1040300090F8B3201A70012010BD0020FCE7042A7C
:1040400015D1B0F8D8208A4211D190F8DA20197829
:10405000013A8A420BD1D0F8DC2001211170D0F84E
:10406000DC201B68C2F80130052380F8E03070477F
:10407000022A18D1B0F8B0208A4204BF1A88A0F8EA
:10408000C020B0F8D8208A420DD190F8DA20032A57
:1040900009D1D0F8DC100A70D0F8DC101B88A1F828
:1040A000013080F8E0207047012A38B504461546F3
:1040B00013D9B0F8D80088420FD194F8DA00052857
:1040C0000BD1D4F8DC100870D4F8DC0019460130AC
:1040D00001353DF097FC84F8E05038BD012A38B531
:1040E0000446154613D9B0F8D80088420FD194F889
:1040F000DA0011280BD1D4F8DC100870D4F8DC00F9
:104100001946013001353DF07DFC84F8E05038BDA2
:1041100038B50446B0F8D800884215460FD194F857
:10412000DA100B290BD1D4F8DC000170D4F8DC00D4
:104130001946013001353DF065FC84F8E05038BD8A
:1041400038B5044615469AB1B0F8D80088420FD168
:1041500094F8DA0009280BD1D4F8DC100870D4F8F0
:10416000DC001946013001353DF04CFC84F8E0508C
:1041700038BD6AB9B0F8D8308B4209D190F8DA303E
:10418000132B01BFD0F8DC201370012380F8E0303E
:104190007047B0F8B0308B4201BF30F8C93F138090
:1041A000837893700020704710B5B0F8B0308B4220
:1041B0000AD100F1BA0100F1C0030C4611F8010B5D
:1041C00020B99942FAD110BD0020FCE723681360A2
:1041D000A38893800120F6E7F0B50446B0F8B0005C
:1041E00097B01E464FF6FF7398421C9D34D117239B
:1041F000A4F8B01084F8B220A4F8C03084F8B360FA
:104200002B68C4F8B430AB88A4F8B8306A1E0DF13E
:104210000903691D12F8010F03F801098A42F9D157
:104220000E4B1868036804F1BA07D3F890303A4689
:1042300001A9984718B9C4F8BA00A4F8BE00D4F888
:10424000E4404CB12A46314603A8FDF759FB03A8C8
:10425000A04703A8FDF79DFA17B0F0BDDC290500C3
:1042600070B5054690F8850094B0F8B1104B114C2C
:104270001868B4F84410036801391B6A984704F1C0
:104280004702064694F8461001A8FDF739FB94F85A
:104290004D3004F14E0201A93046FDF70AFE01A897
:1042A000FDF777FA002385F88530012014B070BD42
:1042B0007C290500081100202DE9F047B0F8B05026
:1042C0008D42A6B0044640F0A68000F1B40790F8F5
:1042D000B3103A466846FDF713FB4FF6FF739D4255
:1042E00050D04E4BDFF838911D68002642F6030887
:1042F0002B682846DB6998471FFA86FA50453CD957
:104300002B6851461B6A2846984703689B6882467B
:10431000984740452FD19DF804308DF85030DDF896
:104320000530CDF85130BDF80930ADF855309DF865
:104330000B308DF857309DF80C308DF85830CDF893
:104340004C900DF10D030DF159020DF1490153F897
:10435000040B42F8040B8B42F9D11B8813809DF8A3
:104360004B308DF897305046002213A9FDF7C1FD60
:1043700013A8FDF70EFA0136BAE70023A4F8CE30F1
:10438000A4F8D430D4F8E81061B3254B13939DF80A
:1043900004308DF85030DDF80530CDF85130BDF8DF
:1043A0000930ADF855309DF80B308DF857309DF839
:1043B0000C308DF858300DF159020DF10D030DF14F
:1043C000490053F8045B42F8045B8342F9D11B882F
:1043D00013809DF84B308DF8973013A8884713A8A9
:1043E000FDF7D7F94FF6FF73C4F8B0300023C4F8D7
:1043F000B430BB80D4F8C400C4F8C8301722A4F885
:10440000C02010B103685B6898470023C4F8C4302B
:104410006846FDF7BEF926B0BDE8F0877C290500A7
:104420006C2605001B4B70B5044640F8863B03F034
:1044300038F804F1870003F034F8174B04F19805BD
:1044400003F11006186859682A4603C20833B342BC
:104450001546F7D10023172241F288304FF6FF713D
:10446000C4E92B01A4F8A820A4F8CE30C4F8D030B9
:10447000A4F8D430C4F8B430A4F8B830A4F8C020FC
:10448000C4F8C43084F8C830C4F8E430C4F8E83064
:10449000204670BD3C2805002028050090F8C83053
:1044A0009B074CBFB0F8B00002207047B0F8B030A6
:1044B0008B420CBF90F8C800002070472DE9F04FE8
:1044C00099B002AF1D4697F880303A60012B044640
:1044D0000E467B600DD8122D07D10368042200928E
:1044E000D3F8DC402A460023A0475C37BD46BDE830
:1044F000F08FD7F88430B3F800807B4BD3F800A05E
:10450000DAF800305046DB69984708F1FF318BB28A
:1045100083420CD9122DE8D123680A220092D3F8E5
:10452000DC902A46434631462046C847DDE7DAF8A4
:10453000003050461B6A984703689B68814698473D
:1045400042F6030B584540F087804846FDF7B8FB1C
:104550008045484601D1122D5FD1FDF729FB0107A7
:1045600061D54846FDF727FB10F0020A10D031460E
:104570002046FFF79BFF03065BD423680F220092BF
:10458000D3F8DCA0122243462046D0474FF0010A60
:10459000B4F8B030B34229D17B6894F8B310023B31
:1045A0005FFA83FBD7F8843002337B6004F1B402F6
:1045B000BAF1000F40D0A4F8448084F84610116886
:1045C000C4F847109288A4F84B200A2284F885206A
:1045D00019465A4684F84DB004F14E003DF012FAE7
:1045E00094F885200BEB020384F88530122D7FF4BC
:1045F0007CAF3B6807336D46DB08A5EBC3039D46E4
:10460000132302AA8DF80830BAF1000F61D023718C
:10461000012384F88430AD4667E7FDF7C9FA420705
:104620007FF563AF9DE7122D7FF45FAF2368032210
:1046300074E74FF0000AABE707F10C00FDF760F9F3
:1046400048465B467A6807F10C01FDF732FC07F13A
:104650000C00FDF79EF8C9E7D9F8003048469B6882
:104660009847B0F5245FDED14846FDF791FA02285D
:10467000D9D14846FDF789FA028842F602139A42D8
:10468000D1D1DAF80030A8F102011B6A50469847F0
:1046900003689B68814698475845C4D1B4F8B03048
:1046A000B34213D104F1B40294F8B31007F10C0033
:1046B000FDF726F9D7F8843048465A8807F10C01EF
:1046C000FDF717FC07F10C00FDF763F84FF0000A47
:1046D0008CE7064B186803680092D3F894400422D4
:1046E00001233146A04796E77C290500DC29050017
:1046F0002DE9F04F9BB0984602AFB8F10A0F9346F0
:1047000004460E4697F88820D7F88C30C7F808D0B2
:104710000FD1022A17D0036804220092D3F8DC409C
:1047200042460023A047D7F808D06437BD46BDE80D
:10473000F08F042A07D0036804220092D3F8DC40EB
:104740000C220023EEE7B8F10A0FB3F800A018BF5F
:10475000B3F80290864B1D682B682846DB6908BFBA
:104760004FF0000998470AF1FF318BB2834207D915
:1047700023680A220092D3F8DC504246534624E0D4
:104780000BF107036A46DB08A2EBC3039D46B8F1B1
:104790000A0F6A460CBF0B230D2302F8083F2B6853
:1047A000FA601B6A2846984703689B680546984745
:1047B000B0F5205F2BD1B9F1000F0AD02368042295
:1047C0000092D3F8DC500B22534631462046A847CE
:1047D000A9E72846FDF7DCF980462846FDF7D5F91C
:1047E000424601460DF109003DF00CF908F10108BF
:1047F0001FFA88F85F4BFA68186803680092D3F8CC
:10480000944004225FFA88F33146A0478BE70BF10E
:10481000FF337B6042F60303984240F082802846D3
:10482000FDF74CFA50451ED1B9F1000F02D02368B4
:104830000B229FE72846FDF7BBF9FB685870284616
:10484000FDF73EFAFB6858802846FDF7A1F980463F
:104850002846FDF79AF94246014603A83DF0D2F8F2
:1048600008F10408C4E72846FDF7A2F9820702D43C
:10487000236802227EE72846FDF79DF910F0020B1F
:1048800010D031462046FFF711FE030613D42368EB
:104890000F220092D3F8DCB0424653462046D84758
:1048A0004FF0010B2846FDF78DF983B2994505D3EA
:1048B000236807225EE74FF0000BF3E7B4F8B0304F
:1048C000B3424FD17B6894F8B3101FFA80F8A8EB7D
:1048D00009089845A8BF984604F1B40207F11400EE
:1048E000FDF70EF81FFA88F30093FB684A46013380
:1048F00007F114012846FDF7BDFA07F11400FCF793
:1049000048FF08F101081FFA88F8BBF1000F3FF4D7
:1049100071AF4246F968201D3DF074F884F8848038
:1049200001E7B0F5245F20D12846FDF731FB83B2C3
:104930009945BDD27B681FFA80FBABEB090B9B4509
:104940002846A8BF9B46FDF725FB1FFA8BF200EB1C
:1049500009010BF1010B0DF109003DF053F81FFAAD
:104960008BF847E74FF00108CFE74FF0010841E728
:104970007C290500DC29050010B5054C2046FFF711
:1049800051FD2046034A0449BDE8104031F033BBD5
:1049900008110020E00000202D2F010073B5002534
:1049A00004460E4640F8041B10222946ADF8045078
:1049B0008DF806503DF034F825752EB330463DF0A5
:1049C00025FA451E002D237D19DB0F2B1FD8735DA3
:1049D0002D2B02D10135023DF4E77219002112F8A6
:1049E000012C8DF8042001A810228DF805303DF02F
:1049F0009BFA237DE218013310712375EBE7032B3B
:104A000034BF022310232375204602B070BD10234B
:104A1000F9E70068704704307047007D7047000078
:104A20002DE9F047144C80464D1E4FF4AA594FF023
:104A30002D0A6A1C1AD018F8057010222146380970
:104A400005F02CFE1022611C07F00F0005F026FE79
:104A50000C2D04F1020606DC29FA05F3DB0744BF3E
:104A6000E61C84F802A0013D3446E2E700232370EF
:104A70000148BDE8F08700BFF411002000797047BD
:104A80002DE9F04F89B090460DF1180B027A9DF890
:104A900048601F460023054689460693ABF804305C
:104AA000FAB99E4214BF4FF0020A4FF0030A2B6876
:104AB00028461B699847194BEA881C680021072083
:104AC00023680091CDE90301CDE9011B2046D3F80D
:104AD0003CB011465346D84728B1002009B0BDE884
:104AE000F08F9A46E3E723684A461B6C414620460E
:104AF00098470028F1D123683A465B6C314620463E
:104B000098470028E9D1236801219B6C20469847EB
:104B10000028E2D101202871E0E700BFDC29050070
:104B2000034B00210171186803689B6C184700BF94
:104B3000DC2905002DE9F341124B1D682B68012289
:104B40001B6D07460E4628460021002498472B6817
:104B5000CDE90044D3F84C8020231A460121284691
:104B6000C04768B9012179712B6886EA01021B6D83
:104B700028469847B0FA80F0400902B0BDE8F081BD
:104B80002046FAE7DC290500C180704701727047B2
:104B9000022908BFC260704770B50B4D04461C3037
:104BA000164605F007FC294604F1280005F01BFC19
:104BB000294604F1340005F016FC236831462046EE
:104BC0005B69BDE8704018478C6005002DE9F04135
:104BD0000C4D04460F461C302946164605F003FCD2
:104BE000394604F1280005F0E5FB294604F13400BC
:104BF00005F0F9FB2368314620465B69BDE8F041CA
:104C0000184700BF8C6005002DE9F0410C4D0446AB
:104C10000F461C302946164605F0E5FB294604F1EF
:104C2000280005F0E0FB394604F1340005F0C2FB32
:104C30002368314620465B69BDE8F041184700BF54
:104C40008C6005007FB5C36B04460D468BB10B68C5
:104C500001A89B69984701A904F1340005F08EFC76
:104C6000064601A805F049FB1EB90024204604B001
:104C700070BD636A73B1294601A8FCF755FE01A90E
:104C800004F11C0005F06DFC064601A805F035FB9B
:104C9000002EEAD0236B6BB1294601A8FCF7BAFEBF
:104CA00001A904F1280005F069FC044601A805F0FB
:104CB00024FBDBE70124D9E738B50F4B03604FF441
:104CC00020030E4D43600123037200230446C0E914
:104CD0000333C0E9053329461C3005F059FB29464A
:104CE00004F1280005F054FB294604F1340005F0D6
:104CF0004FFB204638BD00BF3C2905008C600500F5
:104D000003688B4208D9436800228A4202D05B685C
:104D10000132FAE7186870470020704770B5044602
:104D2000406800252368AB4206D94668082131F067
:104D300081FB01353046F5E70023C4E90033A36069
:104D400070BD000010B50A4B044640F8343B05F036
:104D5000D4FA04F1280005F0D0FA04F11C0005F0A3
:104D6000CCFA04F11000FFF7D9FF204610BD00BFB8
:104D70003C29050010B50446FFF7E4FF204640211A
:104D800031F058FB204610BD70B50E4B0546186833
:104D9000036800221B6D11460024984705F1100698
:104DA0006C712B699C4209D221463046FFF7A8FF5F
:104DB00010B103685B6898470134F2E73046FFF7AB
:104DC000ADFF70BDDC29050003688B4270B5044659
:104DD0001AD90022406813468A42456803D0034628
:104DE00001322846F8E7066863B96560A268824226
:104DF00008BFA360082131F01DFB2368013B23603D
:104E0000304670BD5D60F1E70026F9E72DE9F0411D
:104E1000074694B00D46002401F110082B699C420E
:104E20002AD221464046FFF76BFF0646FCF72FFECD
:104E300000B3314601A8FCF757FF21464046FFF773
:104E4000C3FF1EB1336830465B6898472B6801A9E1
:104E5000DB6B2846984750B101A93846FCF744FF60
:104E600001A8FCF796FC384614B0BDE8F08101A813
:104E7000FCF78FFC0134D1E73846FCF731FDF2E74F
:104E80002DE9F04FC568ABB004460F4692469B46ED
:104E90009DF8D0809DF9D8902DB3032922D11A46D0
:104EA000514604A8FCF72CFDCDF80090359B4246F6
:104EB000394604A8FCF7C5FD236804A9DB6B20462E
:104EC000984748B104A917A8E468FCF70DFF17A894
:104ED000A04717A8FCF75DFC04A8FCF75AFC2BB010
:104EE000BDE8F08F002504F110032269AA420DD914
:104EF000184629460393FFF703FF5A4651460646D4
:104F0000FCF78FFD039B002841D006BB23691F2BB4
:104F100008D9002104F11000FFF756FF10B1036813
:104F20005B6898474C2031F053FA5A465146064682
:104F3000FCF7E6FC082031F04BFA0023C0E90063DF
:104F4000636933BB60612569A0616B1C2361042F19
:104F500022D0CDF80090359B424639463046FCF7CA
:104F600070FD3046FCF793FD0028B8D0E368002BB5
:104F7000B5D0314604A8FCF7B7FE294604F110006D
:104F8000FFF722FF336830465B68984794E70135A6
:104F9000ABE7A3695860D6E74B46359A41463046A1
:104FA000FCF760FDDDE770B446799DF80C409DF993
:104FB000145026B10595039470BCFFF761BF70BC17
:104FC0007047000010B5054C2046FFF775FE2046DF
:104FD000034A0449BDE8104031F00DB81C1200200E
:104FE000E0000020454D0100406870474368994249
:104FF00008D283680022914202D05B680132FAE74E
:10500000186870470020704773B50446302031F0AF
:10501000DFF932490546FDF777FAE561542031F0B2
:10502000D7F900250646142302222D490095FCF7E6
:1050300095FE2662542031F0CBF902231A4606462B
:1050400028490095FCF78AFE6662302031F0C0F9ED
:1050500025490646FDF758FAA662542031F0B8F902
:1050600020220423214900950646FCF777FEE662DC
:10507000E069FCF790FD206AFCF78DFD606AFCF7A3
:105080008AFDA06AFCF787FDE06AFCF784FDD4E99D
:105090000701FDF760FA616AE069FDF75CFAD4E99F
:1050A0000A01FDF758FA236811491B692046984701
:1050B0002368294620465B69984723682046DB6AB7
:1050C00098472368E1699B6A204698472368A16A4C
:1050D0009B6A204602B0BDE8704018478029050051
:1050E000852905008A2905008F29050094290500D6
:1050F0009929050010B50446C069FCF751FD20B997
:10510000E06910B103685B689847206AFCF748FDC6
:1051100020B9206A10B103685B689847606AFCF7A1
:105120003FFD20B9606A10B103685B689847A06AC8
:10513000FCF736FD20B9A06A10B103685B68984798
:10514000E06AFCF72DFD20B9E06A10B103685B68E6
:10515000984723682046DB6ABDE810401847006A7C
:10516000FCF792BD07B50222ADF80610406A0DF1BA
:105170000601FCF729FD03B05DF804FB10B50446F9
:105180000846FCF7E4FC014628B1236820469B6AE8
:10519000BDE81040184710BD2DE9F0410025074635
:1051A00088462C463B683846DB699847A84211D9A7
:1051B0003B6829461B6A3846984703689B68064641
:1051C0009847B0F5205F02D0464503D0264601350A
:1051D0003446E7E720463CB1FCF7DAFC02282046DB
:1051E00004D1FCF7D2FC0088BDE8F081FCF7CDFCCF
:1051F0004089F9E7074A02600022C0E90122C0E9BC
:105200000322C0E90522C0E90722C0E90922C262DF
:10521000704700BFAC29050038B5044608200D468C
:1052200031F0D6F80023C0E9005363682BB9606001
:105230002368A0600133236038BDA3685860F7E796
:105240002DE9F84F04460D46084604F10408FCF722
:10525000A2FC29464046FFF7DFFF082031F0B8F8EE
:105260000023C0E900536369002B47D160612369C3
:10527000A0610133236123682046DB69984700273A
:105280001FFA80FB2846FDF756F9B8423BD939464C
:105290002846FDF752F90646FCF77DFC31464046AC
:1052A000FFF7BAFF23682046DB69984781B2304692
:1052B000FCF702FD3046FCF76EFC31464046FFF736
:1052C000ABFF4FF000093046FCF7FEFC484518D90B
:1052D00049463046FCF7FAFC8246FCF75CFC514636
:1052E0004046FFF799FF23682046DB69984781B263
:1052F0005046FCF751FE09F10109E4E7A369586043
:10530000B5E70137BEE723682046DB699847594671
:1053100082B22846BDE8F84FFDF706B970B50446DD
:10532000406800252368AB4206D94668082131F061
:1053300081F801353046F5E70023C4E90033A36066
:1053400070BD70B50446406800252368AB4206D99D
:105350004668082131F06EF801353046F5E7002344
:10536000C4E90033A36070BD38B50546064B45F867
:10537000103B0446FFF7BEFE2846FFF7E2FF201D64
:10538000FFF7CCFF204638BDAC29050010B5044618
:10539000FFF7EAFF2046302131F04CF8204610BDDF
:1053A00070B50446002523682046DB699847A8426B
:1053B0000FD9236829461B6A204698470646FCF702
:1053C000EFFB20B91EB1336830465B689847013562
:1053D000E9E7201DFFF7A2FF002523699D420BD2BC
:1053E00063690022954202D05B680132FAE71868CF
:1053F000FDF7E8F80135F0E704F11000FFF7A1FF31
:1054000070BD000008B5054B1846FFF7F3FE044ACF
:1054100004491846BDE8084030F0EDBD5C1200209C
:10542000E000002069530100704700000023C0F82D
:105430000831024B186803681B681847942B050055
:10544000024B186803685B68184700BF942B05007F
:10545000036800215B69184710B40368D3F8A440BF
:105460000023A4461A4640F603415DF8044B60470A
:1054700037B50368ADF80610D3F8A45002220DF139
:10548000060341F205410446A84750B9D4F8183242
:10549000BDF806201988914203D193F9020003B0A8
:1054A00030BD7F20FBE713B5CDE900230368082258
:1054B000D3F8A44040F601416B46A04702B010BDAE
:1054C00013B5CDE9002303680822D3F8A44042F2C3
:1054D00001016B46A04702B010BD10B40368D3F8B9
:1054E000A44006220B46A44642F205015DF8044B97
:1054F00060471FB5089C8DF804309DF818308DF872
:1055000005309DF81C308DF806302368CDF8073043
:10551000A388ADF80B309DF824308DF80D309DF840
:1055200028308DF80E300368ADF80010ADF8022079
:10553000D3F8A4400F226B4642F20601A04704B004
:1055400010BD13B503688DF80710D3F8A4400122ED
:105550000DF1070342F20A01A04702B010BD13B5D6
:10556000ADF803309DF810308DF805309DF81430FB
:105570008DF8063003688DF80010ADF80120D3F8DF
:10558000A44007226B4642F20B01A04702B010BDB7
:1055900013B503688DF804108DF80520D3F8A440E6
:1055A000022201AB42F20C01A04702B010BD10B5BF
:1055B00088B00B9C8DF808309DF828308DF80930A4
:1055C0002368CDF80A30A388ADF80E309DF830304E
:1055D0008DF81030BDF83430ADF81130BDF83830EA
:1055E000ADF81330BDF83C30ADF81530BDF84030A3
:1055F000ADF81730BDF84430ADF81930BDF848307B
:10560000ADF81B300368ADF80410ADF80620D3F8F0
:10561000A440192201AB42F20D01A04708B010BD11
:1056200010B40368D3F8A4400023A4461A4642F2FB
:105630000E015DF8044B60471FB5ADF80430BDF8AE
:105640001830ADF80630BDF81C30ADF80830042332
:10565000ADF80A300623ADF80C300368ADF8001041
:10566000ADF80220D3F8A4400E226B4642F213019B
:10567000A04704B010BD10B4D0F8EC402CB11946CE
:10568000104623465DF8044B18475DF8044B7047FD
:1056900007B503680122D3F888306946984703B0FC
:1056A0005DF804FB37B5002300930DF10504CDF838
:1056B00003304B1E053113F8015F04F801598B428A
:1056C000F9D103688DF80620D3F8A44007226B4671
:1056D00040F60D41A04703B030BD13B513238DF83C
:1056E00006300368ADF80410D3F8A440032201ABE0
:1056F00040F20641A04702B010BDC0F80411704747
:105700000023C0F80431704732B190F81D32934243
:10571000C6BF9A1AD2B2002280F81D22704710B478
:10572000D0F8F8300C4623B1204611465DF8044B02
:10573000184718465DF8044B704710B4D0F8EC30A9
:105740000C4623B1204611465DF8044B1847184615
:105750005DF8044B704710B4D0F8F4300C4623B118
:10576000204611465DF8044B184718465DF8044B77
:105770007047D0F8FC302BB1D0F80001003018BFD2
:10578000012070470320704710B54FF4487104465C
:1057900030F050FE204610BD2DE9F843424B044640
:1057A0001D6819B12B6828469B6898473F4E404FAB
:1057B000DFF800812B682846DB689847002870D006
:1057C0002B6828465B699847D4F80831B3F5817F88
:1057D0005FFA80F908D3D4F804010023C4F8083133
:1057E00010B1314604F040FCD4F808315A1C23446F
:1057F000C4F8082183F80C9194F80C31022B25D1C0
:10580000052AD7DD94F8101194F80F3103EB01232A
:1058100004339A42CEDDD4F8043143B12368D2B2C6
:10582000D3F8C090414604F586732046C84700234C
:10583000D4F80811C4F808312368D3F8B43001391A
:1058400004F20D12C9B220469847B3E7042B1CD1CD
:10585000032AAFDD94F80E3102339A42AADDD4F860
:10586000043143B12368D2B2D3F8C090394604F56D
:1058700086732046C8470023D4F80811C4F80831BD
:1058800023680139D3F8BC30DAE7D4F804010023E7
:10589000C4F8083100288DD01022494604F049FC94
:1058A00088E7BDE8F88300BF942B05008E2A050029
:1058B000B62A0500A32A0500F0B5154616885288B9
:1058C000AB88111F994287B004464FEA163609D0BB
:1058D000012E00F21E271DD000F20D1104323846B1
:1058E0003CF090F86A88AB88043A9A422DD1E88857
:1058F000298883B2042BC1F30B011CD1244B1868F7
:1059000003681D6A012ED2B20CBF04F2262304F2F2
:10591000151319E0B0F8200200F2222004F2111150
:1059200020443CF06FF86A88B4F820321344A4F89D
:1059300020323D46D6E7052B09D1164B186803687F
:10594000D2B2DD6804F21513A84707B0F0BD062BEC
:1059500004D1104B186803681D69D3E70022039235
:10596000ADF8142001228DF80C200622ADF80E208F
:10597000022203ABADF8102022680093ADF81200AC
:10598000D2F894500A2305222046A847DDE700BF3D
:1059900030280500242C0500F0B5202589B00446E8
:1059A0000E46174600212A4668463CF039F8324632
:1059B00039460DF101008DF800603CF023F82368B2
:1059C0002A46D3F8A46042F208016B462046B0474D
:1059D00009B0F0BDF0B5202589B004460E46174643
:1059E00000212A4668463CF01BF8324639460DF144
:1059F00001008DF800603CF005F823682A46D3F8D2
:105A0000A46042F209016B462046B04709B0F0BDE0
:105A1000F0B51D4603688BB016460F469B6F0446D3
:105A20009847731E8DF800700DF10602053613F8C5
:105A3000011F02F80119B342F9D1109B6A1E0DF142
:105A40001601013B0F3512F8010F01F80109AA42B6
:105A500013F8010F4874F6D11A491B4804F0EAFA0A
:105A600001226946194801F0BFFA1949164804F0A5
:105A7000E1FA06220DF10101144801F0B5FA1549C9
:105A8000114804F0D7FA10220DF107010F4801F078
:105A9000ABFA11490C4804F0CDFA0DF117011022B0
:105AA0000A4801F0A1FA23682722D3F8A45042F251
:105AB00027016B462046A84723682046DB6F98479E
:105AC0000BB0F0BD1A2A050024260020E81600209D
:105AD000272A0500342A0500412A05002DE9F04750
