:020000021000EC
:1000000000000120FDD4040035D5040079780400F7
:1000100039D50400857804008B78040000000000C6
:1000200000000000000000000000000029CD0100D9
:1000300041D5040000000000C3CD0100D3CD010074
:1000400047D50400F147040047D5040047D5040014
:1000500047D5040047D5040047D5040047D5040020
:1000600047D5040047D5040047D5040047D5040010
:1000700047D50400A503050047D5040051520400EC
:1000800047D5040047D5040047D5040047D50400F0
:1000900047D5040047D5040047D5040047D50400E0
:1000A00047D5040047D5040047D5040047D50400D0
:1000B00047D5040047D50400000000000000000000
:1000C00047D5040047D5040047D5040047D50400B0
:1000D00047D5040047D5040047D504000348044B26
:1000E000834202D0034B03B118477047F805002044
:1000F000F80500200000000005480649091A89108B
:1001000001EBD171491002D0034B03B1184770477E
:10011000F8050020F80500200000000010B5064C8E
:10012000237843B9FFF7DAFF044B13B10448AFF368
:1001300000800123237010BDF8050020000000009E
:10014000A897050008B5054B1BB105490548AFF355
:100150000080BDE80840FFF7CFBF00BF00000000EF
:10016000FC050020A8970500154B002B08BF134B7A
:100170009D46A3F5803A00218B460F461348144A4A
:10018000121A43F08DFE0F4B002B00D098470E4BF8
:10019000002B00D098470020002104000D000D48DE
:1001A000002802D00C4838F033F943F0C1FD20009C
:1001B00029000EF017FE38F028F900BF00000800F3
:1001C000000001200000000041ED0100F8050020C2
:1001D000D094002011840400000000007047704794
:1001E0007047704738B50024002506E0124BD3E96C
:1001F00000454FF4FA7039F02FF90F4BD3E9002383
:100200004EF660200021994208BF9042F1D20B497E
:1002100009780029EDD1AB4208BFA242E6D2074CD3
:10022000012323704FF47A7039F016F92378002BEC
:10023000DCD101222270D9E72009002034090020F6
:1002400030B587B005460C460B7C0B2B1CD1D1ED8D
:10025000037AF5EEC07AF1EE10FA0DDD0023CB60E3
:10026000F7EE007AF5EE407AF1EE10FA07D0154974
:1002700028460CF028FA21E0DFED137AF2E7134963
:1002800028460CF020FA19E0114968460CF01BFAD8
:100290000322E16803A80CF007FB03A968460CF0F1
:1002A0009CFA0C490CF0A6FA014628460CF02CFAF0
:1002B00003A80CF0B8F968460CF0B5F9284607B069
:1002C00030BD00BF304A050000000000DC590500C9
:1002D000404A0500504A050010B40C684A688B6813
:1002E0000460426083605DF8044B704710B50446BB
:1002F000024B036001F00EFD204610BD30470500A3
:1003000010B50446024B036001F004FD204610BD09
:100310003047050010B50446024B036001F0FAFCBB
:10032000204610BD2047050010B50446024B03606F
:1003300001F0F0FC204610BD2047050010B5044632
:10034000044B036001F0E6FC0C21204638F07AFAF9
:10035000204610BD3047050010B50446044B03602D
:1003600001F0D8FC0C21204638F06CFA204610BD74
:100370002047050010B50446024B03600BF000FC5B
:10038000204610BDE846050010B50446044B036046
:100390000BF0F6FB2021204638F054FA204610BD21
:1003A000E846050010B50446024B03600BF0E8FB7D
:1003B000204610BD0447050010B50446044B0360F9
:1003C0000BF0DEFB1421204638F03CFA204610BD2D
:1003D0000447050010B50446024B03600BF0D0FB48
:1003E000204610BDCC46050010B50446044B036002
:1003F0000BF0C6FB0C21204638F024FA204610BD35
:10040000CC46050008B5034608469A6803F10C017E
:100410000BF0C2FA08BD10B50C46037C826800F1EF
:100420000C0120460BF0ECFA10BD08B50B46811DFF
:1004300018460BF0A7FA08BD70B58CB004460E46FE
:100440008D1D204909A80CF03EF90A22B6F90610C4
:1004500006A80CF074F906A909A80CF0BEF91A490F
:100460000CF0C8F906460A22B5F9021003A80CF0F0
:1004700066F903A930460CF0B0F914490CF0BAF94A
:1004800006460A22B5F9041068460CF058F9694688
:1004900030460CF0A2F90E490CF0ACF901462046AA
:1004A0000CF032F968460CF0BEF803A80CF0BBF86B
:1004B00006A80CF0B8F809A80CF0B5F820460CB066
:1004C00070BD00BF544A0500684A0500704A050027
:1004D000504A050070B592B005460E4601F10C0475
:1004E0002E490FA80CF0EFF80322F1680CA80CF0CD
:1004F000DBF90CA90FA80CF070F929490CF07AF976
:1005000006460322616809A80CF0CEF909A9304615
:100510000CF063F923490CF06DF906460322A1683B
:1005200006A80CF0C1F906A930460CF056F91E4990
:100530000CF060F906460322E16803A80CF0B4F958
:1005400003A930460CF049F918490CF053F9064656
:100550000322216968460CF0A7F9694630460CF081
:100560003CF913490CF046F9014628460CF0CCF84A
:1005700068460CF058F803A80CF055F806A80CF0E3
:1005800052F809A80CF04FF80CA80CF04CF80FA882
:100590000CF049F8284612B070BD00BF004A0500B3
:1005A000684A0500704A0500184A0500204A0500FF
:1005B000504A050080B5D8B0A3E0074BD3ED037ACD
:1005C000F5EEC07AF1EE10FA04DD0022DA604FF0A9
:1005D0007E515EE100215CE184090020C24BD968B4
:1005E000032222A80CF060F922A91CA80CF0F5F84F
:1005F000BE4D014628460BF09FFE22A80CF013F8D2
:100600001CA80CF010F81FA80CF00DF8B84928A889
:100610000CF059F828A925A80CF076F8B54955A88A
:100620000CF051F8B44C0322E16852A80CF03CF9EC
:1006300052A955A80CF0D1F8B0490CF0DBF80646E9
:10064000032221694FA80CF02FF94FA930460CF076
:10065000C4F8AB490CF0CEF80646032261694CA8F9
:100660000CF022F94CA930460CF0B7F8A5490CF073
:10067000C1F806460322A16949A80CF015F949A959
:1006800030460CF0AAF8A0490CF0B4F80646032254
:10069000E16946A80CF008F946A930460CF09DF82F
:1006A0009A490CF0A7F801462BA80CF02DF846A8A3
:1006B0000BF0B9FF49A80BF0B6FF4CA80BF0B3FF45
:1006C0004FA80BF0B0FF52A80BF0ADFF55A80BF0F0
:1006D000AAFF2BA925A80CF080F8014628460BF0AC
:1006E0002BFE2BA80BF09FFF25A80BF09CFF28A842
:1006F0000BF099FF0CF0F2F90A22014628460BF0A4
:10070000B0FE4FF47A6038F0A7FE814904A80BF0E0
:10071000DAFF04A901A80BF0F7FFDFF810924946B1
:1007200043A80BF0D0FF7B4C0A22B4F9061040A876
:100730000CF005F840A943A80CF04FF8DFF8BC8195
:1007400041460CF057F805460A22B4F908103DA8B6
:100750000BF0F5FF3DA928460CF03FF8684F3946ED
:100760000CF048F805460A22B4F90A103AA80BF032
:10077000E6FF3AA928460CF030F8644E31460CF0FA
:1007800039F8014607A80BF0BFFF3AA80BF04BFF62
:100790003DA80BF048FF40A80BF045FF43A80BF025
:1007A00042FF07A901A80CF018F8504D0146284651
:1007B0000BF0C2FD07A80BF036FF01A80BF033FFCA
:1007C00004A80BF030FF54490DA80BF07CFF0DA9D5
:1007D0000AA80BF099FF494637A80BF074FF4F4C5D
:1007E0000A22B4F9061034A80BF0A9FF34A937A8DF
:1007F0000BF0F3FF41460BF0FDFF80460A22B4F9EF
:10080000081031A80BF09BFF31A940460BF0E5FF23
:1008100039460BF0EFFF07460A22B4F90A102EA85A
:100820000BF08DFF2EA938460BF0D7FF31460BF0A9
:10083000E1FF014610A80BF067FF2EA80BF0F3FEB6
:1008400031A80BF0F0FE34A80BF0EDFE37A80BF04A
:10085000EAFE10A90AA80BF0C0FF014628460BF0DB
:100860006BFD10A80BF0DFFE0AA80BF0DCFE0DA854
:100870000BF0D9FE2A4916A80BF025FF16A913A8DC
:100880000BF042FF274B1B7C0B2B3FF496AE254B06
:10089000D968032219A80CF007F819A913A80BF0BE
:1008A0009CFF014611480BF047FD19A80BF0BBFE59
:1008B00013A80BF0B8FE16A80BF0B5FE1A491FA836
:1008C0000BF001FF1FA91CA80BF01EFF064B1B7CA1
:1008D0000B2B7FF483AE044BD3ED037AF5EEC07A95
:1008E000F1EE10FA24E000BF380900207026002045
:1008F0007C470500004A050058090020684A0500A9
:10090000704A0500184A0500204A0500504A0500B3
:100910004447050004090020544705002809002029
:10092000604705008409002070470500544A05000F
:1009300004DD0022DA604FF07E5151E600214FE6DF
:10094000F0B583B004460D4616461F460A4B0360B9
:1009500000210161403038F06DFD04F1540038F0A1
:1009600009FD089B00933B4632462946204638F055
:10097000DFFD204603B0F0BD2C8E050038B50546DE
:100980000C460BF0A3F80C4B2B600023AB60EB6024
:10099000002300E001334E2B0CDC084A12F8332010
:1009A000A242F7D1054A02EBC3025168A96052780E
:1009B0002A74EFE7284638BD04470500884705003C
:1009C000012800D070474FF6FF739942FAD12DE904
:1009D000F04182B05B4E042130460BF077F8DFF82F
:1009E000D081C6F800800024F48034817481564D93
:1009F000564F2A463946304637F005FD544E0D21F4
:100A000030460BF063F8C6F80080F48034817481BE
:100A10002A463946304637F0F6FC4E4E80213046A5
:100A2000FFF7ACFF4C4F2A463946304637F0EBFC17
:100A30004A4E81213046FFF7A1FF2A46394630460B
:100A400037F0E1FC464E222130460BF03FF8454B93
:100A50003360454BB360F46034617461B461F46138
:100A60002A464249304637F0CEFC414E414B196888
:100A7000304601F023FC2A463F49304637F0C3FC9C
:100A80003E4E22223E4B1968304601F055FC2A4664
:100A90003C49304637F0B7FC3B4E22223B4B1968AD
:100AA000304601F067FC3A4F2A463946304637F067
:100AB000AAFC384E2222384B1968304601F05AFC05
:100AC0002A463946304637F09EFC344F0094234680
:100AD0004FF480621C213846FFF732FF304E2A4621
:100AE0003146384637F08FFC2E4F009423464FF4A2
:100AF00080621B213846FFF723FF2A4631463846DD
:100B000037F081FC284F009423464FF480621A216D
:100B10003846FFF715FF2A463146384637F073FC52
:100B2000224F009423464FF4806219213846FFF784
:100B300007FF2A463146384637F065FC02B0BDE86B
:100B4000F08100BF04090020E0000020D50301006F
:100B50002809002084090020A5030100380900208D
:100B600058090020E8460500D5FF7F3875030100CD
:100B700078090020EC000020512201009809002093
:100B8000F0000020290301004C090020E8000020AB
:100B90000103010010090020E400002048080020A3
:100BA00069960400D00600208C070020140600205F
:100BB000CC460500DFED127A07EE100A67EE277AC1
:100BC0009FED107AF4EEC77AF1EE10FA13D49FED90
:100BD0000E7AF4EEC77AF1EE10FA0EDC08B517EED5
:100BE000900A41F09BFB07EE900AFDEEE77A17EEC4
:100BF000903A18B208BD0548704747F6FF70704735
:100C00000000C842000000C700FEFF460080FFFF52
:100C100008B510A3D3E9002340F0BEFF0FA3D3E92A
:100C2000002341F0B5FB02460B460020084940F086
:100C3000D1FC05A3D3E9002340F084FE41F0E6F99E
:100C400008BD00BFAFF30080000000001AE950416A
:100C50000000F03F0000000000AA8F406C45D9CC96
:100C6000955BC83F38B5094D0121284600F053FD7A
:100C70004FF47A74204638F0EFFB0021284600F04C
:100C80004AFD204638F0E8FB38BD00BFA00F002029
:100C900000B583B0ADF80610012302220DF1060164
:100CA00001F0BCF803B05DF804FB00B583B001911E
:100CB000012304220DEB020101F0B0F803B05DF84E
:100CC00004FB000008B530E0314BD3ED037AF5EEBC
:100CD000C07AF1EE10FA04DD0022DA604FF07E50A7
:100CE0002FE000202DE02B4BD3ED037AF5EEC07AF8
:100CF000F1EE10FA04DD0022DA604FF07E502DE0B4
:100D000000202BE0224BD3ED037A9FED237A67EE90
:100D1000877AFCEEE77A17EE901A2048FFF7C5FFB6
:100D20001F4B19681F48FFF7C0FFC82038F094FB1D
:100D30001D4808F0DBF9164B1B7C0B2BC4D0144B61
:100D4000D86840F0A7FDFFF763FF154BC3E900012A
:100D5000104B1B7C0B2BC6D00E4BD868FFF72AFF1D
:100D600001461248FFF794FF094B1B7C0B2BC9D19E
:100D7000074BD3ED037AF5EEC07AF1EE10FA04DDFD
:100D80000022DA60F7EE007ABFE7DFED097ABCE710
:100D900038090020840900200000C8424C090020C6
:100DA0002009002010090020301700209809002099
:100DB0000000000008B50368984708BD08B5FFF7B4
:100DC000F9FF08BD08B5FFF7F9FF08BD08B5FFF743
:100DD000F9FF08BD10B50446044B036000F09AFF0C
:100DE0000C21204637F02EFD204610BD204705007F
:100DF00010B50446044B036000F08CFF0C21204624
:100E000037F020FD204610BD3047050008B54FF6ED
:100E1000FF710120FFF7D4FD08BD00002DE9F0416E
:100E200090B000F0BDFB524800F01BFD4FF4E131E3
:100E300050480BF029F84F480AF099FF0028FAD0E3
:100E40004D4901A80BF03FFC01A94A480BF074FA88
:100E500001A80BF0E8FB494B1C6823689B682046FF
:100E6000984720B9464943480BF070FAFEE7102234
:100E70000321444808F0EAF8434D0122294643483B
:100E80000AF064FE0122294641480AF05FFE012271
:100E9000294640480AF05AFE012229463E480AF0F7
:100EA00055FE012229463D480AF050FE02213048F5
:100EB00000F031FC2368DB6B394920469847DFF8A6
:100EC0000C81384D4146284601F018FA364F394614
:100ED000284601F013FA354E3146284601F00EFA45
:100EE00023681B6D29462046984700214046FFF79E
:100EF000CFFE00213846FFF7D8FE00213046FFF72D
:100F0000D4FE23685B6D20469847294B0793294BF5
:100F1000049300230593069304A9274838F014FB93
:100F2000079B13B19B6804A89847214B0B93234B55
:100F30000893002309930A9308A9214838F004FB79
:100F40000B9B13B19B6808A89847194B0F931D4B37
:100F50000C9300230D930E930CA91B4838F0F4FA60
:100F60000F9B13B19B680CA8984710B0BDE8F081A7
:100F7000A00F002070260020784A0500344C0500A0
:100F8000844A05003017002000007A44040900203C
:100F90002809002084090020580900203809002071
:100FA000984A0500780900204C090020100900200B
:100FB00038470500C50C010048080020E501010084
:100FC000D0060020B50501008C07002098090020FC
:100FD0000020704708B503681B68C9B2984708BD70
:100FE0004900C1610023C0F82C32704708B503687E
:100FF0001B6B0121984708BD10B503689C6B01234A
:10100000A04710BDD0F82C32B3F5807F07D05A1C12
:10101000C0F82C22184480F82C11012070470020C1
:1010200070477047C0F830127047C0F834127047EC
:1010300010B50446034B036000F50E7038F014FB46
:10104000204610BDF04A050038B5044603685B6AC7
:101050009847A82037F0C4FB054694F9192094F965
:10106000181034F04FFF656138BD38B50546144699
:10107000D0F82C321A44B2F5807F01D9C3F58074C0
:1010800005F596702246184442F0FCFED5F82C3245
:101090002344C5F82C32204638BD38B50446406993
:1010A00010B10368DB68984723695BB104F50E75DE
:1010B000284638F0B7FA284638F0FEFA4821206969
:1010C00037F0C0FB38BD38B504460D46406908B15D
:1010D00034F038FE206910B1294634F067FF38BD7E
:1010E00000B585B0D0F82C325BB181F001010091E0
:1010F00000F59672C169406934F036FE70B1022085
:1011000009E081F001010091012303AAC16940694E
:1011100034F04BFEC0B205B05DF804FB0020FAE7E6
:1011200030B488B004460D46694681E80C0003AA35
:1011300003C982E80900059508AA02E90900054BE0
:10114000E36012E9070084E80700204608B030BCDD
:10115000704700BFD04A050070B586B004460E4601
:1011600003685B6A9847482037F03AFB054694F9D4
:10117000192094F9181034F0FFFE256171002846FB
:1011800034F016FF0B4B04930023059306AB13E9D1
:101190000C0021466846FFF7C3FF694604F50E7050
:1011A00038F0D2F9039B13B19B686846984706B0A4
:1011B00070BD00BF61130100D0F80801704708B589
:1011C0002030FFF7F9FF08BDD0F808311BB1D0F887
:1011D0000431C05C70474FF0FF30704708B52030D5
:1011E000FFF7F2FF08BD0023C0F80031C0F804315A
:1011F000C0F80831704710B504464FF480720021E2
:1012000042F04EFE2046FFF7EEFF204610BD0000E4
:1012100070B582B00446002545604FF47A73836050
:10122000154B036005614561017642762030FFF77A
:10123000E2FFC4F82C52C4F83052C4F8345204F51A
:101240000E760E4BC4F83832C4F84852294604F5DD
:101250001E7038F0EFF804F5237038F08BF8084B67
:1012600000932B464FF400621821304638F060F9A5
:10127000204602B070BD00BFF04A05002C8E05006C
:10128000DC4A0500012800D070474FF6FF739942F1
:10129000FAD170B50C4C172216212046FFF7B8FF83
:1012A0000A4E0B4D32462946204637F0ACF8094C21
:1012B00010220F212046FFF7ABFF32462946204679
:1012C00037F0A1F870BD00BFA4090020E0000020A5
:1012D00031100100980C0020D0F80801C0F5807092
:1012E0007047D0F80801B0F5807F14BF00200120BE
:1012F00070470131C8B2704738B504460D46FFF754
:10130000F0FF70B9D4F80031E554D4F8001120464C
:10131000FFF7EFFFC4F80001D4F808310133C4F837
:10132000083138BD70B5C2B00646154683F00103DA
:101330000093134602AA4900406934F036FD50B9C3
:101340000024AC4208D202AB195D06F12000FFF781
:10135000D3FF0134F5E70025284642B070BD0000F8
:10136000F0B5BDB0064609E0D6F8343203B198476F
:10137000D6F82C2292B9306934F02DFE306934F061
:101380001EFE0328FAD801A353F820F0011401002F
:1013900069130100AF130100AF13010006F5967148
:1013A000306934F010FE0023C6F82C32E3E706F172
:1013B00020052846FFF717FFF0226946306934F010
:1013C00000FE07460024BC420CDA2846FFF784FFE3
:1013D00040B13CAB234413F8F01C2846FFF78CFFC8
:1013E0000134F0E72846FFF7E7FE0028C6DDD6F80F
:1013F0003042002CC2D02846FFF7DEFEA047BDE7F2
:101400000BF08EFBBAE700BF38B5D0F8083183B1D6
:101410000446D0F80431C55CD0F80411FFF769FF29
:10142000C4F80401D4F80831013BC4F80831284657
:1014300038BD4FF0FF30FBE710B500F12004204627
:10144000FFF7BAFE18B12046FFF7DEFF10BD4FF0E0
:10145000FF30FBE700B583B002AB03E90300019B5B
:1014600059101268501813F0010F04D1009B9847CF
:1014700003B05DF804FB5258009BD358F7E708B55A
:101480000A4603C8FFF7E6FF08BD08B5FFF7F7FFF8
:1014900008BD08B501460430FFF7F7FF08BD08B5E1
:1014A000FFF7F7FF08BD08B5FFF7F9FF08BD08B55E
:1014B000FFF7F9FF08BD08B54FF6FF710120FFF7F0
:1014C000E1FE08BD012800D070474FF6FF73994236
:1014D000FAD110B50C4B0422DA700C4C204637F0D0
:1014E00049FF0B4A0B49204636F08DFF0A4B01227B
:1014F0001A600A4B02221A60094B03221A60094B38
:1015000007221A6010BD00BFA00F0020A80F002006
:10151000E0000020F1930400940F0020900F0020C1
:101520008C0F0020980F002010B5094CE4230722EF
:101530006A21204600F0A0F907226A21204600F027
:10154000C5F9E42801D1012010BD0020FCE700BF4F
:10155000A40F002008B503226A21074800F0B6F95D
:10156000064B1B78984200D108BD03226A2102482D
:1015700000F082F9F8E700BFA40F0020A60F0020BA
:1015800008B5FFF7E7FF42F210700BF0B9FAF8E781
:1015900008B54FF6FF710120FFF794FF08BD00006A
:1015A00030B587B0012119200BF006FB01210A207C
:1015B0000BF002FB01210A200BF082FB2548FFF70C
:1015C00043FD03226A21244800F080F9234B187060
:1015D000234B1B78BFF35B8F13F0010F14D0214B0B
:1015E0000593214B029300230393049302A91F4800
:1015F00037F0AAFF059B13B19B6802A8984701200A
:101600001B4B187007B030BD154836F00BFF002893
:10161000E5D0164C174B236000252561294604F1BF
:10162000400037F007FF04F1540037F0A3FE124BDF
:1016300000932B464FF480622821204637F078FF34
:10164000074836F011FF0D4A0D49204636F0DBFE03
:10165000C5E700BF980C0020A40F0020A60F0020B3
:101660009C0F00203847050081150100CC0F002099
:10167000A50F00202C8E0500404B0500E000002047
:10168000699604002DE9F041884617461E460C4D28
:10169000284637F077FE0B4C41462046FFF7A0FC6A
:1016A00039462046FFF7AEFC31462046FFF7AAFC3C
:1016B0002046FFF79BFC284637F080FEBDE8F0810E
:1016C000A80F0020980C002070B504460D46164661
:1016D00090F903201341DBB210225321FFF7D2FF10
:1016E00094F9033046FA03F3DBB22122532120465A
:1016F000FFF7C8FF94F9033045FA03F3DBB2322257
:1017000053212046FFF7BEFFC52340225321204628
:10171000FFF7B8FF70BD08B50B4619B9002202707B
:1017200042708270022B11D0032B15D0012B19D0DF
:10173000062B1DD0052B21D0042B25D0072B29D01B
:10174000037842788178FFF7BFFF08BD002202705E
:10175000FF2141708270E7E7FF2202700022427091
:101760008270E3E7002202704270FF228270DFE79E
:1017700020220270427000228270DBE72022027079
:10178000002141708270D7E700220270202242704F
:101790008270D3E7FF23037043708370D0E708B5EE
:1017A000C5234F225321FFF76DFF08BD10B5044636
:1017B00001231A465321FFF765FF07230222532115
:1017C0002046FFF75FFF0023032253212046FFF747
:1017D00059FF0023042253212046FFF753FF10BD79
:1017E00070B50D461646154837F0CCFD144C294609
:1017F0002046FFF7F5FB31462046FFF703FC0021AA
:101800002046FFF76DFC012229462046FFF7F4FB36
:101810000BF064F904460A48FFF7D1FC20B90BF03D
:101820005DF9001B6328F6D90548FFF705FEC4B231
:10183000024837F0C3FD204670BD00BFA80F00204E
:10184000980C002010B5044601225321FFF7C8FF71
:1018500040F00103DBB2012253212046FFF712FFC3
:1018600010BD10B50446FFF79AFF2046FFF79EFF14
:101870002046FFF7E7FF10BD2DE9F04188461746E7
:101880001E46012119200BF01BFA0E4D284637F099
:1018900079FD0D4C41462046FFF7A2FB3946204614
:1018A000FFF7B0FB31462046FFF7ACFB2046FFF7C1
:1018B0009DFB284637F082FD002119200BF000FA2D
:1018C000BDE8F081A80F0020980C002070B50D46EF
:1018D0001646012119200BF0F3F9174837F052FD95
:1018E000164C29462046FFF77BFB31462046FFF782
:1018F00089FB00212046FFF7F3FB01222946204601
:10190000FFF77AFB0BF0EAF804460C48FFF757FCA8
:1019100028B90BF0E3F8001BB0F57A7FF5D3074840
:10192000FFF78AFDC4B2044837F048FD00211920B2
:101930000BF0C6F9204670BDA80F0020980C0020BF
:10194000704710B504465C2136F07CFF204610BD80
:101950000B4A0260002242621F218162C26202635E
:1019600080F8342080F835208263C2630264A0F8D6
:10197000442080F846208264C264426582657047D4
:10198000544B05008B6A8362CB6AC3620B6B0363A3
:1019900091F8343080F8343091F8353080F83530B3
:1019A0008B6B8363CB6BC3630B6C0364B1F8443004
:1019B000A0F8443091F8463080F846308B6C836450
:1019C000CB6CC364B1F85030A0F850304B6D436518
:1019D0008B6D8365704710B50446FFF7D3FF204633
:1019E00010BD70B586B005460E46684604F037FA5D
:1019F000EC6C002C0BDD0234684604F075FA023002
:101A0000AB6A201A181804D5002006B070BD002457
:101A1000F2E7A862AE64684604F066FAE864012062
:101A2000F3E730B4036C23B19D1C90F8464044B1F9
:101A30000433951C846A5B1BE31804D5002030BC7A
:101A400070472B46F5E78362C1630264002380F888
:101A500046300120F3E770B4046C24B1A61C90F862
:101A6000465045B104341E1D856AA41B2C1904D5AB
:101A7000002070BC70473446F5E78462C26303649B
:101A8000A0F84410012380F846301846F1E770B4FE
:101A9000856D002D08DD04351C1D866A2C1B34194C
:101AA00004D5002070BC70470025F5E78462A0F8DB
:101AB0005010426583650120F4E770B505460E4677
:101AC000806B28B103782BB142F0E0FB841C02E06C
:101AD000002400E00024304642F0D8FB0230AB6A1C
:101AE000201A181801D5002070BDA862AE6301202D
:101AF000FAE790F8353033B10323826A033BD318F9
:101B000003D5002070470023F7E78362012380F8A4
:101B1000353080F834101846704704307047406AFA
:101B2000704790F83500704738B5436AC3F11F0419
:101B3000944201DA002038BD1546044618440430AA
:101B400042F0A0F9626A2A4462620120F3E770B5AC
:101B50009C1C456AC5F11F06A64201DA002070BD33
:101B60001E46134604466A1C701C25442871501CEE
:101B7000606222441171204432461946043042F01A
:101B800081F9636A334463620120E8E770B586B087
:101B90000546684604F063F9684604F0A5F9044672
:101BA00002280BDD0626684604F09CF9234602460F
:101BB00031462846FFF7CBFF06B070BD0226F2E79C
:101BC00008B513460A46FF21FFF7C1FF08BD30B52F
:101BD00089B0044610469D1CADF800101A46014617
:101BE0000DF1020042F04EF92B466A46FF212046D5
:101BF000FFF7ADFF09B030BD30B589B004461046DF
:101C00009D1CADF800101A4601460DF1020042F08D
:101C100039F92B466A4616212046FFF798FF09B08E
:101C200030BD00B583B08DF8071001230DF1070218
:101C30001946FFF78CFF03B05DF804FB70B505464D
:101C40000E461446104642F021FB0346224631461A
:101C50002846FFF77CFF70BD38B505460C460846A0
:101C600042F014FB1D2806D91D23224608212846D0
:101C7000FFF76DFF38BD224609212846FFF7DEFF3A
:101C8000F8E738B5044600234362C16A09B1026B24
:101C900032BB94F835303BBB0125A16C21B1204605
:101CA000FFF774FF0540EDB2E16B61B1236C53B1F6
:101CB00094F84620FAB10A46B4F844102046FFF7DB
:101CC00086FF0540EDB2626D0AB1A36DD3B9A16B79
:101CD00021B12046FFF7C0FF0540EDB2284638BDD0
:101CE000FFF722FF0546F9E794F834102046FFF786
:101CF00098FF0546D1E71A462046FFF761FF0540E9
:101D0000EDB2E0E7B4F850102046FFF775FF05404C
:101D1000EDB2DCE710B504460B4B0360406838B108
:101D200000F05EFB20B9606810B103685B689847FB
:101D3000A06838B101F003FA20B9A06810B10368B7
:101D40005B689847204610BD644B050010B50446FB
:101D5000FFF7E0FF0C21204636F074FD204610BD51
:101D600010B50446054B036041600023836011B148
:101D7000084600F030FB204610BD00BF644B050054
:101D800010B50446054B036000234360816011B128
:101D9000084601F0CFF9204610BD00BF644B050096
:101DA0002DE9F04182B004460E461746984654206D
:101DB00036F016FD05469DF82030009343463A461E
:101DC000314600F0CDFB29462046FFF7C9FF2046EB
:101DD00002B0BDE8F081000038B504460D46074B5F
:101DE00003604868606008B100F0F5FAA868A06078
:101DF00008B101F09FF9204638BD00BF644B0500D3
:101E000008B543681BB1184600F0F2FA08BD8068B7
:101E100010B101F099F9F9E70020F7E710B544682F
:101E20001CB1204600F004FB10BD806810B101F029
:101E300091F9F9E70020F7E708B5FFF7EFFF08BDD4
:101E4000406818B108B500F0DFFA08BD00207047FF
:101E50004068704770B504460D461646406810B19C
:101E6000C9B200F0D6FAA06818B13246E9B201F062
:101E700013FA70BD08B5836823B1FFF7C1FFC0F343
:101E8000400008BD0020FCE7806818B108B501F0EB
:101E9000CFF908BD002070470A6803689A4200DA4B
:101EA0000846704770B584B004460E4601924068FB
:101EB00060B300F0A7FA029002A901A8FFF7ECFFB7
:101EC0000568606800F09CFA2A460146304641F0F9
:101ED000D9FFA068B8B101F0A3F918B12046FFF707
:101EE000C9FFA8B9A06801F033F9039003A901A8BC
:101EF000FFF7D2FF0568A06801F028F92A460146DD
:101F0000304641F0BFFF284604B070BD0025E0E731
:101F10002046FFF7B9FF0028E4D10025F3E708B514
:101F2000FFF7C0FF08BD704708B5034B186803688A
:101F30001B69984708BD00BF304F050008B5034B2B
:101F4000186803685B69984708BD00BF304F0500FB
:101F500010B504460A4B186803681B699847236844
:101F60001B6A20469847034638B1064B1868036839
:101F70005B6B621D217998470346184610BD00BF70
:101F8000304F0500784D050010B5044B1B681A68EA
:101F90005469421D01791846A04710BD784D0500CF
:101FA00010B504460A4B186803689B6A621D2179C4
:101FB00098474FF6FF73984206D00146054B1868C4
:101FC00003689B6A984710BD94F94B00FBE700BF7C
:101FD000784D0500304F050010B504464C2136F011
:101FE00031FC204610BD000030B58BB004460B7AA2
:101FF000CA7988794D7903950290019200934B7AC2
:102000008A7A054905A837F035F905A920460AF06E
:102010005AFB20460BB030BD6C4B050000B583B0B9
:1020200000230093ADF8043006226946053041F0E4
:102030001BFF003018BF012003B05DF804FB08B59A
:1020400002790B799A4201D0002008BD06220531A1
:10205000053041F009FF08B10020F6E70120F4E760
:1020600008B502790B799A4201D0012008BD0622F9
:102070000531053041F0F8FE08B10120F6E70020F7
:10208000F4E70000064A02600022C27202737F2158
:1020900080F84B10C0F80520A0F80920704700BF59
:1020A000944B050010B4094C046001710021C17209
:1020B00001737F2180F84B101168C0F805109288D9
:1020C000A0F809205DF8044B704700BF944B050051
:1020D0002DE9F04107460E4614490AF0F4FA0023B0
:1020E000327B9A421EDD591CF218527B9C1C7318DD
:1020F0005B7B083B012B02D9531E2344F0E7551E9E
:10210000294638460AF0B0FA4FF00008454509DD87
:1021100008EB04033344597B38460AF052FB08F1BC
:102120000108F3E73846BDE8F08100BFDC5905003F
:102130002DE9F04F83B001908A46934620490AF07A
:10214000C2FA002635461BE04FF0020831E004FBDE
:102150000860083050444146053003F0C7FE014690
:1021600001980AF0DBFA0135444409F1FF33A34238
:1021700002DD5D45F7D1EAE73E44F6B2013EF6B234
:102180009AF80C30B34216D9731C0AEB0602577B3F
:10219000B9460236F6B25AFA83F35B7B9A1E012ADD
:1021A00003D9062B01D0072BE6D1012ACCD94FF059
:1021B00010080024D9E7019803B0BDE8F08F00BFF4
:1021C000DC59050010B504460022FFF7B1FF204698
:1021D00010BD08B503798B4201D0002008BD11461F
:1021E0000622053041F040FE08B10020F6E701204C
:1021F000F4E710B50446012000FA01F1E172227300
:10220000194604F10D0041F03DFE9DF9083084F8B7
:102210004B3010BD70B504460D4611461E46C37ABC
:1022200043F01003C372007B083020442A46053077
:1022300041F028FE237B1D44257384F84B6070BD5C
:10224000C37A13F0180F14BF01200020704700005C
:1022500010B504460B4B0360406838B100F0C0F87D
:1022600020B9606810B103685B689847A06838B10E
:1022700000F065FF20B9A06810B103685B6898475B
:10228000204610BDC84B050010B50446FFF7E0FF1F
:102290000C21204636F0D6FA204610BD10B5044673
:1022A000054B036041600023836011B1084600F0D4
:1022B00092F8204610BD00BFC84B050070B504461B
:1022C0000E46302036F08CFA0546314600F058FEB6
:1022D00029462046FFF7E2FF204670BD08B5436857
:1022E0001BB1184600F068F808BD806810B100F016
:1022F0001FFFF9E70048F7E7DC590500406818B10F
:1023000008B500F0DFFE08BD704740687047000068
:1023100010B582B0044601230093022392B2FFF766
:102320003FFD044B236000212046FEF7B1FC204610
:1023300002B010BD2047050010B50446FFF7E8FFC6
:10234000014B2360204610BDD84B050010B582B06C
:10235000044601230093042392B2FFF721FD044BAE
:10236000236000212046FEF7A0FC204602B010BDED
:102370003047050010B50446FFF7E8FF014B236026
:10238000204610BDE84B050070470020704710B58F
:102390000446202136F056FA204610BD10B50446FA
:1023A000044B40F8043B03F05AFD0023E361204650
:1023B00010BD00BFF84B050008B5043003F090FDD8
:1023C00008BD08B5043003F08DFD08BD08B5043024
:1023D00003F08AFD08BDC3690133C3611846704725
:1023E000C369013BC3611846704742F6030070475A
:1023F00090F82000704790F821007047406A7047BD
:10240000806A7047808D7047808E003018BF012031
:102410007047032903D8103100EB81014A607047EF
:1024200001867047008E7047008E013080B2704781
:1024300070B582B004460D46019200F1240101A856
:10244000FFF72AFD0288A2852946A06A41F01AFDFD
:1024500094F82E300BB1636AA38594F8203013F002
:10246000200F10D0A28E12F0020F0CD0254B1D6849
:102470002B685E6D2046FFF7D7FFA38DA26A014649
:102480002846B04738E013F0100F10D0A38E13F099
:10249000010F0CD01B4B1D682B681E6D2046FFF7EB
:1024A000C3FFA38DA26A01462846B04724E094F8F2
:1024B000323003B3144B186803685B6A21469847AF
:1024C000124B1C6823681E6B019B2A46014620465E
:1024D000B0470C4B186803681B6B984770B90C4BDE
:1024E000186803689B68984750B123685B6D204665
:1024F0009847012000E0012002B070BD0120FBE7F9
:102500000120F9E7784D0500C44E0500344C050064
:10251000784E050038B505460C46084641F0B6FE33
:10252000024621462846FFF783FF38BD002202609D
:1025300042608260704738B504460D46082036F088
:102540004FF9002343600560636833B1A3685860A6
:10255000A06023680133236038BD6060F8E70000A5
:10256000F0B585B0044616460193FFF717FF204BE0
:10257000236084F82060330A84F821304FF400731C
:10258000039303A901A8FFF787FC03686362002592
:10259000A5859DF8283084F82E30258684F83250A1
:1025A00084F83350A58604F138073846FFF7BEFF9C
:1025B0006564A564E564256516F0300F06D10198C1
:1025C00041F042FCA062204605B0F0BD2C2036F060
:1025D00007F90546022304F13402064900F0A0F988
:1025E0002846FFF7F8FE29463846FFF7A4FFE6E73E
:1025F000144C0500044C050070B5064640680024E4
:102600003368A34206D94568082136F01BF9013426
:102610002846F5E7002333607360B36070BD10B5E2
:102620000446FFF7E9FF204610BD0068704708B573
:102630003830FFF7FAFF08BD03688B4208D94268BB
:1026400000238B4202D252680133FAE710687047C8
:102650000020704708B53830FFF7EEFF08BD0000D6
:1026600070B50546154B0360002400E00134284690
:10267000FFF7DDFFA0420FD921462846FFF7EAFF0A
:102680000646FFF7ADFE0028F0D1002EEED03368ED
:102690005B6830469847E9E705F138042046FFF7C4
:1026A000ABFFA86A08B141F0D7FB2046FFF7B7FFA0
:1026B0002846FFF769FE284670BD00BF144C050090
:1026C00010B50446FFF7CCFF5421204636F0BAF887
:1026D000204610BD2DE9F04397B0044617461E462C
:1026E000C56C002D47D0284B00930B798DF8043032
:1026F0000B4653F8052FCDF805209B88ADF809301F
:10270000CB7A8DF80B300B7B8DF80C3001F10D037B
:102710000DF10D0201F13D09D3F80080D3F804E07A
:10272000D3F808C0D868C2F80080C2F804E0C2F844
:1027300008C0D060103310324B45EDD1D3F800E023
:10274000D3F804C09868C2F800E0C2F804C09060F2
:102750009B89938191F94B308DF84B30214613A81A
:10276000FFF7FEFA13A96846A84713A8FFF7D2FAA5
:102770006846FFF7D8FBA16A1E9A3944304641F0FB
:1027800081FB17B0BDE8F083944B0500F0B597B01E
:1027900005460C461146012280F833201A46FFF701
:1027A00047FE2E6D002E3FD0204B009323798DF8ED
:1027B0000430234653F8052FCDF805209B88ADF84B
:1027C0000930E37A8DF80B30237B8DF80C3004F15F
:1027D0000D030DF10D0204F13D0ED3F800C05F684A
:1027E0009868D968C2F800C057609060D160103313
:1027F00010327345F1D11F685868996817605060AE
:1028000091609B89938194F94B308DF84B30294628
:1028100013A8FFF7A5FA13A96846B04713A8FFF756
:1028200079FA6846FFF77FFB17B0F0BD944B0500BF
:1028300002F00302838E934250D0F0B597B08286A7
:10284000002A49D00023103300EB83035D68002D7C
:1028500040D0234B00930B798DF804300B4653F88E
:10286000052FCDF805209B88ADF80930CB7A8DF87F
:102870000B300B7B8DF80C3001F10D030DF10D02C7
:1028800001F13D0ED3F800C05F689E68DC68C2F8B5
:1028900000C057609660D460103310327345F1D198
:1028A0000C4601461F685E68986817605660906025
:1028B0009B89938194F94B308DF84B3013A8FFF727
:1028C0004FFA13A96846A84713A8FFF723FA6846EA
:1028D000FFF729FB17B0F0BD0123B4E7704700BF35
:1028E000944B05004FF424507047000010B5044687
:1028F000024B0360FFF748FD204610BD284C050041
:1029000010B50446FFF7F2FF2C21204635F09AFF60
:10291000204610BD406A7047006A704701857047C5
:1029200030B585B0044615460193FFF737FD084BD7
:10293000236025624FF40073039303A901A8FFF7F6
:10294000ABFA0368636200232385204605B030BDDF
:10295000284C050008B5054B18680368DB689847E4
:10296000034B18680368DB68984708BDC44E050030
:10297000304F050008B5034B186803681B6998477A
:1029800008BD00BF304F050008B5034B1868036849
:102990005B69984708BD00BF304F050008B5054B7F
:1029A000186803681B699847034B186803681B6B1A
:1029B000984708BD304F0500784D050008B5054B18
:1029C000186803681B699847034B18680368DB6B3A
:1029D000984708BD304F0500784D050008B5034BFA
:1029E000186803689B6C984708BD00BF784D0500C8
:1029F0000C3070476830704708B5034B186803689F
:102A00001B69984708BD00BFC44E050008B5034BBD
:102A1000186803685B69984708BD00BFC44E05008D
:102A200008B5034B186803689B69984708BD00BF49
:102A3000C44E050008B5034B186803681B69984726
:102A400008BD00BF784E050008B5034B1868036841
:102A50005B69984708BD00BF784E050008B5034B79
:102A6000186803685B6A984708BD00BF784E050088
:102A700010B50446064B186803681B699847054B58
:102A800019680B68DB6C20469847204610BD00BFD4
:102A9000304F0500784D050010B50446064B186808
:102AA00003681B699847054B19680B689B6A2046A9
:102AB0009847204610BD00BF304F0500784E0500F6
:102AC00008B5022905D0064B186803689B6D984726
:102AD00008BD044B186803685B6B9847F8E700BFB4
:102AE000784D0500784E050008B5034B186803685B
:102AF000DB6A984708BD00BF784E050008B5034B58
:102B0000186803689B69984708BD00BF9851050085
:102B100008B5034B18680368DB69984708BD00BF18
:102B20009851050008B5034B186803681B6B98475C
:102B300008BD00BF784E050008B5034B1868036850
:102B4000DB68984708BD00BF784D050008B5034B0A
:102B5000186803681B6A984708BD00BF98510500B4
:102B600008B5034B186803685B6A984708BD00BF47
:102B700098510500024B1B68C3F8F010704700BF66
:102B8000304F0500024B1B68C3F8F810704700BFB8
:102B9000304F0500024B1B68C3F8F410704700BFAC
:102BA000304F0500024B1B68C3F8EC10704700BFA4
:102BB000304F0500024B1B68C3F8FC10704700BF84
:102BC000304F0500024B1B68C3F80011704700BF6F
:102BD000304F050008B5034B18680368D3F89C30E4
:102BE000984708BD304F050008B5034B18680368C7
:102BF000D3F8A030984708BD304F0500F0B587B036
:102C00000646334B1C6823689B682046984738B9B2
:102C100005463368DB6830469847284607B0F0BD64
:102C2000642009F06DFF23689B692046984705469C
:102C3000002831D12368DF690DF10E03019304AB45
:102C400000930DF1130305AA0DF117012046B847B3
:102C5000074638BB2368D96A4FF0FF326FF0404314
:102C600020468847054610BB2368196B40F2FF32A7
:102C70000023204688470746F8B923685B6B0DF1AF
:102C80000B0203A920469847E0B9124B1868036865
:102C90009B6898470125C0E73368DB683046984752
:102CA0000025BAE73368DB6830469847B5E73368F4
:102CB000DB68304698473D46AFE73368DB6830460F
:102CC0009847AAE73368DB68304698473D46A4E753
:102CD000304F0500C44E050010B58CB004460023EB
:102CE0000A93ADF82C30104B186803681B6A0AA9C8
:102CF00098479DF82B309DF82A209DF829109DF8C3
:102D0000280003900291019200939DF82C309DF8C9
:102D10002D20064905A836F0ADFA05A9204609F090
:102D2000D2FC20460CB010BD304F05006C4B0500A6
:102D300008B50C30FEF755FE08BD38B504460368EB
:102D40009D6A0846FFF7CAFA01462046A84738BDE3
:102D500008B50C30FEF79BFE08BD08B50C30FEF739
:102D600060FE08BD08B50C30FEF775FE08BD08B55D
:102D70006830FEF7A2FE08BD08B56830FEF72BFEEE
:102D800008BD10B500F10C042046FEF724FE2046D5
:102D9000FEF7C7FE00B110BD06212046FEF7A9FED2
:102DA000F9E700002DE9F04383B0044600F10C057B
:102DB0002846FEF766FF68342046FEF762FF0E4B9A
:102DC0001E683368DF682846FEF7A7FE804628465F
:102DD000FEF7A5FE05462046FEF79FFE81462046EB
:102DE000FEF79DFEC0B200904B46EAB24146304627
:102DF000B84703B0BDE8F083784E050070B584B0E5
:102E00001646094B1C6823689D6901A809F07CFCE3
:102E1000324601A92046A847044601A809F003FC50
:102E2000204604B070BD00BF784E050070B584B078
:102E30001646094B1C682368DD6901A809F064FC8B
:102E4000324601A92046A847044601A809F0EBFB39
:102E5000204604B070BD00BF784E050070B584B048
:102E60001646094B1C6823681D6A01A809F04CFC32
:102E7000324601A92046A847044601A809F0D3FB21
:102E8000204604B070BD00BF784E050038B5054639
:102E90000446084B44F80C3B2046FEF759FD05F16B
:102EA0006800FEF755FD06212046FEF722FE284663
:102EB00038BD00BF404C0500012800D070474FF6D8
:102EC000FF739942FAD110B5044C2046FFF7DEFF9C
:102ED000034A0449204635F096FA10BD88100020B8
:102EE000E0000020F92E010008B54FF6FF71012027
:102EF000FFF7E2FF08BD000010B50446054B40F89F
:102F0000683BFEF71DFD04F10C00FEF719FD20469D
:102F100010BD00BF404C050010B50446FFF7ECFFA4
:102F2000C421204635F08EFC204610BD10B594B06B
:102F30000A4B19680B68DB6C01A8984701A8FFF7DA
:102F40006DF830B97F2401A8FEF7EDFF204614B0DC
:102F500010BD01A8FFF724F80446F4E7784D0500FA
:102F60004FF420507047018442847047008C7047B2
:102F7000408C70470022026042608260704700000F
:102F800010B50446FFF70AFA054B2360002323849B
:102F9000638404F12400FFF7EDFF204610BD00BF5D
:102FA0000C4D050070B50646406800243368A34206
:102FB00006D94568082135F045FC01342846F5E777
:102FC000002333607360B36070BD10B504462430D5
:102FD000FFF7E8FF00232384638410BD10B5044687
:102FE000FFF7E0FF204610BD0068704708B52430A9
:102FF000FFF7FAFF08BD03688B4208D94268002337
:103000008B4202D252680133FAE710687047002001
:10301000704708B52430FFF7EEFF08BD70B50546D0
:10302000124B0360002400E001342846FFF7DEFF66
:10303000A0420FD921462846FFF7EBFF0646FFF7CF
:10304000CFF90028F0D1002EEED033685B6830460F
:103050009847E9E72846FFF7B8FF05F12400FFF796
:10306000BDFF2846FFF790F9284670BD0C4D0500BE
:1030700010B50446FFF7D2FF3021204635F0E2FBC1
:10308000204610BD38B504460D46082035F0A8FB93
:10309000002343600560636833B1A3685860A06093
:1030A00023680133236038BD6060F8E738B5054612
:1030B0000C460846FFF78FF9214605F12400FFF77B
:1030C000E1FF38BD10B504460846FEF7C1FE18B151
:1030D00001462046FFF7EAFF10BD000010B5044688
:1030E000034B40F8043B09F09EFA204610BD00BF98
:1030F000204D050010B50446FFF7F0FF14212046CF
:1031000035F0A0FB204610BD38B5044608462546DC
:10311000064B45F8043B114602F0E8FE01462846FE
:1031200009F0D1FA00232361204638BD204D050067
:1031300040687047036901330361184670470369AB
:10314000013B036118467047007E7047C0697047B5
:10315000006A70472DE9F04385B00446884617465B
:1031600099462E4B1D682B689B6B818A2846984791
:1031700000284BD02B685B6CA18A284698470338FF
:1031800086B2BE4200DB3E4637463146E06940F03B
:1031900091FFE06100283ED0237E13F0080F1ED07F
:1031A000B9F1000F1BD02B68D3F8609003AB0193EB
:1031B000F3B200934346628BA18A2846C847034670
:1031C00028B39DF80C30012B01D100231FE03246BB
:1031D0004146E06940F056FE2662012317E013F0F5
:1031E000040F01D1002312E02B68D3F86490F3B2EE
:1031F00000934346628BA18A2846C8473A46414617
:10320000E06940F03FFE2662012300E000231846FB
:1032100005B0BDE8F0830023F9E700BF784D050055
:10322000034690F82500012283F82520704700000E
:10323000F0B5C1B00446164B1D682B689B6B818AA4
:10324000284698470646D0B12B68DF6D6B46628BE7
:10325000A18A2846B84780B19DF80030012B11D0D3
:10326000411E2162E06940F025FFE06168B1226AF9
:103270000DF1010140F006FE01E000262662304615
:1032800041B0F0BD00262662F9E700262662F6E787
:10329000784D0500408B7047032900D0704742638A
:1032A000FCE70022026042608260704770B504460D
:1032B0001E46BDF81450FFF727FF0D4B2360A68272
:1032C000BDF81030E38225762D0A6576BDF81830FA
:1032D00063830025E561256284F82450012384F886
:1032E000253004F12800FFF7DCFF6563204670BD40
:1032F000304D050070B50646406800243368A3428F
:1033000006D94568082135F09DFA01342846F5E7CD
:10331000002333607360B36070BD10B50446FFF7DF
:10332000E9FF204610BD0068704708B52830FFF758
:10333000FAFF08BD03688B4208D9426800238B421C
:1033400002D252680133FAE71068704700207047D4
:1033500008B52830FFF7EEFF08BD000070B5054640
:10336000164B0360002400E001342846FFF7DDFF20
:10337000A0420FD921462846FFF7EAFF0646FFF78D
:10338000DEFE0028F0D1002EEED033685B683046B8
:103390009847E9E705F128042046FFF7ABFFE86905
:1033A00018B140F059FD0023EB612046FFF7B5FF4F
:1033B0002846FFF793FE284670BD00BF304D05003C
:1033C00010B50446FFF7CAFF3821204635F03AFA17
:1033D000204610BD38B504460D46082035F000FAE9
:1033E000002343600560636833B1A3685860A06040
:1033F00023680133236038BD6060F8E738B50546BF
:103400000C460846FFF796FE214605F12800FFF717
:10341000E1FF38BDF0B597B004460D46164603628D
:103420001946C06940F046FEE06100284ED00123F5
:1034300084F82430002384F82530226A314640F095
:1034400021FD676B002F3FD0224B00932B798DF825
:1034500004302B4653F8052FCDF805209B88ADF896
:103460000930EB7A8DF80B302B7B8DF80C3005F1A1
:103470000D030DF10D0205F13D0ED3F800C05E689D
:103480009868D968C2F800C056609060D160103367
:1034900010327345F1D11E68586899681660506003
:1034A00091609B89938195F94B308DF84B30214683
:1034B00013A8FEF765FC13A96846B84713A8FEF7E2
:1034C00029FC6846FEF72FFD17B0F0BD00232362EC
:1034D000FAE700BF944B050010B50446064B0360A5
:1034E000806918B140F0B8FC0023A3612046FFF7C3
:1034F000F5FD204610BD00BF404D050010B5044647
:10350000FFF7EAFF2021204635F09CF9204610BD48
:1035100038B504461D46FFF7F7FD054B2360A5822D
:10352000BDF81030E3820023A361E361204638BD7B
:10353000404D05000022026042608260704700003A
:1035400010B50446034B40F8043BFFF7F3FF204659
:1035500010BD00BF504D050038B504460D4608208B
:1035600035F03EF9002343600560636833B1A3681A
:103570005860A06023680133236038BD6060F8E7BD
:1035800038B505460C460846FFF7D4FD2146281DF0
:10359000FFF7E2FF38BD0068704708B50430FFF759
:1035A000FAFF08BD03688B4208D9426800238B42AA
:1035B00002D252680133FAE7106870470020704762
:1035C00008B50430FFF7EEFF08BD70B50646406849
:1035D00000243368A34206D94568082135F032F942
:1035E00001342846F5E7002333607360B36070BD93
:1035F00010B50446FFF7E9FF204610BD70B505463B
:10360000002400E001342846FFF7C7FFA0420FD98D
:1036100021462846FFF7D4FF0646FFF790FD002815
:10362000F0D1002EEED033685B6830469847E9E76A
:10363000281DFFF7CAFF70BD38B505460446054B87
:1036400044F8043BFFF7DAFF2046FFF7D1FF284696
:1036500038BD00BF504D050010B50446FFF7ECFF24
:103660001021204635F0EEF8204610BD808A7047C4
:10367000C08A70470022026042608260704700008A
:1036800038B504461D46FFF73FFD084B2360A58271
:10369000BDF81030E382064904F1180009F013F870
:1036A00004F12400FFF7E6FF204638BD604D050019
:1036B000DC59050070B50646406800243368A34213
:1036C00006D94568082135F0BDF801342846F5E7EC
:1036D000002333607360B36070BD10B50446FFF71C
:1036E000E9FF204610BD0068704708B52430FFF799
:1036F000FAFF08BD03688B4208D9426800238B4259
:1037000002D252680133FAE7106870470020704710
:1037100008B52430FFF7EEFF08BD000070B5054680
:10372000154B0360002400E001342846FFF7DDFF5D
:10373000A0420FD921462846FFF7EAFF0646FFF7C9
:10374000FEFC0028F0D1002EEED033685B683046D6
:103750009847E9E705F124042046FFF7ABFF204630
:10376000FFF7BBFF05F1180008F05DFF2846FFF7E3
:10377000B5FC284670BD00BF604D050010B504467D
:10378000FFF7CCFF3021204635F05CF8204610BD15
:1037900038B504460D46082035F022F80023436072
:1037A0000560636833B1A3685860A0602368013383
:1037B000236038BD6060F8E738B505460C4608461A
:1037C000FFF7B8FC214605F12400FFF7E1FF38BD03
:1037D000A0F8A8107047C0F8AC1070472DE9F0436E
:1037E00083B004460F461D4615F8016B013A5FFA97
:1037F00082F803685B6C9847731E512B00F20581B9
:10380000DFE813F052005D0066006F00790082006F
:1038100003018C009600B200BE00B2000301030158
:1038200003019F00A900C700D30003010301DC00CE
:103830000301E60003010301F0000301F000FA00B8
:103840000301030103010301030103010301030158
:103850000301030103010301030103010301030148
:103860000301030103010301030103010301030138
:103870000301030103010301030103010301030128
:103880000301030103010301030103010301030118
:103890000301030103010301030103010301030108
:1038A000030103010301C7002368D3F884602B469A
:1038B000424639462046B04703B0BDE8F08323684E
:1038C000D3F888602B46424639462046B047F3E796
:1038D0002368D3F890602B46424639462046B047CD
:1038E000EAE72368D3F894600095434602463946D8
:1038F0002046B047E0E72368D3F89C602B46424659
:1039000039462046B047D7E72368D3F8A060009532
:103910004346024639462046B047CDE72368D3F8F0
:10392000A46000954346024639462046B047C3E7A7
:103930002368D3F8AC602B46424639462046B04750
:10394000BAE72368D3F8B860009543460246394683
:103950002046B047B0E72368D3F8C0602B46424604
:1039600039462046B047A7E72368D3F8B0900195C1
:10397000CDF800803346024639462046C8479BE7CB
:103980002368D3F8B4602B46424639462046B047F8
:1039900092E72368D3F8C4900195CDF800803346B0
:1039A000024639462046C84786E72368D3F8C860F0
:1039B0002B46424639462046B0477DE72368D3F878
:1039C000CC6000954346024639462046B04773E72F
:1039D0002368D3F8D0600095434602463946204616
:1039E000B04769E72368D3F8D49000954346324640
:1039F00039462046C8475FE72368D3F8D8602B468E
:103A0000424639462046B04756E72368D3F8DC5093
:103A1000062300930023324639462046A8474BE749
:103A20000023002B0BDCC3EBC3018A000244B2F875
:103A3000B0104FF6FF72914203D10133F1E700203D
:103A400070470120704708B503689B6A98474FF696
:103A5000FF73C01A18BF012008BD000038B5054625
:103A60000C460B4B186803681B6998470023002B12
:103A700009DCC3EBC3018A002A44B2F8B020A24299
:103A800003D00133F3E7002038BD0120FCE700BF7D
:103A9000304F05000023002B09DCC3EBC3018A0073
:103AA000024492F9C820002A03DB0133F3E7002027
:103AB0007047012070470023002B06DD002070476F
:103AC0000133002B02DD00200FE010B4C3EBC30470
:103AD000A2000244B2F8B0208A42F1D1C3EBC30382
:103AE0009A00104490F8C800C0095DF8044B704774
:103AF0000023002B05DD172070472044B0F8C000DC
:103B00000DE010B4C3EBC304A20014460244B2F8A3
:103B1000B0208A42F1D00133002BF3DD17205DF88D
:103B2000044B704730B585B01B88022A09D0036862
:103B3000D3F8DC400423009300230222A04705B001
:103B400030BDB0F8A8409C4200D31C460023002B97
:103B50000DDCC3EBC305AA0015460244B2F8B02041
:103B60008A4201D00133F2E72844A0F8C040032381
:103B70008DF80C30ADF80D40044A10680268D2F898
:103B8000944003AA00920422A047D8E7304F0500D2
:103B900010B584B002248DF80C40ADF80D200268F9
:103BA000D2F8F0400093032303AAA04704B010BD4D
:103BB00010B584B004248DF80840ADF80920ADF8A4
:103BC0000B300368D3F8F040069B0093052302AA4C
:103BD000A04704B010BD10B584B010248DF8084083
:103BE000ADF80920ADF80B30BDF81830ADF80D3048
:103BF0000368D3F8F040079B0093072302AAA0476D
:103C000004B010BD10B584B008248DF80840ADF89C
:103C10000920ADF80B30BDF81830ADF80D30036851
:103C2000D3F8F040079B0093072302AAA04704B0F3
:103C300010BD012380F8CC307047000010B584B06F
:103C400001208DF808008DF80920ADF80A309DF8A4
:103C500018308DF80C30064B18680368D3F8944080
:103C600002AB009305230422A04704B010BD00BF9F
:103C7000304F0500012900D97047383100EB810130
:103C80004A60F9E710B584B00A248DF80C40ADF80D
:103C90000D200268D2F8F0400093032303AAA04746
:103CA00004B010BD0023002B06DD00207047013357
:103CB000002B02DD00200FE030B4C3EBC305AC00E5
:103CC0000444B4F8B0408C42F1D1C3EBC303990073
:103CD000084480F8C820012030BC704770B400242C
:103CE000002C26DCC4EBC405AB000344B3F8B030B1
:103CF0008B420ED1002105290DDCC1F10606C4EB73
:103D0000C405AB0003440B4493F8B4309355013120
:103D1000F1E70134E4E7C4EBC404A300184490F8CD
:103D2000B33013B11370012004E00023137001209D
:103D300000E0002070BC7047F8B505460024264618
:103D4000002C3DDCC4EBC40293002B44B3F8B0104C
:103D50004FF6FF73994231D01C4B18680368D3F8B3
:103D60009830984750BB0136E000021B93002B446B
:103D70004FF6FF72A3F8B020002183F8B21083F849
:103D8000B310071BBA00B0322A4451601181001BE6
:103D90008200B8322A44C2F80210D1801722A3F858
:103DA000C020D3F8C40010B103685B689847C4EB27
:103DB000C40293002B440022C3F8C4200134BFE79F
:103DC000002ED4BF00200120F8BD00BF304F0500F9
:103DD00010B50446044B0360D0F8D00008B140F0A1
:103DE0003BF8204610BD00BF844D050010B50446C9
:103DF000FFF7EEFFEC21204634F024FD204610BDF5
:103E00002DE9F0438BB004460E4617461F4B1D6844
:103E10002B68D3F854800622089204230793C82302
:103E20000693002305930C210491039202930197BA
:103E30000096302260212846C04728B14FF0000983
:103E400048460BB0BDE8F08308F048FE80464FF0CE
:103E5000000908F043FEA0EB0800D4F8AC3098420B
:103E60000CD22B681B692846984723685B6B3A463F
:103E700031462046984781460028EAD0B9F1000F24
:103E8000DED12B68DB6D28469847D9E7304F050017
:103E9000F8B5044603689B6A98474FF6FF7398424B
:103EA0001FD00646114B1D682B68D3F89830014689
:103EB0002846984708F012FE074608F00FFEC01B80
:103EC000D4F8AC3098420ED22B681B69284698472C
:103ED00023689B6B3146204698470028EDD101208E
:103EE00002E0002000E00020F8BD00BF304F0500D8
:103EF0002DE9F04182B004460E46089FA0F8D81084
:103F00001078013084F8DA00C4F8DC70002084F8FE
:103F1000E000194805682868D0F894800092DBB268
:103F200004222846C04727B308F0D8FD074608F00A
:103F3000D5FDC01BD4F8AC30984212D22B681B6957
:103F40002846984723689B6B31462046984740B1E6
:103F500094F8E0000028EAD04FF6FF73A4F8D830B8
:103F600004E04FF6FF73A4F8D830002002B0BDE89B
:103F7000F0810020FAE700BF304F05002DE9F0473F
:103F800005461F4603689B6A98474FF6FF739842A1
:103F900066D080462B68D3F8E03001462846984723
:103FA000814600285ED00024002C24DCC4EBC4022F
:103FB00093002B44B3F8B030434501D00134F3E70C
:103FC000C4EBC40293002B44D3F8C43033B1C4EB28
:103FD000C404A3002B44D3F8C4600DE0102034F0D7
:103FE000FFFB0646FFF7ACFAC4EBC40293002B4478
:103FF000C3F8C460EBE70026BEB397B13046FFF7C5
:10400000CCFA8246002454450EDA21463046FFF7AA
:10401000D7FAFFF78DF8394640F0ECF810B30134C9
:10402000F1E73046FFF7EAFA2B68D3F8E4403B4665
:10403000324641462846A047814698B12B68D3F8BE
:10404000E8303246414628469847814650B12B68B1
:10405000D3F8EC303246414628469847814601E085
:104060004FF000094846BDE8F0874FF00009F9E736
:10407000042A1CD138B5B0F8D8408C4200D038BDE5
:1040800090F8DA1001391C78A142F8D1194614468B
:104090000546D0F8DC3001221A70D0F8DC00224648
:1040A00001303FF0EFFE621C85F8E020E7E7704743
:1040B000F8B51F88022A15D10024002C0EDCC4EBB1
:1040C000C406B5002E460544B5F8B0508D4201D067
:1040D0000134F2E735460544A5F8C070B0F8D84081
:1040E0008C4200D0F8BD90F8DA100329FAD11946B5
:1040F00015460446D0F8DC3003221A70D0F8DC00F4
:104100002A4601303FF0BEFE6A1C84F8E020E9E751
:10411000012A1AD938B5B0F8D8408C4200D038BD41
:1041200090F8DA100529FAD1194614460546D0F858
:10413000DC3005221A70D0F8DC00224601303FF056
:10414000A1FE621C85F8E020E9E77047012A1AD930
:1041500038B5B0F8D8408C4200D038BD90F8DA10AD
:104160001129FAD1194614460546D0F8DC3011223F
:104170001A70D0F8DC00224601303FF083FE621C4A
:1041800085F8E020E9E7704738B5B0F8D8408C42B0
:1041900000D038BD90F8DA100B29FAD1194615462F
:1041A0000446D0F8DC300B221A70D0F8DC002A4626
:1041B00001303FF067FE6A1C84F8E020E9E7CAB1ED
:1041C00038B51546B0F8D8408C4200D038BD90F8CC
:1041D000DA20092AFAD119460446D0F8DC301A70E0
:1041E000D0F8DC002A4601303FF04CFE013584F85F
:1041F000E050EBE77047CAB938B51546B0F8D8407B
:104200008C4200D038BD90F8DA20132AFAD1194632
:104210000446D0F8DC301A70D0F8DC002A460130B1
:104220003FF030FE013584F8E050EBE77047F0B521
:10423000C5B004460F469DF8285112218DF80C1088
:10424000ADF80D202A4619460DF10F003FF01AFE79
:104250002368D3F8F0604B9B0093EB1C03AA39460C
:104260002046B04745B0F0BDF0B5C5B004460F4696
:104270009DF8285152218DF80C10ADF80D202A46DA
:1042800019460DF10F003FF0FDFD2368D3F8F060F3
:1042900000230093EB1C03AA39462046B04745B0E3
:1042A000F0BD0023002B0DDD00207047C3EBC303DE
:1042B0009900C831084411889378A0F80110C370A0
:1042C00001200CE030B4C3EBC305AC000444B4F8E7
:1042D000B0408C42EAD00133002BF4DD002030BC2A
:1042E00070470023002B0CDD00207047C3EBC30593
:1042F000AC00C834044434F8015FA478158094708D
:1043000008E070B4C3EBC305AC000444B4F8B0409B
:104310008C42EBD00133002BF4DD002070BC7047E1
:104320000023002B0DDD00207047C3EBC303990071
:10433000B031084450F8043F136083889380012013
:104340000CE030B4C3EBC305AC000444B4F8B04097
:104350008C42EAD00133002BF4DD002030BC7047E2
:104360000023002B17DD002070470133002B13DDE5
:10437000002030BC7047013417E0012121E0C3EB7D
:10438000C3039900B831084450F8023F1360838892
:1043900093800120EDE730B4C3EBC305AC000444C7
:1043A000B4F8B0408C42E0D10024052CE5DCC3EB2E
:1043B000C305A9000144214491F8BA100029DAD0BC
:1043C00000210029DBD00020D3E700002DE9F041D7
:1043D00096B01C9F0025002D0BDCC5EBC506B40074
:1043E0000444B4F8B0604FF6FF74A64203D0013520
:1043F000F1E74FF0FF35B5F1FF3F41D0EE00A6EBFE
:10440000050C4FEA8C04A4460444A4F8B01084F8C8
:10441000B2201722A4F8C02084F8B3306246B0322C
:10442000024439685160B98811810022052A08DCEC
:10443000C2F10504BE5C16A90C4404F8086C0132F4
:10444000F4E71E468046124B18680368D3F8903094
:10445000C5EBC505AA00B83208EB0204A51C2A4624
:1044600014A9984778B1D8F8E4404CB13A4631469F
:1044700001A8FDF717FE01A8A04701A8FDF753FD0D
:1044800016B0BDE8F0810023C4F80230E380EAE70B
:10449000304F05002DE9F047A6B000231C464FF031
:1044A000FF36002B10DCC3EBC305AA000244B2F8B0
:1044B000B0208A4206D04FF6FF75AA4200D00134E0
:1044C0000133EEE71E46F6E7B6F1FF3F7DD0074623
:1044D000F3009A1B4FEA8208424608F1B008804474
:1044E00008F1040983184A4693F8B31013A8FDF79E
:1044F000D9FD012C6CD0D7F8E8A0BAF1000F38D064
:10450000644B00939DF850308DF80430DDF8513045
:10451000CDF80530BDF85530ADF809309DF857306D
:104520008DF80B309DF858308DF80C300DF1590393
:104530000DF10D020DF1890C1D685C689868D96851
:10454000156054609060D160103310326345F3D130
:104550001C68586899681460506091609B899381C9
:104560009DF897308DF84B306846D0476846FDF788
:10457000DAFCF200921B93003B444FF6FF72A3F863
:10458000B020002283F8B22083F8B320C8F80420BA
:10459000A9F804201721A3F8C01083F8C82083F8D5
:1045A000C92083F8CA2083F8CB20D3F8C40010B107
:1045B00003685B689847C6EBC606B0000744002353
:1045C000C7F8C43013A8FDF7AEFC26B0BDE8F087ED
:1045D000002443E02F4B00939DF850308DF80430B9
:1045E000DDF85130CDF80530BDF85530ADF8093063
:1045F0009DF857308DF80B309DF858308DF80C3001
:104600000DF159030DF10D020DF1890AD3F800E007
:10461000D3F804C09868D968C2F800E0C2F804C0B2
:104620009060D160103310325345EFD1D3F800C001
:1046300058689968C2F800C0506091609B89938166
:104640009DF897308DF84B30002269462846FEF7DA
:10465000EFF86846FDF767FC0134A4B20E4B1D6805
:104660002B68DB692846984784420DD22B681B6A69
:10467000214628469847054603689B68984742F6B6
:1046800003039842E8D1A5E70023A7F8CE30A7F8A6
:10469000D43030E7944B0500C44E0500F8B505460C
:1046A0000E4617460024002C1BDCC4EBC40293000A
:1046B0001A462B4493F8B330B34201D00134F2E7E9
:1046C0001046B03028440622394604303FF0CCFB77
:1046D0000028F3D1C4EBC404A3001D44B5F8B00016
:1046E00001E04FF6FF70F8BDF8B505460E461746D7
:1046F0000024002C1BDCC4EBC40293001A462B449C
:1047000093F8B330B34201D00134F2E71046B03031
:1047100028440622394604303FF0A6FB0028F3D196
:10472000C4EBC404A3001D44D5F8C40000E000207D
:10473000F8BD38B504460023002B21DCC3EBC300D1
:1047400082000A44B2F8B0004FF6FF72904207D0E0
:10475000C3EBC30082000A4492F8B220012A01D0C0
:104760000133E9E7D800C51AAA001546B0320A4459
:104770002944043291F8B3102046FDF793FC02E07F
:104780002046FDF77FFC204638BD98B500AFB0F855
:10479000A820D31DDB08EC46ACEBC3039D460368A1
:1047A000D3F88C406B46A04710B10120BD4698BDA0
:1047B0000020FBE72DE9F04F89B002AF7860B960C7
:1047C0006D46FD60042B0CD00368D3F8DC403B6CD5
:1047D0001B8804220092A047AD461C37BD46BDE8A9
:1047E000F08F3A610732D208A5EBC2039D4602ABB7
:1047F0001A463B609B4605238DF808300023537012
:104800003B6C1E88013EB6B2022426E04046FDF70E
:104810000BFE864202D04FF0000A3BE04FF0010A47
:1048200038E04046FDF7D2FD0546022801D00223BC
:104830003EE001233CE00BEB09044046FDF7C1FDDF
:104840002A46014620463FF01DFB09EB0504A4B2B1
:10485000023525443B69AB424ADB334B1D682B686C
:10486000DB6928469847864242D23B6C5B889E4271
:104870003ED22B681B6A314628469847804601364F
:10488000B6B203689B68984742F603039842BDD0CE
:104890004FF0000AD8F800309B684046984778618E
:1048A000BAF1000FBDD1B0F5245FBAD002250123C3
:1048B0009BF801200AB98BF801309BF801209A423D
:1048C00016D12BF8046004F102091FFA89F9BAF134
:1048D000000FB0D17B69B3F5245FACD0D8F80030BD
:1048E0009B68404698472BF809000434A4B2AFE710
:1048F000022C0DD00D4B18680368D3F894503B6818
:104900000093E3B20422B968A847D7F80CD064E753
:1049100078680368D3F8DC403B6C1B880A2200925D
:104920000422B968A047F0E7C44E0500304F0500E7
:104930002DE9F04F89B002AF814639613E6CC7F86E
:1049400014D0052B26D9063B1FFA83FBB31DBB6091
:1049500092460732D2086B46A3EBC2039D4602ABD8
:10496000FB607B6007238DF80830B388B3F5205FC8
:104970001CD0D9F80030D3F8DC4033880A220092EA
:10498000062239694846A047D7F814D01C37BD46DF
:10499000BDE8F08F0368D3F8DC403388042200922E
:1049A00006223969A047D7F814D0EFE73488013CD4
:1049B000A4B24FF001083860D94605E008F10303BE
:1049C0009A453BDD0134A4B2254B1D682B68DB6999
:1049D00028469847844231D273889C422ED22B6855
:1049E0001B6A214628469847054603689B689847F6
:1049F000B3889842E2D12846FDF7E8FC4845DDD16E
:104A00002846FDF7DEFC4A46B9683FF02DFA00283B
:104A1000D4D12846FEF7AAFA7B6823F8080008F1EB
:104A2000020B1FFA8BFB2846FEF7A2FA7B6823F8DD
:104A30000B0008F104081FFA88F8BFE7D7F80090C8
:104A4000B8F1010F95D0074B18680368D3F894406C
:104A5000FB6800935FFA88F304223969A04793E763
:104A6000C44E0500304F05002DE9F04F89B002AF6C
:104A7000B860F960D7F84080C7F810D0062B1CD179
:104A8000B8F80430A3F520539BB2012B15D87A60F7
:104A90000732D2086B46A3EBC2039D4602AB1A460F
:104AA0003B609A4611238DF8083000235370B8F804
:104AB0000040013CA4B2022539E0B8680368D3F88D
:104AC000DC40B8F8003010220092F968A047D7F80F
:104AD00010D01C37BD46BDE8F08F4FF0060947E007
:104AE0009AF801304B454AD13046FEF73FFA2AF892
:104AF000050005F1020B1FFA8BFB3046FEF738FA72
:104B00002AF80B000435ADB20AEB050B3046FDF771
:104B100058FC7E693246014658463FF0B3F93544A9
:104B2000ADB2A9447B684B4529DB0134A4B2224BCA
:104B30001E683368DB693046984784421FD2B8F854
:104B400002309C421BD233681B6A2146304698478C
:104B50000646B8F8049003689B6898478145E4D1FD
:104B60003046FDF733FC78610228B6D04FF01409C7
:104B70009AF80130002BB3D18AF80190B0E7022DEA
:104B80000DD00E4B18680368D3F894403B6800932F
:104B9000EBB20422F968A047D7F810D099E7B868BB
:104BA0000368D3F8DC40B8F800300A2200921022E3
:104BB000F968A047F0E700BFC44E0500304F05007C
:104BC00090F8853023B370B594B00546114B186842
:104BD00003681B6A104CB4F8441001399847064624
:104BE00004F1470294F8461001A8FDF75BFA94F827
:104BF0004D3004F14E0201A93046FDF7C7FD01A872
:104C0000FDF791F9002385F88530012014B070BDBF
:104C100000207047C44E05004C1100202DE9F043E0
:104C200097B002AF04460E46E846012B0CD003684D
:104C3000D3F8DC500423009300231822A847C5466C
:104C40005437BD46BDE8F08315463B6F1B78B0F87E
:104C5000CE1079B313F0010F2CD0244B18680368E1
:104C60001B6A0139984781460023002B22DCC3EBE5
:104C7000C3018A002244B2F8B020B24201D001330D
:104C8000F3E7D900C81A82001046B0322244014628
:104C90002144043291F8B310381DFDF703FAB4F83B
:104CA000D430D4F8D020391D4846FDF76FFD381DAB
:104CB000FDF739F90023A4F8CE30A4F8D430073535
:104CC000ED086B46A3EBC5039D4602AB19228DF898
:104CD0000820074A10680268D2F894400093012324
:104CE00004223146A047C546AAE700BFC44E0500CE
:104CF000304F05002DE9F04F87B002AF0446B96090
:104D00007A60C7F80CD0032B2BD99946BB6BB3F84C
:104D100000B01FFA8BF8B3F802A008F1FF36B6B264
:104D2000634B1D682B68DB6928469847864227D865
:104D30002B681B6A08F1FF3128469847054603682F
:104D40009B68984742F60303984224D02368D3F81F
:104D5000DC500B23009343461622B9682046A8472F
:104D600008E00368D3F8DC500423009300231622E4
:104D7000B968A847D7F80CD01437BD46BDE8F08F06
:104D80002368D3F8DC500A23009343461622B968FF
:104D90002046A847EEE72846FDF746FB40450AD0E7
:104DA0002368D3F8DC500B23009343461622B968DE
:104DB0002046A847DEE72846FDF71AFB10F0080F4B
:104DC0000FD0B4F8CE30BBB1434528D02368D3F818
:104DD000DC500E23009343461622B9682046A847AC
:104DE000C8E72368D3F8DC50032300934346162218
:104DF000B9682046A847BDE72846FDF7FFFA0646F2
:104E00000146D4F8D0003FF055F9C4F8D000002195
:104E1000A4F8D410A4F8CEB032463FF041F8A9F17E
:104E20000406F6B2BB6B03F1040BB4F8D43053455F
:104E30000AD02368D3F8DC50072300934346162298
:104E4000B9682046A84795E72846FDF7D7FA80B20B
:104E50000AEB06038342ECDCD4F8D0003246594614
:104E600050443FF00FF8B4F8D4301E44A4F8D46096
:104E70007B680733DB086A46A2EBC3039D4602AC9E
:104E800017238DF808304A46B96B0DF109003EF042
:104E9000F9FF084B18680368D3F8945009F101032F
:104EA0000094DBB20422B968A847D7F80CD063E7B6
:104EB000C44E0500304F0500012B76D92DE9F04F87
:104EC00099B00393174689468046229B1E88002589
:104ED000002D56DCC5EBC50293004344B3F8B03057
:104EE0004B4501D00135F3E7C5EBC50293004344C0
:104EF000D3F8C4A0BAF1000F43D05046FEF74DFBE3
:104F00008346002400E001345C45EBDA214650463C
:104F1000FEF756FB0290FEF7A9FBB042F3D20298CF
:104F2000FEF7A6FBB042EED30298FEF7DEFB824608
:104F3000002400E001345445D4DA21460298FEF7FB
:104F4000E7FB8346FEF7A6F9B042F3D1E9004A1B1E
:104F50009300B03308EB03024B1B99004144043229
:104F600091F8B31005A8FDF79DF8039B023B229A28
:104F7000023205A95846FEF74DFA05A8FCF7D3FF03
:104F8000D8E71D2F02D019B0BDE8F08F1E238DF891
:104F90001430064B18680368D3F8944005AB0093AF
:104FA000012304224946A047EDE77047304F050032
:104FB0002DE9F04F8FB002AFB8607960FA609B4680
:104FC000B0F8A8300733DB086A46A2EBC3039D465E
:104FD0000DF10808594607F1180000F040FF4FF6A0
:104FE000FF733B610125464600E056464FF6FF73CE
:104FF0003A699A424DD1B8680368D3F8BC4001962B
:105000004FF42053009313462A467968A047804600
:10501000002840D03378112B3FD196F80190A9F1A8
:1050200004035FFA83FA02245346B2461E461CE08C
:1050300007F1180000F056FF32460146281D3EF0E9
:1050400013FFF8B9302033F0CBFB7861294631F8F3
:10505000043B6A8800923246FEF712FB7969F1B18F
:10506000F868FEF78DFA0DE04C444445BDDA0AEBD2
:105070000405BBF1000FE5D007F1180000F034FF84
:10508000B042D5D06D880135ADB2002DECD13D6177
:10509000EAE7012004E0002002E0012000E0002017
:1050A0003437BD46BDE8F08F2DE9F04F8DB004AF29
:1050B0003861F9617A60B0F8A8300733DB086946D7
:1050C000A1EBC3039D460DF1100B1046FEF765FAE8
:1050D000B8600023FB60F968BA68914248DA7868E2
:1050E000FEF76EFA0546B861FEF7C0FA0446284698
:1050F000FEF7BEFA786138690368D3F8A850CDF896
:1051000004B042F6030300937B692246F969A8477D
:10511000814678B39BF80030092B25D19BF801A07C
:10512000AAF105085FFA88F802254D45E3DA0BEB92
:105130000504382033F054FB0646A378B4F8032066
:105140000292019323880093FB694246611DFEF79A
:10515000ADF88EB13146B869FEF72EFBB4F80340C6
:105160000134A4B25544E0E7FB680133FB60B2E7C9
:10517000012002E0002000E000202437BD46BDE809
:10518000F08F2DE9F04F8FB002AFB860B962FA60CE
:10519000B0F8A8300733DB086946A1EBC3039D468E
:1051A0000DF108091046FEF7F8F938610023BB61DC
:1051B000B9693A69914270DAF868FEF701FA044673
:1051C000F861FEF755FA78612046FEF78EFA3862EC
:1051D0004FF0000B08E0002418E07B697B627B6ADB
:1051E000AB421FD20BF1010B3C6AA34551DA594681
:1051F000FD692846FEF78CFAF862631E9B45EAD0EB
:105200000BF101012846FEF783FA0446F86AFEF71F
:1052100041F8013085B2002CDFD02046FEF73AF885
:105220007862DCE7C7F804B0D7F808B0DBF80030E4
:10523000D3F89840CDF800907B6A2A46B96A584660
:10524000A047824658B399F80030052B1ED199F833
:1052500001804FEA880802245445E7DA09EB040587
:10526000202033F0BDFA0646294631F8023B009370
:10527000BB6A0222FEF74CF99EB13146F86AFEF78E
:10528000BDF82D880135ADB24444E5E7D7F804B048
:10529000A8E7BB690133BB618AE7012002E0002077
:1052A00000E000203437BD46BDE8F08F38B5044635
:1052B000204B40F8863B03F067FE04F1870003F0C3
:1052C00063FE1D4B04F198050FCB85E80F001723F3
:1052D000A4F8A83041F28833C4F8AC300023A4F815
:1052E000CE30C4F8D030A4F8D430002B1BDCDD0065
:1052F000E91A8A0022444FF6FF71A2F8B01000208C
:1053000082F8B20082F8B300ED1AA900B03121444E
:10531000486008811721A2F8C010C2F8C40082F8C2
:10532000C8000133E1E70023C4F8E430C4F8E830F2
:10533000204638BD844D0500684D0500012800D089
:1053400070474FF6FF739942FAD110B5044C2046CE
:10535000FFF7ACFF034A0449204633F054F810BD70
:105360004C110020E0000020D13D01000023002B63
:105370000FDCC3EBC3018A001146024492F8C82037
:1053800012F0020F01D10133F1E70844B0F8B00088
:105390007047022070470023002B06DD0020704775
:1053A0000133002B02DD00200EE010B4C3EBC30478
:1053B000A2000244B2F8B0208A42F1D1C3EBC30389
:1053C0009A00104490F8C8005DF8044B7047000044
:1053D0002DE9F04F99B002AF824679603A60994664
:1053E00097F88040012C39D9D7F88430B3F8008081
:1053F00008F1FF36B6B2BC4B1D682B68DB69284646
:10540000984786423AD8023CE6B2D7F8843003F196
:10541000020B2B681B6A08F1FF31284698470446A7
:1054200003689B68984742F60303984235D0236887
:105430009B6820469847B0F5245F00F0CC80B9F116
:10544000120F0DD1DAF80030D3F8DC4003230093BB
:105450004346122279685046A04701E0122B03D040
:105460005C37BD46BDE8F08F0368D3F8DC40042309
:105470000093002312227968A047F1E7B9F1120FD7
:10548000EED1DAF80030D3F8DC400A23009343462B
:10549000122279685046A047E2E72046FCF7C4FF95
:1054A000804502D1B9F1120F17D12046FCF7A0FFB9
:1054B000C50885F0010505F00105BDB1B9F1120F70
:1054C000CED1DAF80030D3F8DC4003230093434612
:1054D000122279685046A047C2E72046FCF788FFB1
:1054E000850885F0010505F00105E6E72046FCF793
:1054F00082FF10F0020F12D079685046FFF74BFF81
:1055000010F0800F0BD1DAF80030D3F8DC500F2305
:1055100000934346122279685046A847012500238C
:10552000002B00F3BE80C3EBC3018A005244B2F8E3
:10553000B02079688A4201D00133F1E78DB3AAF82F
:10554000448003228AF8852003FA02F2D01A8100EF
:10555000514491F8B3108AF846108300B033534495
:1055600053F8042FCAF847209B88AAF84B309AF8C2
:1055700085300633DBB20AEB030282F84460013364
:10558000DBB28AF8853040330AEB030032465946D5
:1055900004303EF077FC9AF885301E448AF8856026
:1055A0007FE0D900C81A8200B032524481005144D1
:1055B000043291F8B31007F10C00FCF773FD334689
:1055C0005A4607F10C012046FDF7E0F807F10C0000
:1055D000FCF7A9FC65E02046FCF7F8FE02280FD096
:1055E000B9F1120F7FF43CAFDAF80030D3F8DC40A9
:1055F000032300934346122279685046A0472FE7C1
:105600002046FCF7DEFE028842F602139A42E7D1FA
:105610002B681B6AA8F102012846984704460368D4
:105620009B68984742F6030398420DD10023002B54
:1056300036DCC3EBC3018A005244B2F8B02079686B
:105640008A4211D00133F2E7B9F1120F7FF408AFAB
:10565000DAF80030D3F8DC400323009343461222EB
:1056600079685046A047FBE61C2202FB03F303F1D6
:10567000B00252445344043293F8B31007F10C00C3
:10568000FCF710FDD7F884305A8807F10C0120464A
:10569000FDF7CEF807F10C00FCF745FC002500E013
:1056A0000025B9F1120F7FF4DBAE6C463B6807337F
:1056B000DB08A4EBC3039D4602AA13238DF8083030
:1056C00035B18AF8043001238AF88430A546C7E64C
:1056D000064B18680368D3F8945000920123042203
:1056E0007968A847F2E700BFC44E0500304F0500B7
:1056F0000A8803889A4200D2084670472DE9F04F85
:1057000089B002AF8146B9607A601E460024A04687
:10571000002C47DCC7F80CD0C4EBC40293004B4408
:10572000B3F8B0204FF6FF739A4238D0E3001B1B4A
:105730009D004D44B5F8C0300733DB086A46A2EB44
:10574000C3039D460DF1080A1B238DF80830BB6882
:10575000ADF80930B5F8C030033BBB82FE8207F1DB
:10576000160107F11400FFF7C3FF06883246796877
:105770000DF10B003EF086FBF31C0F4A1068026827
:10578000D2F894B0B5F8B010CDF800A0DBB2042286
:10579000D84708F10108D7F80CD00134B8E7D7F89A
:1057A0000CD0FAE7B8F1000FD4BF002001201C375D
:1057B000BD46BDE8F08F00BF304F05002DE9F04F2A
:1057C00089B002AF0446B9607A609B460025A946BD
:1057D000002D66DC6946F960C5EBC50293002344E1
:1057E000B3F8B0204FF6FF739A4202D18D460135CF
:1057F000EEE7EB005B1B4FEA8308A044B8F8C0302B
:105800000733DB08A1EBC3039D460DF1080A1D23F6
:105810008DF80830BB68ADF80930B8F8C030033BEC
:10582000BB82A7F816B007F1160107F11400FFF7C5
:105830005FFFB0F800B05A4679680DF10B003EF0FA
:1058400021FB0BF10303002284F8CC20194A1068D5
:105850000268D2F894201646B8F8B010CDF800A02F
:10586000DBB204228046B047464694F8CC309BB960
:1058700033681B693046984723685B6BE900481B17
:1058800082001046B03222442044043290F8B31013
:10589000204698470028E8D109F10109D7F80CD033
:1058A000A5E7B9F1000FD4BF002001201C37BD4689
:1058B000BDE8F08F304F05002DE9F04F8FB002AFFB
:1058C0007861B9613A62BE6D6D46FD61062B0CD000
:1058D0000368D3F8DC403388042200920822A047F2
:1058E000AD463437BD46BDE8F08F3B6AFB600733F9
:1058F000DB08A5EBC3039D4602AB1A463B619A4603
:1059000009238DF80830002353703488013CA4B279
:105910004FF0020912E02B689B682846984742F630
:105920000303984269D02B689B682846984742F643
:105930000213984200F0A9800134A4B2754B1D688F
:105940002B68DB6928469847844280F0C6807388BC
:10595000A34240F2C2802B681B6A21462846984722
:10596000054604F1010B1FFA8BFB03689B689847FF
:10597000B3889842CFD02B689B682846984742F658
:1059800003039842D8D12846FCF720FD0228D3D142
:1059900006F104082846FCF714FD022201464046A1
:1059A0003EF062FA0028C7D13B6923F809B009F13B
:1059B0000204A4B23A6A131BBB852846FCF722FDF9
:1059C000F88507F12E0107F12C00FFF791FEB0F8E2
:1059D00000803B6903EB04092846FCF711FD4246B1
:1059E000014648463EF04EFA44441FFA84F908F155
:1059F00002083B6983F801806FE02846FCF714FD3C
:105A0000834599D02846FCF7E1FCB860022839D0DC
:105A100015237B629AF8013013B97B6A8AF801304A
:105A20009AF801307A6A934257D12AF809B009F1FD
:105A300002039BB27B6009F103081FFA88F828462D
:105A4000FCF7D6FC7B680AF8030002342AF8084009
:105A500009F105091FFA89F90AEB09042846FCF740
:105A6000B0FCBD682A46014620463EF00BFAA94428
:105A70001FFA89F97A6A4A441346FA689A422CDB7B
:105A80005C4659E707237B62C4E73B6923F809B00A
:105A900009F10204A4B2396A0B1B3B852846FCF7C6
:105AA00039FF788507F12A0107F12800FFF720FE6A
:105AB000B0F800803A6902EB04092846FCF72CFF95
:105AC0004246014648463EF0DDF944441FFA84F957
:105AD00008F102083A6982F80180B9F1020F0ED08C
